:020000040800F2
:1000000018AE002051020008C5460008D13C000887
:100010000146000859170008955300080000000029
:1000200000000000000000000000000095490008EA
:100030002F19000800000000D9470008C552000829
:100040006B0200086B0200086B0200086B020008DC
:100050006B0200086B0200086B0200086B020008CC
:100060006B0200086B0200086B0200086B020008BC
:100070006B0200086B0200086B0200086B020008AC
:100080006B0200086B0200086B0200086B0200089C
:100090006B0200086B0200086B0200086B0200088C
:1000A0006B0200086B0200086B0200086B0200087C
:1000B0006B0200086B0200086B0200086B0200086C
:1000C0006B0200086B0200086B0200086B0200085C
:1000D0006B0200086B0200086B0200086B0200084C
:1000E0006B0200086B0200086B0200086B0200083C
:1000F0006B0200086B0200086B0200086B0200082C
:100100006B0200086B0200086B0200086B0200081B
:100110006B0200086B0200086B0200086B0200080B
:100120006B0200086B0200086B020008151800083B
:100130006B0200086B0200086B0200086B020008EB
:100140006B0200086B0200086B0200086B020008DB
:100150006B0200086B0200086B0200086B020008CB
:100160006B0200086B0200086B0200086B020008BB
:100170006B0200086B0200086B0200080000000020
:100180006B0200086B02000800F002F800F050F863
:100190000AA090E8000C82448344AAF10107DA45E2
:1001A00001D100F045F8AFF2090EBAE80F0013F0E4
:1001B000010F18BFFB1A43F001031847582501002F
:1001C00078250100103A24BF78C878C1FAD85207C0
:1001D00024BF30C830C144BF04680C6070470000C1
:1001E0000023002400250026103A28BF78C1FBD840
:1001F000520728BF30C148BF0B607047662906F020
:100200008C85642900F02681002070471FB506F018
:100210007AFD9DE8030000F027FA00F0F1FC0400ED
:100220000020002105F0B6FFE0601FBD10B510BD35
:1002300000F008FE1146FFF7E9FF05F05FFF00F050
:1002400026FE03B4FFF7F2FF03BC00F097FE0000A8
:100250000948804709480047FEE7FEE7FEE7FEE75A
:10026000FEE7FEE7FEE7FEE7FEE7FEE70448054996
:10027000054A064B704700008153000889010008B9
:1002800018A2002018AE002018A6002018A60020F2
:1002900070B5064600F0CCF9056806F10B0020F0B9
:1002A0000704B4429CBF002070BD2B466A68BAB1F7
:1002B0001068A04210D304F1080188423CBF506886
:1002C000586007D35168101941601168091B01601B
:1002D00058601460101D70BD13465268002AE7D1A3
:1002E0002146284600F0ACF90028DED170BD70B57B
:1002F0000446051F00F09CF90068002C14BF4468F8
:1003000070BD002C18BFAC423CBF20466468F8D3D7
:1003100001680A18AA4218BF456003D12A68054639
:100320001144016028684119A1421CBF6C6070BD76
:100330006168696021680844286070BD53EA020C56
:1003400000F069802DE9F04B4FF00006002B1FBF35
:10035000B3FA83F503FA05F424FA05F65E4012BFFA
:100360001643B2FA82F502FA05F4C5F120051EBF64
:1003700022FA05FC44EA0C04203556EA044C4FEA04
:10038000144418BF641C4FF000084FF0000990425D
:1003900071EB030C39D3002919BFB1FA81F701FAC7
:1003A00007F6B0FA80F700FA07F6C7F120071EBF7C
:1003B00020FA07FC46EA0C062037B6FBF4FCA7EB54
:1003C0000507103F07F01F0BCBF120060CFA0BFBC3
:1003D0002CFA06F644BFB3460026202FA4BF5E4683
:1003E0004FF0000B5BEA060C08BF4FF0010B19EB56
:1003F0000B09ABFB027C48EB0608C01B06FB02CCDA
:100400000BFB03CC71EB0C01C1E70B4602464146E6
:100410004846BDE8F08B13B54FF000004FF00001E7
:10042000AFF30080BDE81C40704700000FB41CB55E
:10043000074B06AA7B4469460090059800F0C3FB71
:100440000020694600F0D2FB1CBC5DF814FB0000E4
:10045000B50700002DE9F041064600241068752913
:10046000314616A510D0AFF30080002802DA4042D2
:1004700013A507E031688A0701D512A502E04907F4
:1004800004D511A5012401E0AFF3008000210A2268
:1004900006F1240709E0B0FBF2FCB0FBF2F302FB2B
:1004A0001C00303078541846491C0028F3D12346EC
:1004B0002A463046BDE8F04100F017B900000000C0
:1004C0002D0000002B000000200000002DE9F04767
:1004D0004FF0000A89460446C0F820A02046E16893
:1004E0008847002876D0252806D0D4E901219047F6
:1004F000206A401C2062F1E7E16820460025884719
:10050000C4F81CA006460027C4F818A02A2E09D05B
:10051000304605F0EBFD38B304EB8708303EC8F8F1
:10052000186019E059F8041B204604EB870291611A
:10053000E1688847012F064618D1E069002820DAD3
:1005400025F020051DE0D8F8180000EB800006EB30
:1005500040003038C8F818002046E1688847064651
:1005600005F0C4FD0028EED1012F0AD02E2E08D1AF
:100570002046E16888477F1C0646022F45F020058B
:10058000C4DBA069002803DA404245F00105A06100
:10059000E80701D025F01005B6B1A6F141001928F1
:1005A00002D8203645F400654A463146204625608B
:1005B0004D46FFF723FE58B1012806D0ED1D25F06A
:1005C000070000F1080989E704E005F1040985E75F
:1005D00030468AE7206ABDE8F0874FF0000200B598
:1005E000134694469646203922BFA0E80C50A0E856
:1005F0000C50B1F12001BFF4F7AF090728BFA0E804
:100600000C5048BF0CC05DF804EB890028BF40F8CF
:10061000042B08BF704748BF20F8022B11F0804F11
:1006200018BF00F8012B70477047704770470000F3
:1006300000487047C0A1002070477047704770475E
:1006400038B504460A4600206946AFF3008000280A
:1006500008BF38BD02460099204600F0D9FA0120B3
:1006600038BD012000F0E6BBF8B5AFF300800546C9
:1006700000200C46102000BF0646A819A0420DD944
:10068000324669460020AFF30080070008BF00F043
:10069000D1FB0098A04218BF0546C419FFF7C8FF58
:1006A00005600746F01D20F007004619284600F0B7
:1006B0000AF8B44208BFF8BDA21B31463868BDE84D
:1006C000F84000F0A5BA00210160C0E901107047B0
:1006D0001020704710B500F097FA006810BD10B5F3
:1006E000044600F091FA046010BD2DE9F0470D4674
:1006F00099469246044600F124080168880604D50C
:10070000E06921F01001216000E00120A84201DD34
:10071000471B00E00027A1697A1902EB0900081ABB
:10072000A0612078C00602D42046AFF300800026E6
:1007300008E0D4E901211AF806009047206A401C1D
:10074000761C20624E45F4DB2078C0060AD5204690
:10075000AFF3008006E0D4E9012130209047206A01
:10076000401C2062381EA7F10107F4DC07E0D4E941
:10077000012118F805009047206A401C2062281EBD
:10078000A5F10105F3DC2046AFF3008020780006D8
:1007900002D50220BDE8F0870120FBE770472DE974
:1007A000FF4F0C461E464FF0FF378BB0D2E90001D9
:1007B000DDF860800A908A46C1F30A5505B93D46C6
:1007C000002108464FF00000BAF1000F00F440008D
:1007D00005DA00EB80004FF4400101EA50004FEAD7
:1007E0009059B9F1010F00DDB9460A9850EA4A0064
:1007F0000ED044F61050A5F2FF3545432F14B8F142
:10080000000F1ED07542291E1EDDC9F100021CE03A
:10081000B8F1010F4FF0000001D0302103E0F243A6
:1008200005E02154401CB042FBDB30460022002191
:1008300021540B99C1F80880C1E900200FB0BDE830
:10084000F08FBD1B6D1CDEE74A4600DA694206A840
:1008500000F07EFA06AB93E8070003AB83E80700DD
:1008600050460A9900F0B0FB8DE80700A0F5005053
:100870001F3800900398002D0ADD42F21F014A46FE
:100880000844002303A90390684600F019FE09E01C
:10089000A0F500504A461F38002303A9039068467C
:1008A00000F023FE8DE807000004000C03D04FF099
:1008B000FF30410800E01046B8F1000F03D00022DD
:1008C000009215461EE0751E05D400F0BBF93032CB
:1008D00062556D1EF9D5B3460122084302D00022AD
:1008E0007F1C04E02078302801D100227F1E002ADE
:1008F000099784D01DE0112D07DA00F0A3F93032FA
:1009000062556D1C50EA0102F5D1084302D00098EF
:10091000C8B10EE00021681E05E0235C625C6354F0
:100920002254401E491C8142F7DBAB46A81B401EE7
:100930000990002004F80B000B98099AC0F8088071
:10094000C0E9002B7AE711264FF0000857E72DE9A0
:10095000F04F88460446D21D22F0070191B0D1E93C
:100960000001CDE90A0104F083FD02460B98C00F97
:1009700001D02D2007E02068810701D52B2002E05F
:10098000202101EAC000032A099001D0072A05DBD3
:1009900003464146204600F09BF90BE12078800693
:1009A00001D5E06900E00620B8F1650F814606D068
:1009B000B8F1660F18D0B8F1670F70D131E00020A0
:1009C000B9F1110F009001DB112301E009F10103DE
:1009D0000AAA01A90CA8FFF7E2FEDDE90C700026C7
:1009E00009F10105834647E001204B4600904FF096
:1009F00000470AAA01A90CA8FFF7D1FEDDE90DB056
:100A00000C995D46002610B909F101000D18B9EBEB
:100A1000050003D4C0F1FF3609F10105A5EB09007B
:100A20002BE0B9F1010F01DA4FF001090020B9F113
:100A3000110F0090484601DD112300E003460AAA89
:100A400001A90CA8FFF7ABFEDDE90C704D460026AE
:100A50008346207800070AD4AB4500DA5D4601A83A
:100A6000012D04DD411911F8011C302907D04F4533
:100A700002DA17F1040F04DA012082460FE06D1E3E
:100A8000EEE7002F02DCED1B3E4403E0781CA84299
:100A900000DD7D1CB81B00F1010A4FF000472078F3
:100AA000000703D4AA4501DB4FF0FF3A0021B7F15C
:100AB000004F0DF143088DF8431024D002202B2362
:100AC000002F01DA7F422D230A21021EA0F101002E
:100AD00000DC5FB197FBF1FC97FBF1F201FB1C7CA2
:100AE00017460CF1300C08F801CDEEE7A8F1010033
:100AF00003702188090501D5452100E06521A0F199
:100B0000010800F8011C09980FA9A1EB0807FF1DB7
:100B100000B10120411901EBEA70A1693844081ABB
:100B2000401EA0612078C00602D42046AFF30080AA
:100B3000099828B1D4E901219047206A401C20621D
:100B40002078C00622D52046AFF300801EE0002E9C
:100B500004DBB34502DD01A8805D00E03020D4E96C
:100B600001219047206A401C2062761CAAF10100F6
:100B70005FEA000A0AD100F043F8C0680168405CEF
:100B8000D4E901219047206A401C2062281EA5F16B
:100B90000105DCDC07E0D4E9012118F8010B9047DE
:100BA000206A401C2062381EA7F10107F3DC2046B2
:100BB000AFF30080032011B041E6000001694A1C38
:100BC00002610878704700B58FB0CDE9013100218E
:100BD000059105497944CDE9031011466846FFF7B0
:100BE00075FC0FB000BD0000E5FFFFFF0A6802F8CA
:100BF000010B0A607047000000487047B8A1002050
:100C000000487047D8A1002000487047B8A10020D4
:100C1000034640688C46002818BF88423CBF034604
:100C20004068F8D318681844884207D00CF10300D4
:100C300020F00700001D411A521A0146081D0A60E3
:100C4000FFF755BB30B5B0F10A024FEA900E71F1D3
:100C500000034EEA817EB0EB0E0061EB91014FEA9A
:100C6000101E4EEA017E10EB0E0041EB11114FEA0F
:100C7000102E4EEA016E10EB0E0041EB11214FEAEF
:100C8000104E4EEA014E10EB0E0041EB11414018A0
:100C900041F100014FEAD00040EA41704FEAD10132
:100CA00010EB80054FEA810444EA907444EB0104A0
:100CB0006D1944EB0404521BA3414FF0000348BFDD
:100CC0000A3200D530BD401C41F1000130BD0000AA
:100CD0002DE9F0411F46044603260168072A01F466
:100CE000006004DB08B116A505E016A503E008B115
:100CF00015A500E015A521F010002060A069C01E18
:100D0000A0610FB1401EA0612046AFF300804FB13B
:100D1000D4E9012138469047206A401C2062C01C5B
:100D2000206206E0206AFAE7D4E9012115F8010BF8
:100D30009047761EF8D22046AFF30080BDE8F081E0
:100D40004E414E006E616E00494E4600696E66006F
:100D50002DE9F047814616468AB0354878440DC8DB
:100D60008DE80D0032487844801C03AC0DC884E83F
:100D70000D0041F69B300844372190FBF1F290FBC7
:100D8000F1F5A5F1800501FB12041B3C02D564427C
:100D9000012000E00020DFF898A080460027FA44F8
:100DA000AAF1BE0A0EE0E0070AD03246684607EB19
:100DB000470101230AEB810100F097FB8DE8070052
:100DC00064107F1C002CEED1194F7F44AE3F19E018
:100DD000E80715D007EB04100DF1180A90E80E0093
:100DE0008AE80E00C068F04201D198190890324696
:100DF000012306A903A800F078FB03AB83E80700F2
:100E00006D10641C002DE3D14FF00103324669469A
:100E1000B8F1000F03A802D000F052FB01E000F08F
:100E200064FBC9E90001C9F808200AB0BDE8F087F1
:100E30009C19010010B500F039F8BDE8104000F031
:100E40002FB870477546FFF7D7FEAE4605006946D6
:100E5000534620F00700854618B020B5FFF706FA84
:100E6000BDE820404FF000064FF000074FF00008AB
:100E70004FF0000B21F00701AC46ACE8C009ACE82C
:100E8000C009ACE8C009ACE8C0098D46704710B590
:100E90000446AFF300802046BDE81040FFF7D1B90B
:100EA000002801D000F06AB87047000010B5012892
:100EB00005D0002103A000F067F8012010BD09A1B2
:100EC000F8E7000053494752544D454D3A204F75BD
:100ED00074206F662068656170206D656D6F727932
:100EE000000000003A2048656170206D656D6F72EA
:100EF0007920636F72727570746564004FF0013C05
:100F000050F8042B51F8043B9A4221D1A2EB0C0378
:100F1000934313EACC1317D150F8042B51F8043B38
:100F20009A4215D1A2EB0C03934313EACC130BD1D5
:100F300050F8042B51F8043B9A4209D1A2EB0C0360
:100F4000934313EACC13DBD04FF00000704700BF8F
:100F5000D01A01BAB1FA81F101F0180122FA01F0B8
:100F6000CB40C1F12001DBB2C0B2C01A2CFA01F3B0
:100F7000D11A914311EAC311E6D1704701491820F3
:100F8000ABBEFEE72600020070B505460C460A20FF
:100F900000E06D1C00F011F835B128780028F8D178
:100FA00002E0641C00F009F814B120780028F8D1A0
:100FB000BDE870400A20AFF3008008B569468DF89F
:100FC00000000320ABBE08BD5FEA400C08BF91F0F3
:100FD000000F4FEA8C234FEAC12243EA51514FEAF6
:100FE0001C5018BF00F5F0404FEA300018BF41F028
:100FF00000415FEA6C5C00F02980BCF1FF3F08BF54
:1010000040F080407047130C06BF12044FF0100CE4
:101010004FF0000C130E04BF12020CF1080C130F5A
:1010200004BF12010CF1040C930F04BF92000CF1E9
:10103000020CD30F04BF52000CF1010C11464FF00B
:101040000002A0F11F00A0EB0C00704711F0004F50
:1010500008BF704731F000413FF4D5AF0B0C06BF1D
:1010600009044FF0100C4FF0000C0B0E04BF0902E6
:101070000CF1080C0B0F04BF09010CF1040C8B0FD1
:1010800004BF89000CF1020CCB0F04BF49000CF126
:10109000010CCCF12003A0EB0C0022FA03F302FABE
:1010A0000CF241EA030100F10100704720F07F4C8F
:1010B00080EA030023F07F47ACEB070303F57C5382
:1010C00000F0004003F1FF032DE980494FEA154B82
:1010D00009B44FEA144325EA0B4E24EA03480FF201
:1010E000042606EB132749083E785FEA320203FB29
:1010F0000667C7F5000707FB06F64FEA54374FEAC5
:10110000D64606F1020607FB066CCCF1005C4FEAFE
:101110001C472CEA074C07FB06F40CFB06F504EB16
:1011200015464FEA961634BF00204FF000404FEAB4
:10113000D13706FB07FC4FEA1C4C0CFB0BF7D21B0C
:1011400003FB0CF761EB07010CFB0EF7B0EB07405C
:1011500072EB17420CFB08F734BFA2EB0742B2EB6D
:10116000074261EB17414FEA0C444FEA910706FB37
:1011700007FC4FEA1C4C0CFB0BF7B0EBC74072EBC3
:10118000573203FB0CF734BFA2EBC742B2EBC742A6
:1011900061EB57310CFB0EF7B0EBC70072EB5772E7
:1011A0000CFB08F734BFA2EBC702B2EBC70261EB3E
:1011B0005771039F4FEA816141EA921104EBCC041D
:1011C0004FEAD1374FEA826206FB07FC42EA9012EF
:1011D0004FEA80604FEA1C4C0CFB0BF7D21B03FB61
:1011E0000CF761EB07010CFB0EF7B0EB074072EB5D
:1011F00017420CFB08F734BFA2EB0742B2EB0742E1
:1012000061EB17414FEA8C554FEA910704EB9C24A0
:1012100006FB07FC4FEA1C4C0CFB0BF7B0EBC7407E
:1012200072EB573203FB0CF734BFA2EBC742B2EBB1
:10123000C74261EB57310CFB0EF7B0EBC70072EB06
:1012400057720CFB08F734BFA2EBC702B2EBC70220
:1012500061EB577115EB4C254FEA816141EA921120
:101260004FEA82624FEAD13742EA901206FB07FC4E
:1012700044F100044FEA80604FEA1C4C0CFB0BF772
:10128000D21B03FB0CF761EB07010CFB0EF7B0EB75
:10129000074072EB17420CFB08F734BFA2EB074282
:1012A000B2EB074261EB174115EB1C154FEA813198
:1012B00041EA92414FEA823242EA90424FEA80305C
:1012C0004FEA0C7644F1000448EA03434EEA0B4827
:1012D0004FF0000EB2EB080C71EB030724BF62461F
:1012E00039464EEB0E0E4FF0000B001852414941AB
:1012F0004BEB0B0BB2EB080C71EB03077BF1000B14
:1013000024BF624639464EEB0E0E4FF0000B00181C
:10131000524149414BEB0B0BB2EB080C71EB03074D
:101320007BF1000B24BF624639464EEB0E0E51EAAC
:10133000020718BF46F0010616EB0E7655F10002C3
:1013400054F1000103D5BDE88901BDE80088BDE87E
:101350008901BDE80048B619524141EB0101A3F1F2
:101360000103704780807F7E7D7C7B7A79787776F9
:1013700076757473727171706F6E6E6D6C6C6B6A72
:101380006A69686867666665646463636261616010
:10139000605F5F5E5E5D5D5C5C5B5B5A5A5959588D
:1013A00058575756565555555454535352525251F7
:1013B000515050504F4F4F4E4E4D4D4D4C4C4C4B4D
:1013C0004B4B4A4A4A494949484848474747474694
:1013D00046464545454444444443434343424242D0
:1013E00042414141002B9C4630D477002BD01CB5A4
:1013F0004FEA370703B44FF010004FF01001BAF175
:10140000000F06D0BCF1000FDCBF40F0080040F038
:1014100008014FF000000FBCBDE810400BF1010BBC
:10142000BBF1010F08BF5FEA170722BF12F10102EB
:1014300011F101014FF0004143F1000300F00040C1
:1014400043EA00007047F9D35708D0E746EA06465A
:1014500013F1400F4FEA16461FDD13F1200FDFBFD7
:1014600016430A46002120335B42BED0C3F1200759
:1014700046EA064602FA07F74FEA164646EA070624
:10148000C3F1200722FA03F201FA07F721FA03F168
:101490004FF0000342EA0702A7E746EA020646EADF
:1014A00006464FEA164646EA0106BCBF46EA06462D
:1014B000360C4FF000034FF000024FF0000194E7AC
:1014C0002DE9804C9A46934670B491E8380007C8DD
:1014D00031EA400C48BF34EA430C03D5FFF7E6FD80
:1014E000FFF780FFF0BCBDE8008C2DE9804C9A46E8
:1014F000934670B491E8380007C810F0804F08BFD9
:1015000013F0804F03D100F005F8FFF76BFFF0BC3C
:10151000BDE8008C20F07F4780EA030023F07F4C79
:1015200007EB0C03A3F57C5300F00040A3F1FE038E
:1015300092F0000F00F0B38095F0000F00F077807C
:101540002DE901494FEA11404FEA144621EA0048CB
:1015500000FB06FC24EA064708FB06F607FB08F832
:1015600000FB07F718EB06484CEB164C4FEA124B02
:1015700018EB07484FEA15464CEB174022EA0B4E92
:101580000BFB06FC25EA06470EFB06F607FB0EFEE4
:101590000BFB07F71EEB064E4CEB164C4FF000060C
:1015A0001EEB074E4CEB174B18EB0B0840F10000FD
:1015B00018EB0E0B58EB000840F100008F1A4FF0AB
:1015C00000013CBFC943661B14BFB5EB040C0021EE
:1015D0003CBFC943F61B4FEA17444EEA8E0E27EA7A
:1015E00004454FEA1C4704FB07622CEA074C05FB45
:1015F00007F70CFB05F604FB0CFC16EB074642EB69
:10160000174216EB0C4642EB1C421BEB060658EB4E
:101610000202414146EA9E0601D5BDE80189B6199C
:10162000524141EB0101A3F10103BDE801894FEAF9
:1016300014454FEA114724EA054621EA074C05FB09
:1016400007F406FB07F70CFB06F105FB0CFC11EB9E
:10165000074144EB17444FEA124711EB0C4144EBAE
:101660001C4422EA074C05FB07F206FB07F70CFBBC
:1016700006F605FB0CFC16EB074642EB174216EB91
:101680000C4642EB1C456A1854F1000148BF7047F4
:10169000B619524141EB0101A3F10103704795F0E6
:1016A000000F37D04FEA11424FEA144721EA0246B1
:1016B00024EA074C02FB07F106FB07F70CFB06F4D4
:1016C00002FB0CFC14EB074441EB17414FEA1547B2
:1016D00014EB0C4441EB1C4125EA074C02FB07F5D7
:1016E00006FB07F70CFB06F602FB0CFC16EB0746A5
:1016F00045EB174516EB0C4645EB1C42121951F110
:10170000000148BF7047B619524141EB0101A3F1F6
:10171000010370474FEA14454FEA114724EA054692
:1017200021EA074C05FB07F106FB07F70CFB06F265
:101730004FF0000605FB0CFC12EB074241EB174192
:1017400012EB0C4251EB1C4148BF7047921841EB21
:101750000101A3F10103704700BFFEE73EB5044657
:101760000D4600F06CFF1F490968401A0A2810D97D
:101770009FED1D0B53EC102B1D4890ED000B51EC11
:10178000100B04F05BFD1A4A03C200F058FF154924
:1017900008609FED180B53EC102B154890ED000BD3
:1017A00051EC100B05F012F904D29FED140B104808
:1017B00080ED000B002347F67C52102111A002F0AF
:1017C00021FF1F204CF218610022CDE90021029078
:1017D000074890ED000B06238C2218210E2002F002
:1017E000FCFF3EBD480000207B14AE47E17A843FF9
:1017F00040000020000000000000F03F000000005A
:101800000000000020204D65737361676520426F02
:101810007820200010B5024801F082FA10BD0000C7
:10182000D00000200146087810381823B0FBF3F2EE
:101830000848805CC865032A05D908686FF3090069
:10184000001D886503E008686FF309008865886DEE
:1018500070470000DE240108014600208A6A8B6977
:10186000CBB932B1012A0DD0022A03D0032A10D1FC
:101870000EE000BFCB6A03F08073B3F1807F00D12C
:10188000012007E0CB6AB3F1C07F00D1012001E065
:1018900000E000BF34E08B69B3F5005F1AD132B1CC
:1018A000012A07D0022A03D0032A11D10AE000BF7F
:1018B00001200EE0CB6A03F08073B3F1807F00D18A
:1018C000012006E0CB6AB3F1C07F00D1012000E027
:1018D00000BF15E032B1012A05D0022A04D0032A44
:1018E0000CD103E000BF00BF012008E0CB6A03F089
:1018F0008073B3F1807F00D1012000E000BF00BF02
:10190000704730B50468246824F4802405682C608E
:10191000046863608468402C04D10468A260046891
:10192000E16003E00468A1600468E26030BD7047D4
:1019300008B504488023A02200210090084602F048
:1019400023FD08BD1E6D00087CB504460D4600F061
:1019500076FE17490968401A0F2808D9154800680B
:10196000401C1449086000F06AFE114908601148E3
:1019700000687F2802DD00200E490860BF20012199
:101980003F23CDE900100B4800210268084600F013
:101990003FF9AF200121CDE9001006480068C0F1F1
:1019A0007F023F2300217F2000F032F97CBD000040
:1019B00020000020240000207FB504460D4600F0E2
:1019C0003EFE20490968401A1E2811D91E48007899
:1019D00028B11E480068401C1C49086004E01B48F0
:1019E0000068401E1949086000F029FE154908608A
:1019F000164800681F2803DD00201349087006E020
:101A000012480068002802DA01200F4908700F48C8
:101A10000FA1026802A8FEF709FDF02001210B4684
:101A2000CDE9001009481F210268402000F0D2FBD8
:101A30000120102302AA00210090084601F036F987
:101A40007FBD000028000020300000202C00002076
:101A5000723D25640000000038B504460D460020A4
:101A6000102303A21821009001F020F938BD0000D6
:101A70004472697665722056657273696F6E3A4C6E
:101A800043442076312E300072B600BFFEE70000DE
:101A900070B50446B3F5804F13D1D1E9000540EA93
:101AA00005108D6840EA05208D6928438D8940EA3C
:101AB000054054F82250064E3540284344F8220091
:101AC00003E06FF0704044F82200002070BD000079
:101AD0000000F0CF70B50246086852F8200020F0F0
:101AE00001000E6842F826008868082801D14023CA
:101AF00000E00023486818438E683043CE683043C6
:101B00000E6930434E693043CE6930430E6A30432C
:101B10004E6A30438E6A3043CE6A30430E6B40EAE1
:101B2000060488690443C86B0443074D45F4806587
:101B300045F4E025086852F82000A84320430E68C9
:101B400042F82600002070BD7FFB080010B5034658
:101B5000D1E9000440EA04108C6840EA04208C8932
:101B600040EA0444088A401E44EA0054087D801E6E
:101B700044EA00608C692043541C53F8244004F06C
:101B800040442043541C43F82400002010BD01466B
:101B90000022002007E00B5C7F2B02DDC01C921CA2
:101BA00001E0401C521C0B5C002BF4D11046704726
:101BB0002DE9FE4304460D4616461F46DDF82880F3
:101BC0000F201F2103223B46CDE90021029032461F
:101BD0002946204600F088FCBDE8FE8310B54FF68C
:101BE000FF7002F00DF910BD10B502F0CFF9022020
:101BF00001F076FA4FF6FF7002F002F910BD000016
:101C000010B502480068804710BD00007400002035
:101C10002DE9F05F2DED0A8B05460C4616461F4652
:101C2000DDF854B04FF00108BBF1AF0F01D14FF018
:101C30000308B5420DD1A14605E049462846149A4D
:101C400000F0B2F8C144B945F7DDBDEC0A8BBDE840
:101C5000F09FBC420AD1A94605E021464846149AA5
:101C600000F0A2F8C144B145F7DDEEE7701B04F0C7
:101C70005CFD41EC180B381B04F057FD41EC1A0BCE
:101C800053EC182B04F08EFB41EC190B9FED440B29
:101C9000B0EE408AF0EE608A32E0204604F045FD66
:101CA00041EC1B0B53EC182B51EC190B04F090FD7D
:101CB00041EC1C0B53EC1B2B04F0C0FA41EC1A0B4B
:101CC00004F004FD8146284604F02FFD41EC1B0B77
:101CD00053EC182B04F0B2FA41EC1A0B04F0F6FCAA
:101CE00082464946149A00F05FF8404604F01DFD14
:101CF00041EC1A0B53EC182B04F0A0FA41EC180B32
:101D0000701B04F012FD41EC1A0B53EC182B04F07D
:101D10005DFEC2D99FED220BB0EE408AF0EE608AE4
:101D200032E0204604F001FD41EC1B0B53EC182B74
:101D300004F084FA41EC1A0B04F0C8FC81462846F2
:101D400004F0F3FC41EC1B0B53EC192B51EC180B7A
:101D500004F028FB41EC1C0B53EC1B2B04F06EFA37
:101D600041EC1A0B04F0B2FC82464946149A00F08A
:101D70001BF8404604F0D9FC41EC1A0B53EC182B2D
:101D800004F05CFA41EC180B381B04F0CEFC41EC7B
:101D90001A0B53EC182B04F019FEC2D900BF54E7FC
:101DA000000000000000000070B505460E46144615
:101DB000A2B23146284602F0BBF870BD2DE9F04FC3
:101DC0002DED088B83B081468A4690469B46B9F13B
:101DD000000F01DD484600E00020054609EB080041
:101DE000401CA02803DA09EB0800401C00E0A020FA
:101DF0000290BAF1000F01DD504600E000200446D9
:101E00000AEB0800401C802803DA0AEB0800401C9B
:101E100000E0802001901698F0286ED1264690E0D0
:101E2000281B871988E0F0EE000A00EE108AB8EE51
:101E3000C00A03F053FD8DED000A009804F0F2FE95
:101E400041EC180BA9EB070000EE900AF8EEE00A4F
:101E5000B0EE600AF0EE000A03F040FDB0EE40BACA
:101E6000AAEB060000EE900AF8EEE00AB0EE600A77
:101E7000F0EE000A03F032FD3BEE000A8DED000AA1
:101E8000009804F0CFFE41EC1A0BB0EE4A0AF0EED7
:101E90006A0A03F035FBB0EE409AF0EE609A53EC1C
:101EA000182B51EC190B04F057FC44D81498012856
:101EB00006D0022812D0032820D0042839D12BE0E4
:101EC000C6EB44013846159AFFF76EFF6219D11B25
:101ED000AA19101B159AFFF767FF2BE0C6EB440108
:101EE000C7EB4500159AFFF75FFF6219D11B2A194E
:101EF000901B159AFFF758FF1CE027E0C7EB450041
:101F00003146159AFFF750FFE219511B2A19901B11
:101F1000159AFFF749FF0DE031463846159AFFF74D
:101F200043FFE219511BAA19101B159AFFF73CFF3A
:101F300000E000BF00BF7F1C02988742FFF673AF2E
:101F4000761C01988642FFF66BAFDDE02646D7E0AF
:101F5000281B8719CFE0F0EE000A00EE108AB8EED9
:101F6000C00A03F0BBFC8DED000A009804F05AFE95
:101F700041EC180BA9EB070000EE900AF8EEE00A1E
:101F8000B0EE600AF0EE000A03F0A8FCB0EE40BA32
:101F9000AAEB060000EE900AF8EEE00AB0EE600A46
:101FA000F0EE000A03F09AFC3BEE000A8DED000A09
:101FB000009804F037FE41EC190BB0EE490AF0EE40
:101FC000690A03F09DFAB0EE40AAF0EE60AA53EC65
:101FD000182B51EC1A0B04F0BFFB7BD8A8EB0B00BD
:101FE00000EE900AF8EEE00AB0EE600AF0EE000AA9
:101FF00003F074FC8DED000A009804F013FE41EC30
:10200000180BA9EB070000EE900AF8EEE00AB0EE1C
:10201000600AF0EE000A03F061FCB0EE40BAAAEBF1
:10202000060000EE900AF8EEE00AB0EE600AF0EE6C
:10203000000A03F053FC3BEE000A8DED000A009805
:1020400004F0F0FD41EC1A0BB0EE4A0AF0EE6A0A19
:1020500003F056FAB0EE409AF0EE609A53EC182B6B
:1020600051EC190B04F0B2FC44D81498012806D0A6
:10207000022812D003281FD0042839D12BE0C6EB48
:1020800044013846159AFFF78FFE6219D11BAA1931
:10209000101B159AFFF788FE2BE0C6EB4401C7EB37
:1020A0004500159AFFF780FE6219D11B2A19901B73
:1020B000159AFFF779FE1CE0C7EB45003146159AEB
:1020C000FFF772FEE219511B2A19901B159AFFF7B0
:1020D0006BFE0EE00EE031463846159AFFF764FEBF
:1020E000E219511BAA19101B159AFFF75DFE00E0BB
:1020F00000BF00BF7F1C02988742FFF62CAF761C02
:1021000001988642FFF624AF03B0BDEC088BBDE812
:10211000F08F2DE9FE4F05460E46174698460C9C5B
:10212000BD4201DA284600E038468146464501DADC
:10213000304600E040468246BD4201DD284600E0D0
:1021400038468346464501DD304600E04046029071
:102150000D980F2824D1BF2053465A465146CDE949
:1021600000404846FFF754FDBF20CDE900405A46E5
:10217000029B19464846FFF74BFDBF20CDE90040C2
:102180004A4651464846029BFFF742FDBF20CDE933
:1021900000405A4651465846029BFFF739FD17E06A
:1021A000CDF804A010E0CDF8009007E02246DDE96C
:1021B0000001FFF7F9FD0098401C00900098584579
:1021C000F4DD0198401C0190DDE901018842EADD5F
:1021D000BDE8FE8F2DE9F04F2DED088B83B08146D1
:1021E0008A4690469B46B9F1000F01DD484600E063
:1021F0000020054609EB0800401CA02803DA09EB83
:102200000800401C00E0A0200290BAF1000F01DDA0
:10221000504600E0002004460AEB0800401C8028DD
:1022200003DA0AEB0800401C00E0802001901598BA
:10223000F0287DD1264680E0281B871977E0F0EE54
:10224000000A00EE108AB8EEC00A03F047FB8DEDDD
:10225000000A009804F0E6FC41EC180BA9EB07001B
:1022600000EE900AF8EEE00AB0EE600AF0EE000A26
:1022700003F034FBB0EE40BAAAEB060000EE900A81
:10228000F8EEE00AB0EE600AF0EE000A03F026FB7A
:102290003BEE000A8DED000A009804F0C3FC41EC0F
:1022A0001A0BB0EE4A0AF0EE6A0A03F029F9B0EE12
:1022B000409AF0EE609A53EC182B51EC190B04F095
:1022C0004BFA33D831463846149AFFF76DFDE219C0
:1022D000511BAA19101B149AFFF766FDC6EB4401A7
:1022E0003846149AFFF760FD6219D11BAA19101B1A
:1022F000149AFFF759FDC6EB4401C7EB4500149A49
:10230000FFF752FD6219D11B2A19901B149AFFF78F
:102310004BFDC7EB45003146149AFFF745FDE21926
:10232000511B2A19901B149AFFF73EFD7F1C00E0F9
:1023300008E00298874282DB761C01988642FFF60D
:102340007BAFCCE02646C6E0281B8719BEE0F0EE46
:10235000000A00EE108AB8EEC00A03F0BFFA8DED55
:10236000000A009804F05EFC41EC180BA9EB070092
:1023700000EE900AF8EEE00AB0EE600AF0EE000A15
:1023800003F0ACFAB0EE40BAAAEB060000EE900AF9
:10239000F8EEE00AB0EE600AF0EE000A03F09EFAF2
:1023A0003BEE000A8DED000A009804F03BFC41EC86
:1023B0001A0BB0EE4A0AF0EE6A0A03F0A1F8B0EE8A
:1023C000409AF0EE609A53EC182B51EC190B04F084
:1023D000C3F97AD8A8EB0B0000EE900AF8EEE00AF9
:1023E000B0EE600AF0EE000A03F078FA8DED000A14
:1023F000009804F017FC41EC180BA9EB070000EE65
:10240000900AF8EEE00AB0EE600AF0EE000A03F07F
:1024100065FAB0EE40BAAAEB060000EE900AF8EEBC
:10242000E00AB0EE600AF0EE000A03F057FA3BEE65
:10243000000A8DED000A009804F0F4FB41EC1A0B41
:10244000B0EE4A0AF0EE6A0A03F05AF8B0EE409A8B
:10245000F0EE609A53EC182B51EC190B04F0B6FA1D
:1024600033D831463846149AFFF79EFCE219511BC7
:10247000AA19101B149AFFF797FCC6EB44013846C3
:10248000149AFFF791FC6219D11BAA19101B149A18
:10249000FFF78AFCC6EB4401C7EB4500149AFFF72F
:1024A00083FC6219D11B2A19901B149AFFF77CFC3C
:1024B000C7EB45003146149AFFF776FCE219511B31
:1024C0002A19901B149AFFF76FFC7F1C0298874211
:1024D000FFF63DAF761C01988642FFF635AF03B09C
:1024E000BDEC088BBDE8F08F2DE9FF4F83B083462C
:1024F000DDE9115A109C0598834501DA584600E041
:102500000598064606990498884201DA049800E086
:10251000069807460598834501DD584600E0059872
:10252000804606990498884201DD049800E00698E8
:102530008146A8EB06006100884202DA022000FB17
:102540000468A9EB07006100884202DA022000FB60
:102550000479022039198DE821043019012322461B
:10256000FFF72CFC012039198DE82104A8EB0400A9
:1025700001232246FFF722FC0320A9EB04018DE88A
:102580002104301901232246FFF718FC0420A9EB8F
:1025900004018DE82104A8EB040001232246FFF783
:1025A0000DFCBAF10F0F28D1BF20A8EB0402CDE932
:1025B000005030193B463946FFF72AFBBF20A8EBF5
:1025C0000402CDE9005030194B464946FFF720FB85
:1025D000BF20A9EB040339193246CDE9005030463B
:1025E000FFF716FBBF20A9EB040339194246CDE9DA
:1025F00000504046FFF70CFB1EE0F020A9EB04035F
:1026000039194246CDE900503046FFF782FDF020EF
:102610003B19A8EB0402CDE9005030193946FFF709
:1026200078FDF020A8EB0402A9EB0401CDE90050ED
:1026300030194B46FFF76DFD07B0BDE8F08F10B5C0
:1026400000F0B0FE10BD000038B504460D46002075
:10265000102303A21821009000F028FB38BD0000D1
:1026600047726170686963732056657273696F6E33
:102670003A76312E3200000010B50648064908604F
:1026800001F096FC032001F0D5FB4FF6FF7001F03E
:10269000B7FB10BDDD1B0008740000202DE9FF4FC3
:1026A0002DED088B89B09A46229F1EAC70CC1DB1CF
:1026B00021983044B84206DC012009B0BDEC088BFB
:1026C00004B0BDE8F08F07FB04F007902198304478
:1026D0006043A0EB0A0006904FF00008A9464D4663
:1026E000D9F814000590D9F8100008B1D9F8109065
:1026F000B74211DA002002E0D9F80890401CB84235
:10270000FADBD9F80000FFF742FA6043049000EBCF
:10271000D0704010089015E021983044B84211DD87
:10272000304603E00599C9680591401CB842F9DBC1
:1027300005990868FFF72BFA6043049000EBD0700E
:10274000401008904D4ADDE9070100F0AFF82198EC
:102750003044604350451BDD214604EBD172474BAA
:102760001B6803EB620250460AEBD073A2EB6308CE
:10277000B8F1000F02DA4FF0000804E00698804537
:1027800001DDDDF818803D480068A0EB080B02E091
:102790003A48D0F800B02598B0F5FA7F1FDA9FEDDF
:1027A000380B02F0B9FEB0EE409AF0EE609A259830
:1027B00003F0BBFF41EC1B0BB0EE4B0AF0EE6B0AD3
:1027C00002F0AAFEB0EE40AAF0EE60AA53EC192B7C
:1027D00051EC1A0B03F0E6FD41EC100B01E09FED0C
:1027E0002A0BB0EE408AF0EE608A51EC180B03F031
:1027F000F3FC27490860239810281BD124988DE802
:102800003001039013990A1B119908192049D1ED41
:10281000000A91ED000A5346129900F08BF901204D
:102820000090129800EB0B0123461AA2119800F0B9
:102830003DFA21E02398F8B924988DE830010390FF
:102840001348D0ED000A90ED000A534611A807C8BE
:1028500000F070F9012000901298204400EB0B0367
:102860000648D0F804C011980CEB0002129800EB57
:102870000B011198FFF79CF900201EE79C00002037
:102880000000000000407F40000000000000F03F1A
:10289000A40000202D3E000070B50446049DE81AF7
:1028A0006043561AB0FBF6F0184470BD17B52DED15
:1028B000108B85B014469FED830B8DED020B9FEDC1
:1028C000810B8DED000B9FED7F0BB0EE408AF0EE9B
:1028D000608A9FED7C0BB0EE409AF0EE609AFFF7B5
:1028E000AEFE7A490968401A7949896988427DD9DA
:1028F00015992268881A03F018FF41EC180B53EC65
:10290000182B744890ED000B51EC100B03F096FC63
:10291000704A03C2704890ED000B53EC102B51EC41
:10292000180B04F095F8CDE9020116996268881A2F
:1029300003F0FBFE41EC190B53EC192B674890EDAB
:10294000000B51EC100B03F079FC644A03C264489D
:1029500090ED000B53EC102B51EC190B04F078F8B0
:10296000CDE900015A4890ED041BB0EE410AF0EEAB
:10297000610A9DED021B53EC112B51EC100B03F07F
:1029800027FF41EC1C0B524890ED021BB0EE410AB0
:10299000F0EE610A4F4890ED001B53EC112B51EC07
:1029A000100B03F015FF41EC1E0B494890ED001B86
:1029B000B0EE410AF0EE610A53EC182B51EC100B0B
:1029C00003F006FF41EC1F0B53EC1E2B03F036FC0B
:1029D00041EC1D0B53EC1C2B03F030FC41EC1B0BAA
:1029E0003B4890ED081BB0EE410A00E066E0F0EED7
:1029F000610A53EC102B51EC1B0B03F0E9FE41EC88
:102A00001A0B03F063FE2060314890ED041BB0EE1A
:102A1000410AF0EE610A9DED001B53EC112B51ECC5
:102A2000100B03F0D5FE41EC1C0B294890ED021B66
:102A3000B0EE410AF0EE610A284890ED001B53EC1D
:102A4000112B51EC100B03F0C3FE41EC1E0B204880
:102A500090ED001BB0EE410AF0EE610A53EC192B29
:102A600051EC100B03F0B4FE41EC1F0B53EC1E2B8A
:102A700003F0E4FB41EC1D0B53EC1C2B03F0DEFBDD
:102A800041EC1B0B124890ED081BB0EE410AF0EE32
:102A9000610A53EC102B51EC1B0B03F099FE41EC37
:102AA0001A0B03F013FE60600B4880ED008B0C489E
:102AB00080ED009BFFF7C3FD0449086005B0BDEC45
:102AC000108B1EBD000000000000000098000020D8
:102AD0008001002078000020800000208800002075
:102AE0009000002001490860704700007400002039
:102AF0002DE9F04106460F4614461D46ABB2A2B280
:102B00003946304601F070FBBDE8F0812DE9F8430D
:102B100005460E4617461C46DDF820801FFA88F051
:102B2000E3B23A4631460090284601F0AFFBBDE8DB
:102B3000F88300002DE9FF4F2DED020B2DED028BE8
:102B400085B015461F46B0EE408AF0EE608ADDE99A
:102B5000179A169EC846D8F8140004907B1C6A1C6D
:102B6000DDE90901FFF7C4FF00204F490870002488
:102B7000D8F8100058B3D8F8108025E019980090C4
:102B800004FB06F3A3EB0A0300EE103AB8EEC00A0A
:102B900020EE280ABDEEC00A10EE101AB7EE000AA9
:102BA00070EE480A00EE105AB8EEC00A20EE800A15
:102BB000BDEEC00A10EE100A3346D8F8002000F02F
:102BC00075F8D8F80880641CB8F1000FD6D126E05B
:102BD00019980090049B1A6804FB06F3A3EB0A0300
:102BE00000EE103AB8EEC00A20EE280ABDEEC00A88
:102BF00010EE101AB7EE000A70EE480A00EE105AF6
:102C0000B8EEC00A20EE800ABDEEC00A10EE100A2F
:102C1000334600F04BF80498C0680490641C049894
:102C20000028D5D104FB06F097FBF0F001282CDA40
:102C300007FB07F004FB06F190FBF1FB04FB06F237
:102C40000023194650460097FFF726FE584404FB20
:102C500006F200231946009703905046FFF71CFE2A
:102C60000290BF200121CDE900102A462846DDE967
:102C70000213FEF7CDFFAF2001213B462A46CDE9E6
:102C8000001000212846FEF7C3FF8023A022002168
:102C90000846FFF72DFF01200349087005B0BDEC81
:102CA000028B06B0BDE8F08F700000202DE9F84FD0
:102CB0008046894616461C46DDF828A04746002572
:102CC00027E07219234649463846CDF800A0FFF7A1
:102CD0001DFF705D7F2802DD2744ED1C05E02046C6
:102CE00004EBD07107EB61076D1C715D7F2905DA7C
:102CF00004EBD47107EB6101A02905DC715D7F292C
:102D000007DD3919A02904DD0449097809B14746CE
:102D1000A144705D0028D4D1BDE8F88F7000002078
:102D2000F8B50446002000908C4800684FF4165116
:102D3000B0FBF1F7A56D2E6894F85C100820884070
:102D4000304098B12068006800F0040070B120683D
:102D5000006820F004002168086094F85C100820E6
:102D60008840A860606D40F00100606594F85C10D8
:102D700001208840304068B12068406900F0800040
:102D800040B194F85C1001208840A860606D40F06C
:102D90000200606594F85C1004208840304068B1FF
:102DA0002068006800F0020040B194F85C10042034
:102DB0008840A860606D40F00400606594F85C1085
:102DC00010208840304078B32068006800F0080088
:102DD00050B394F85C1010208840A8602068006808
:102DE00000F4802080B12068006800F4002028B939
:102DF000206CC8B12046216C884715E0A06C98B1C2
:102E00002046A16C88470FE02068006800F48070BD
:102E100028B92068006820F0080021680860206C4C
:102E200010B12046216C884794F85C10202088401F
:102E30003040002865D02068006800F010000028AD
:102E40005FD094F85C1020208840A86094F835008A
:102E5000052828D12068006820F016002168086045
:102E60002068406920F0800021684861206C08B922
:102E7000A06C28B12068006820F008002168086074
:102E800094F85C103F208840A860012084F8350049
:102E900000BF002084F8340000BF206D10B1204630
:102EA000216D8847F8BD2068006800F4802080B15B
:102EB0002068006800F4002028B9606C10B120463A
:102EC000616C88471DE0E06BD8B12046E16B884714
:102ED00017E02068006800F4807068B92068006816
:102EE00020F0100021680860012084F8350000BF40
:102EF000002084F8340000BFE06B10B12046E16B85
:102F00008847606D38B3606D00F00100F0B10520B6
:102F100084F835002068006820F00100216808600E
:102F200000BF0098401C0090B84200D905E020681E
:102F3000006800F001000028F3D100BF012084F8F0
:102F4000350000BF002084F8340000BFE06C10B1F1
:102F50002046E16C884700BFA4E70000BC000020C9
:102F60002DE9F0410446002500F01CFA074614B98B
:102F70000120BDE8F081606A00B100BF022084F842
:102F8000350000BF002084F8340000BF20680068CE
:102F900020F00100216808600AE000F003FAC01B7D
:102FA000052805D920206065032084F83500E0E776
:102FB0002068006800F001000028EED12068056854
:102FC00021480540D4E901010843E168084321692B
:102FD000084361690843A1690843E1690843216A1C
:102FE00008430543606A042803D1D4E90B01084370
:102FF0000543206805602068456925F00705606A7B
:103000000543606A04280DD1A06A0543E06A48B10F
:103010002046FEF721FC28B140206065012084F89D
:103020003500A6E7206845612046FEF7FBFB064613
:1030300094F85C103F208840B0600020606501205B
:1030400084F83500002094E73F8010F02DE9F04728
:1030500004460D4616461F464FF00008D4F8589017
:1030600000BF94F83400012802D10220BDE8F087A7
:10307000012084F8340000BF94F83500012825D1E0
:10308000022084F83500002060653B463246294620
:103090002046FEF736FC94F85C103F208840C9F8C3
:1030A00008002068006840F0160021680860206C65
:1030B00028B12068006840F0080021680860206896
:1030C000006840F001002168086006E000BF0020B1
:1030D00084F8340000BF4FF002084046C6E7000005
:1030E00070B5044600F05EF906462546681C10B12E
:1030F00004480078054400BF00F054F9801BA84242
:10310000FAD370BDB800002000B587B0142102A822
:10311000FDF763FA1B48006808B107B000BD012045
:103120001849086000BF002001901748006840F06F
:103130000100154908600846006800F00100019090
:1031400000BF00BF4FF4F060029002200390002007
:103150000490032005900C20069002A90B4800F073
:1031600019F84CF6B300029002200390002004905E
:10317000032005900C20069002A9054800F00AF8EB
:1031800000BFCAE768000020383802400010024043
:10319000000C0240F8B502460B4600250024002032
:1031A0000021D6E0012606FA01F51E6806EA0504AC
:1031B000AC4274D11E7906F00306012E04D01E79AC
:1031C00006F00306022E13D190684F000326BE407E
:1031D000B0434F00DE68BE40304390605068012627
:1031E0008E40B0431E79C6F300168E4030435060C7
:1031F0001E7906F00306032E09D0D0684F0003267F
:10320000BE40B0434F009E68BE403043D0601E7940
:1032100006F00306022E13D1CF0802F1200656F85D
:1032200027004E07F70E0F26BE40B0434F07FF0E94
:103230001E69BE403043CF0802F1200646F8270041
:1032400010684F000326BE40B0431E7906F0030607
:103250004F00BE40304310605E6806F44036002EDA
:1032600076D000BF002600963C4E366846F4804675
:103270003A4F3E603E46366806F48046009600BFF0
:1032800000BF374E8F0856F827008E07370F0F26DE
:10329000BE40B043334EB24202D1002624E057E094
:1032A000314EB24201D101261EE0304EB24201D170
:1032B000022619E02E4EB24201D1032614E02D4E13
:1032C000B24201D104260FE02B4EB24201D10526B5
:1032D0000AE02A4EB24201D1062605E0284EB2424B
:1032E00001D1072600E008268F073F0FBE4030437C
:1032F0001B4E8F0846F82700224E3068A0435E68B8
:1033000006F4801606B120431E4E3060361D30682C
:10331000A0435E6806F4001606B12043194E361D20
:103320003060184E361F3068A0435E6806F40036E1
:1033300006B12043134E361F3060361F3068A0435D
:103340005E6806F4803606B120430E4E083E3060BB
:10335000491C1029FFF426AFF8BD00004438024094
:10336000083801400000024000040240000802400A
:10337000000C0240001002400014024000180240FD
:10338000001C0240083C0140024613690B400BB18F
:10339000012000E0002070470AB1816101E00B04C8
:1033A000836170470148006870470000B00000204A
:1033B00003480068034909780844014908607047D8
:1033C000B0000020B800002010B50D48006840F49F
:1033D00000700B4908600846006840F4806008608F
:1033E0000846006840F480700860032000F0A6F8EA
:1033F0000F2000F007F800F02BF8002010BD0000AF
:10340000003C024070B504460E4800784FF47A71D3
:10341000B1FBF0F00C490968B1FBF0F5284600F06B
:103420003DFC08B1012070BD102C07D200222146BE
:10343000501E00F045F80548046001E00120F2E765
:103440000020F0E7B8000020BC000020B4000020FD
:1034500008B500BF002000900E48006840F480408E
:103460000C4908600846006800F48040009000BFE6
:1034700000BF00BF00200090081F006840F080508F
:10348000091F08600846006800F08050009000BFE7
:1034900000BF08BD443802400146084600280DDB45
:1034A00000BF00BF00F01F0301229A4043099B00A8
:1034B00003F1E023C3F8002100BF00BF00BF704745
:1034C0002DE9F05F80460D461646002701F0FCFF0F
:1034D000074639462A46334601F00700C0F1070A7D
:1034E000BAF1040F02D94FF0040A01E0C0F1070A53
:1034F000D14600F1040ABAF1070F02D24FF0000AD8
:1035000001E0A0F1030AD4464FF0010A0AFA09FAD1
:10351000AAF1010A0AEA020A0AFA0CFA4FF0010BB0
:103520000BFA0CFBABF1010B0BEA030B4AEA0B04A1
:103530002146404601F0D0FFBDE8F09F00BF00F0FB
:103540000702064B19684FF6FF031940044B0B4363
:1035500043EA0221014B196000BF70470CED00E007
:103560000000FA0570B504460D460CB9012070BD87
:103570005848006800F00700A84209D255490D706C
:103580000846006800F00700A84201D00120EEE7DD
:10359000207800F0020002281DD1207800F00400FD
:1035A000042805D14C48006840F4E0504A490860BE
:1035B000207800F00800082805D14748006840F44A
:1035C0006040454908604448006820F0F000A16868
:1035D000084341490860207800F00100A8B3606802
:1035E000012807D13C4808380068C0F34040B8B90A
:1035F0000120BCE76068022802D06068032807D178
:10360000354808380068C0F3406048B90120AEE78B
:10361000314808380068C0F3400008B90120A6E727
:103620002D48006820F00300616808432A490860BB
:10363000FFF7B8FE064609E0FFF7B4FE801B41F233
:103640008831884202D9032091E707E022480068C8
:1036500000F00C006168B0EB810FEDD11D480068EF
:1036600000F00700A84209D91A490D700846006801
:1036700000F00700A84201D0012078E7207800F090
:103680000400042807D11448006820F4E050E168E1
:10369000084311490860207800F00800082808D184
:1036A0000D48006820F46040216940EAC1000A49E1
:1036B000086000F019F808490968C1F30311074AC6
:1036C000515CC8400649086006480068FFF79AFE4A
:1036D00000204CE7003C024008380240E624010884
:1036E000BC000020B40000202DE9F0470024002594
:1036F0000026A1462548006800F00C0020B10428EF
:1037000005D008283AD105E0DFF8849039E0DFF8E9
:10371000849036E01D48001F006800F03F041B48FD
:10372000001F006800F4800078B11A481749091F8B
:103730000968C1F38811A0FB0170014622460023ED
:103740003846FCF7FBFD05460EE011480F49091FFE
:103750000968C1F38811A0FB0170014622460023CD
:103760003846FCF7EBFD05460848001F0068C0F32B
:103770000140401C4600B5FBF6F902E0DFF810906E
:1037800000BF00BF4846BDE8F0870000083802408F
:103790000024F40040787D01F8B504460CB90120FE
:1037A000F8BD207800F00100002874D0F9480068C6
:1037B00000F00C0004280DD0F648006800F00C0062
:1037C000082813D1F348001F006800F48000B0F50A
:1037D000800F0BD1EF4808380068C0F34040002844
:1037E00059D06068002856D10120D9E700BF606831
:1037F000B0F5803F08D1E7480838006840F48030D1
:10380000E449083908601EE06068B0F5A02F0DD1CA
:10381000E0480838006840F48020DE490839086034
:103820000846006840F4803008600CE0D948083849
:10383000006820F48030D7490839086008460068DD
:1038400020F48020086000BF606890B1FFF7AAFDF7
:10385000054606E0FFF7A6FD401B642801D90320BA
:103860009EE7CC4808380068C0F340400028F1D0FB
:1038700011E0FFF797FD054606E0FFF793FD401BBB
:10388000642801D903208BE7C24808380068C0F3D8
:1038900040400028F1D1207800F0020002285FD1DA
:1038A000BC48006800F00C0058B1BA48006800F04D
:1038B0000C0008281CD1B748001F006800F48000E5
:1038C000B0B9B44808380068C0F3400020B1E068DF
:1038D000012801D0012063E7AE480838006820F0D5
:1038E000F800216940EAC100AA490839086037E0B8
:1038F000E06800B30120A8490860FFF753FD0546C2
:1039000006E0FFF74FFD401B022801D9032047E7DF
:10391000A04808380068C0F340000028F1D09D4856
:103920000838006820F0F800216940EAC100994990
:103930000839086014E0002097490860FFF732FD5D
:10394000054606E0FFF72EFD401B022801D90320A3
:1039500026E7904808380068C0F340000028F1D1FD
:10396000207800F0080008282CD16069A8B1012057
:103970008A490860FFF716FD054606E0FFF712FDCD
:10398000401B022801D903200AE782486C300068F6
:10399000C0F340000028F1D014E000207F49086007
:1039A000FFF700FD054606E0FFF7FCFC401B022880
:1039B00001D90320F4E677486C300068C0F340007A
:1039C0000028F1D1207800F00400042870D10027ED
:1039D00070483830006800F0805090B900BF002077
:1039E00000906C483830006840F0805069493831A8
:1039F00008600846006800F08050009000BF00BFDB
:103A000001276748006800F48070B0B96448006816
:103A100040F4807062490860FFF7C4FC054606E088
:103A2000FFF7C0FC401B022801D90320B8E65C4820
:103A3000006800F480700028F2D000BFA068012860
:103A400008D154486830006840F00100514968319D
:103A500008601DE0A06805280DD14E486830006858
:103A600040F004004B49683108600846006840F0A7
:103A7000010008600CE047486830006820F0010051
:103A80004449683108600846006820F00400086076
:103A900000BFA068A8B1FFF785FC054609E0FFF765
:103AA00081FC401B41F28831884202D9032077E62D
:103AB00026E0384868300068C0F340000028EED0A7
:103AC00013E0FFF76FFC054608E0FFF76BFC401BB7
:103AD00041F28831884201D9032061E62D486830DF
:103AE0000068C0F340000028EFD1012F07D129481A
:103AF0003830006820F0805026493831086000BF17
:103B0000A069002845D02348006800F00C00082870
:103B10005DD0A069022845D100201F490866FFF743
:103B200041FC054606E0FFF73DFC401B022801D999
:103B3000032035E6174808380068C0F340600028C5
:103B4000F1D1D4E907010843616A40EA81110122F9
:103B5000A06AC2EB500041EA00412C20005D41EA1E
:103B600000600C49091F086001200B490866FFF737
:103B700019FC054606E0FFF715FC401B022801D999
:103B800003200DE6034808380068C0F340600028B1
:103B9000F1D049E00838024000004742800E474219
:103BA00000700040002021490866FFF7FBFB054636
:103BB00006E0FFF7F7FB401B022801D90320EFE5E1
:103BC0001B480068C0F340600028F2D12CE0A069D7
:103BD000012800D1E4E51648001D0668A069012807
:103BE00020D006F48001E06981421BD106F03F013C
:103BF000206A814216D147F6C0703040616AB0EB4E
:103C0000811F0FD106F440310122A06AC2EB50009F
:103C1000B1EB004F06D106F070612C20005DB1EBD6
:103C2000006F01D00120BBE50020B9E5000047424C
:103C30000038024070B504460E4615460CB9012006
:103C400070BD94F8490028B9002084F84800204647
:103C500000F01FF804F108012068FDF73BFF314632
:103C6000A2682068FDF772FF2946236BD4E90102A0
:103C7000FDF70EFFA168206850F8210040F0010018
:103C8000A268216841F82200012084F84900002040
:103C9000D6E710B50446FFF737FA10BD70B50446F5
:103CA0002546681EB0F1807F01D301200FE0681E19
:103CB0004FF0E02148610F214FF0FF3001F00CFC84
:103CC00000204FF0E021886107200861002070BDCE
:103CD00000BFFEE72DE9F04F2DED088B89B00446BB
:103CE0000D4617469846DDF868B0DDF870901E9EC8
:103CF000204604EBD0714FEA610A601C0890B6F5CB
:103D0000FA7F1FDA9FED2F0B01F006FCB0EE409A10
:103D1000F0EE609A304602F008FD41EC1B0BB0EE6D
:103D20004B0AF0EE6B0A01F0F7FBB0EE40AAF0EEA2
:103D300060AA53EC192B51EC1A0B02F033FB41EC47
:103D4000100B01E09FED210BB0EE408AF0EE608A8F
:103D500051EC180B02F040FA1E4908602868FDF784
:103D600016FF1D490860CDF800900968494261437B
:103D700000EE101AB8EEC00A1649D1ED000AB7EEEF
:103D8000001A71EE600A20EE200ABDEEC00A10EEA5
:103D9000100A234600212A68FEF788FF1020C4F18C
:103DA0007F03CAF19E028DE83009CDE90696CDE980
:103DB000047050460899FEF771FC09B0BDEC088B01
:103DC000BDE8F08F0000000000407F4000000000D0
:103DD0000000F03F540000205800002038B5044691
:103DE0000D460020102303A218210090FEF75EFF6D
:103DF00038BD000053584755492076312E33000016
:103E000010B50146002009E00A12084B03F8102003
:103E1000012303EB4003054CE154401C044A128883
:103E2000034B5B885A438242EEDC10BDA8010020A0
:103E3000A8A1002000B502460AB1012A1BD100202A
:103E40003949887180200880A02048802C20088172
:103E50002A2048812B20888132B9362000F0CEFA02
:103E6000C02000F0C5FA26E0362000F0C7FA002096
:103E700000F0BEFA1FE0022A01D0032A1BD1012064
:103E800029498871A0200880802048802C20088142
:103E90002A2048812B208881022A06D1362000F072
:103EA000ADFA602000F0A4FA05E0362000F0A6FA92
:103EB000A02000F09DFA00201C49088048801A4884
:103EC0000088888018484088C8801749887A00F0A0
:103ED00095FA002000F08CFA002000F089FA1249CF
:103EE0000988491EC1F3072000F082FA0E490978BB
:103EF000491EC8B200F07CFA0B49087B00F07EFA3C
:103F0000002000F075FA002000F072FA0649498896
:103F1000491EC1F3072000F06BFA03498978491E56
:103F2000C8B200F065FA00BDA8A10020A8000020DA
:103F300030B5002809DB124B9B88834205DD002940
:103F400003DB0F4BDB888B4200DC30BD0C4B1B8846
:103F500018440B4B5B88194414120A4B1B8801FB55
:103F60000303094D05F81340064B1B8801FB0303AF
:103F7000012505EB4303044DEA5400BFE5E70000CB
:103F8000A8000020A8A10020A801002010B500F082
:103F900039FA4FF42043034A03490448FFF756F81F
:103FA00010BD000000000160A8010020D00000202A
:103FB00010B5012211468B48FFF7EEF90120FFF7FB
:103FC0008FF8002201218748FFF7E6F90A20FFF762
:103FD00087F8012211468348FFF7DEF97820FFF7C2
:103FE0007FF87820FFF77CF8112000F007FA78209E
:103FF000FFF776F8B12000F001FA002000F0F8F9A0
:104000002C2000F0F5F92B2000F0F2F9B22000F09E
:10401000F5F9002000F0ECF9012000F0E9F90120A9
:1040200000F0E6F9B32000F0E9F9002000F0E0F933
:10403000012000F0DDF9012000F0DAF9002000F0A5
:10404000D7F9012000F0D4F9012000F0D1F9B42013
:1040500000F0D4F9032000F0CBF9B92000F0CEF93C
:10406000FF2000F0C5F9832000F0C2F9472000F0DE
:10407000BFF9C02000F0C2F9A22000F0B9F9022077
:1040800000F0B6F9842000F0B3F9C12000F0B6F9D1
:10409000022000F0ADF9C22000F0B0F90A2000F0D3
:1040A000A7F9002000F0A4F9C32000F0A7F98A20A6
:1040B00000F09EF92A2000F09BF9C42000F09EF940
:1040C0008A2000F095F9EE2000F092F9C52000F06A
:1040D00095F9092000F08CF9202000F08FF9C72015
:1040E00000F08CF9102000F083F9362000F086F9FA
:1040F000C02000F07DF9E02000F080F90C2000F0F5
:1041000077F91C2000F074F91B2000F071F91A20D7
:1041100000F06EF92F2000F06BF9282000F068F90C
:10412000202000F065F9242000F062F9232000F03F
:104130005FF9222000F05CF92A2000F059F93620BE
:1041400000F056F9002000F053F9052000F050F976
:10415000002000F04DF9102000F04AF9E12000F0B5
:104160004DF90C2000F044F91A2000F041F91A2012
:1041700000F03EF91A2000F03BF92E2000F038F94B
:10418000272000F035F9212000F032F9242000F03A
:104190002FF9242000F02CF9222000F029F92A2000
:1041A00000F026F9352000F023F9002000F020F976
:1041B000052000F01DF9002000F01AF9102000F091
:1041C00017F9352000F01AF9002000F011F93A2013
:1041D00000F014F9052000F00BF9292000F00EF989
:1041E000002010BD0000024030B5002801DD04466B
:1041F00000E00024234D2C80002901DD0C4600E066
:104200000024204D6C802C4625881F4C2488641E79
:10421000A54202DA1B4C248802E01B4C2488641E51
:10422000184D2C802C466588174C6488641EA54266
:1042300002DA144C648802E0134C6488641E114D49
:104240006C802C46248814440F4D2D88AC4201DA32
:10425000144604E00C4C24880A4D2D88641B094D3B
:10426000AC802C4664881C44074D6D88AC4201DA52
:104270001C4604E0044C6488024D6D88641B014DAB
:10428000EC8030BDA8000020A8A100202DE9FC4F43
:1042900081460E4690461C4698F8000080286ADA4F
:1042A000B2462046E31704EB5373DB1021464FEA76
:1042B000E47C04EB5C7C4FEAEC0CA4EBCC0CBCF192
:1042C000000F02D04FF0010C01E04FF0000C6344EE
:1042D000224604EBD27C4FEA6C0C03FB0CF303F098
:1042E000FF0B98F800002038C7B2002540E00C2CE6
:1042F00007D107EB4700214901EB8000405D0190A9
:1043000013E0102C05D11E4800EB0710405D019012
:104310000BE0182C07D107EBC7001A4901EB80000E
:10432000405D019001E0BDE8FC8F0020009019E0A5
:10433000019800F0800020B1314648460B9AFFF703
:10434000F7FD01984006000E0190761CA6EB0A00CE
:10435000A04203D1564609F1010906E00098401C2D
:10436000C0B2009000980828E2DB00BF681CC5B20C
:104370005D45BCDB00BF00BFD5E700001E0D010896
:1043800092110108821701082DE9F04105460E46F9
:10439000069C002025E0002120E000FB021714F815
:1043A00017C000EB800701EB4717DFF8408008F8E3
:1043B00017C000FB02174FF0010C0CEB470714F875
:1043C00007C000EB800701EB47174FF0010808EB2F
:1043D0004707DFF8188008F807C0491C9142DCDB6A
:1043E000401C9842D7DBBDE8F0810000A801002006
:1043F0000149087070470000000001604FF0C041A3
:104400000870704700B50249087AFFF7F7FF00BD52
:10441000A8A1002008B500BF00200090194800683E
:1044200040F48000174908600846006800F48000E6
:10443000009000BF00BF1448144908600020486085
:104440008021124881608900C160002101614161C1
:104450008161C1614FF48031016204214162032115
:1044600081620021C1620163FEF77AFD08B1FDF7A8
:104470000BFB002211463B20FFF722F83B20FFF701
:104480000BF808BD3038024058640240D0000020CC
:1044900000B58FB01C2108A8FCF79FF81C2101A8CB
:1044A000FCF79BF84FF02040204908602048486006
:1044B0000020886000211D48C16001614161816167
:1044C000C161016241624FF4805181620021C16289
:1044D0004FF4804101630021416381634164022004
:1044E00008900F20099004200A9000200B901020C3
:1044F0000C9011200D9000200E90042001900F20B0
:1045000002900520039000200490102005901120B7
:1045100006900020079001AA08A90448FFF78AFB2B
:1045200008B1FDF7B1FA0FB000BD00003001002066
:10453000040100A000B587B0142102A8FCF74DF8D3
:1045400000BF002001902B48006840F0100029496E
:1045500008600846006800F01000019000BF00BF2E
:1045600000BF002001900846006840F0800008600D
:104570000846006800F08000019000BF00BF00BF47
:10458000002001900846006840F0010008600846DD
:10459000006800F00100019000BF00BF00BF0020D4
:1045A00001900846006840F008000860084600686E
:1045B00000F00800019000BF00BF002203210E4858
:1045C000FEF7EAFE0F2002900020039001200490E5
:1045D00002A90A48FEF7DEFD0320029001200390A5
:1045E000002004900320059002A90348FEF7D2FDA5
:1045F00007B000BD30380240000002400010024009
:1046000000BFFEE72DE9F04F85B080460C4692468C
:104610009B464046FDF7BBFA0546F02090FBF4F0C0
:10462000A84202DAF02090FBF4F5F020082105FB07
:1046300004F9CDE9001A029009EBD971491001F192
:10464000A00707EBD77149100A1D05FB04F1039180
:1046500001EBD1714910C1F1A001049101EBD171BD
:104660004910081F231D0021FDF73EFF05FB04F143
:1046700001EBD1725210C2F1A00000EBD0725610C3
:104680000027B94619E008EB07022346022130460D
:10469000CDF800B0FEF73AFA18F807007F2804DDDD
:1046A0002644FF1C09F1020907E0204604EBD07103
:1046B00006EB61067F1C09F10109A945E3DB05B0A2
:1046C000BDE8F08F00BFFEE730B585B004460D466B
:1046D0002F4890ED001BB0EE410AF0EE610A53EC5A
:1046E000102B2CA101A8FBF7A1FE00200C2301AA8E
:1046F00001460090FEF7DAFA254890ED021BB0EE75
:10470000410AF0EE610A53EC102B25A101A8FBF73A
:104710008DFE00200C2301AA19460090FEF7C6FA70
:104720001B4890ED041BB0EE410AF0EE610A53EC19
:10473000102B1EA101A8FBF779FE00200C2301AA73
:1047400018210090FEF7B2FA114890ED081BB0EE68
:10475000410AF0EE610A53EC102B17A101A8FBF7F8
:1047600065FE00200C2301AA24210090FEF79EFA8A
:10477000074815A1826901A8FBF758FE00200C2309
:1047800001AA30210090FEF791FA05B030BD00007B
:10479000800100204B703A20252E33660000000077
:1047A0004B693A20252E3366000000004B643A2006
:1047B000252E336600000000466163746F723A2054
:1047C000252E3366000000004D696E54696D653A10
:1047D0002025646D7300000070472DE9F04F2DED2A
:1047E0000A8B83B007460D4616461C46B0EE408A3B
:1047F000F0EE608ADDE916ABA046F02104EBD8703C
:1048000040102B19BA19CDE901B10090294638465C
:10481000FDF76AFE304601F088FF41EC1C0B53ECBB
:10482000182B01F0D5FF41EC1A0B384601F07DFF43
:1048300041EC1B0B53EC1A2B01F000FD41EC190B62
:1048400001F044FF8146A046F02204EBD8714910E4
:1048500018982B19CDE9010200914A46294638469D
:10486000FDF742FE0F2104EBD87040102B19BA1946
:10487000CDE901A1009029463846FDF735FE03B089
:10488000BDEC0A8BBDE8F08FFEB506460C4600BFB6
:10489000FDF7D5FE3C490968401A0F2811D93B485D
:1048A000007828B13A480068401C3949086004E0A3
:1048B00037480068401E36490860FDF7C0FE32499F
:1048C0000860334800683F2803DD00202F49087046
:1048D0000DE02F480068002809DA01202B490870F4
:1048E0004FF4FA70FEF7FCFB01202070FEBD284853
:1048F00005680F2001210422CDE90021029005EB7B
:10490000D57043102248002102680846FDF7ECFDEF
:104910001F480568F02001210422CDE90021029002
:1049200005EBD57043101A48026840320021402040
:10493000FDF7DAFDF02001210822CDE900210290E7
:104940001348056805EBD570401000F120031048AE
:10495000202102680020FDF7C7FD0F200121082259
:10496000CDE9002102900A48056805EBD57040109A
:1049700000F1200306480268403220214020FDF764
:10498000B3FDFDF731F983E7340000203C0000203F
:104990003800002070470346086908B101207047BD
:1049A0000B615A6932B100E0D268D0680028FBD1AF
:1049B000D16000E059618A600020F0E70346C868D2
:1049C00008B101207047CB601A6932B100E09268EB
:1049D00090680028FBD1916000E019614A600020D6
:1049E000F0E770B505460E461820FBF751FC04466B
:1049F00025606660204670BD70B505460E462020D5
:104A0000FBF746FC04462560A661204670BD000009
:104A100070B504460D460948006808B1012070BD14
:104A20002020FBF735FC0549086008460068046053
:104A30000846006885610020F1E7000000000020C2
:104A400070B504460D4629462046FFF7E1FF0248AF
:104A500000680249086070BD0000002004000020CA
:104A60002DE9F04F2DED088B89B004460D46174611
:104A70009846DDF868B0DDF870901E9E204604EB85
:104A8000D0714FEA610A601C0890B6F5FA7F1FDA10
:104A90009FED2C0B00F040FDB0EE409AF0EE609AD6
:104AA000304601F042FE41EC1B0BB0EE4B0AF0EE3B
:104AB0006B0A00F031FDB0EE40AAF0EE60AA53ECB4
:104AC000192B51EC1A0B01F06DFC41EC100B01E0BD
:104AD0009FED1E0BB0EE408AF0EE608A51EC180B91
:104AE00001F07AFB1B4908601D98C4F17F03CAF1ED
:104AF0009E028DE83009CDE90696CDE90470504656
:104B00000899FDF7CBFDCDF8009012482A6890ED8A
:104B1000000AF7EE000A70EEC00A604200EE100ACA
:104B2000B8EEC00A20EE800ABDEEC00A10EE101AE0
:104B300023460020FEF7BAF809B0BDEC088BBDE8AB
:104B4000F08F00000000000000407F4000000000E7
:104B50000000F03F100000202DE9FF4F87B089468C
:104B600092469B46DDF85080E4480078B8B1E448AE
:104B70000068006940B1E24800680069E1490860E6
:104B80000020E149086007E00020DE490860DC48B9
:104B900000684069DC4908600020D8490870D8489E
:104BA00000680469D64800684569002601E0A468E9
:104BB000761C002CFBD1002701E0ED687F1C002D46
:104BC000FBD198F80300002840D0D0480078002896
:104BD0003CD0CC48006828B3CA480068C84908607F
:104BE000C84800680069C74908600846006848B1BD
:104BF000FDF725FDC64908600020C4490870C24978
:104C000008600BE0BE4800684069BF490860FDF7D6
:104C100016FDBF4908600020BC4908700020BD494E
:104C2000086013E0B848006880B1BB4800780128EC
:104C30000CD0FDF704FDB64908600020B3490870A8
:104C40000120B54908700020B449087098F80000A8
:104C500018B3AE48007800B3AF48007818B101200F
:104C6000AE49087019E0A6480068C068A8B1FDF711
:104C7000E6FCA74908600020A4490870A048006825
:104C8000C0689F4908600846006800699D4908603F
:104C900000209D4908609F49086098F8020000289C
:104CA0006AD09D480078002866D19848007800288E
:104CB00062D09448006878B392480068806868B110
:104CC0000020914908608F48006880688D4908601D
:104CD00090480068401C8F4908604DE08848006893
:104CE000406968B1864800684069874908600020CB
:104CF0008449086087480068401C864908603BE09A
:104D00000020814908607E48006800697D4908608C
:104D10000020804908602FE0FFE77B48006800B36F
:104D200079480068C06868B177480068C06876490B
:104D3000086000207349086076480068401C754987
:104D4000086019E06E480068006958B100206E499B
:104D500008606B48006800696A49086000206D4976
:104D6000086009E0664800684069674908600020FB
:104D7000644908606749086098F8010000281BD062
:104D80006548007800287ED16048007800287AD0F5
:104D90005C480068C8B35B480068406868B10020A0
:104DA00059490860574800684068564908605948A2
:104DB0000068401E5749086065E051480068406936
:104DC00088B14F480068456900E0ED68E868002850
:104DD000FBD14D48056000204A490860B819401EC3
:104DE0004C4908604FE0002047490860444800688B
:104DF000046900E0A468A0680028FBD14148046071
:104E0000B819401E434908603DE0FFE73E4800688E
:104E100038B33D480068806868B13B4800688068E6
:104E2000394908600020374908603A480068401E48
:104E30003849086027E032480068006990B10020D6
:104E4000314908602E480068046900E0A468A06841
:104E50000028FBD12B4804602E480068401E2D49D5
:104E6000086010E026480068456900E0ED68E868E1
:104E70000028FBD124480560002022490860B819A9
:104E8000401E2449086024480078C8B11E480068C4
:104E90004068A8B11C4800682049426840469047D5
:104EA0001E48007810B300201B490870FDF7C7FBAF
:104EB000174908600020154908701849087015E066
:104EC000FCF79EFEFDF7BBFB11490968401A0690EE
:104ED0008DE8800E04900A4800683346D0F818C068
:104EE0000C480268064801680798E0470120074916
:104EF0000870FCF779FE0BB0BDE8F08F1F000020B2
:104F000004000020080000200C0000201C000020ED
:104F100018000020140000201D0000201E000020AA
:104F20000146086908B1012070470A480068086115
:104F300008480068426932B100E0D268D0680028B1
:104F4000FBD1D16002E00348006841618A60002023
:104F5000EAE70000000000200146C86808B101200F
:104F600070470A480068C86008480068026932B1A2
:104F700000E0926890680028FBD1916002E003484D
:104F8000006801614A600020EAE70000000000209C
:104F90002DE9FE4F314932A0FFF752FD314932A0D1
:104FA000FFF72AFD05462F4931A0FFF725FD0446EE
:104FB000324933A0FFF715FD0646344934A0FFF708
:104FC00010FD0746354936A0FFF70BFD80463749EF
:104FD00037A0FFF706FD814639493AA0FFF701FDEA
:104FE00082463D493DA0FFF7FCFC83463F4940A077
:104FF000FFF7F7FC0290424942A0FFF7F2FC019054
:10500000444945A0FFF7EDFC00902846FFF7A4FFB8
:1050100021462846FFF7D2FC3046FFF781FF38468D
:10502000FFF77EFF4046FFF77BFF0098FFF778FF12
:1050300049462046FFF7AFFC51462046FFF7ABFC40
:1050400059462046FFF7A7FC20460299FFF7A3FC2C
:1050500020460199FFF79FFCBDE8FE8FD53C000874
:1050600048756200614A0008496E666F7200000070
:1050700047554920496E666F7200000049190008C3
:1050800044726177204C696E65000000B919000810
:105090004472617720526F756E6400008948000881
:1050A000526F756E6420526563740000DD3D000828
:1050B0004B65726E656C2056657273696F6E000089
:1050C00049260008477261706869637320566572EB
:1050D00073696F6E00000000591A00084472697607
:1050E000657220496E666F720000000099530008D7
:1050F00057726974657220496E666F720000000015
:10510000C946000850494420506172616D6574655C
:10511000720000005D170008436F6E74726F6C734D
:10512000000000002DE9FC410446FEF73BF961490F
:105130000968401A022804D9FEF734F95D4908606D
:1051400001E0BDE8FC8100254EE035B1012D0BD01A
:10515000022D10D0032D1CD114E026460121564803
:10516000FEF712F9074614E0661C02215248FEF7CA
:105170000BF907460DE0A61C04214F48FEF704F981
:10518000074606E0E61C08214B48FEF7FDF80746F7
:1051900000BF00BFA7B9494850F82500401C474947
:1051A00041F82500084650F82500052805DD0120B6
:1051B00030700A2041F8250015E00020307012E020
:1051C0003E4850F82500401E3C4941F8250008465D
:1051D00050F82500052804DA002041F82500307039
:1051E00001E0012030706D1C042DAEDB20788DF8BD
:1051F000000060788DF80100A0788DF80200E0785A
:105200008DF8030020782E490978484008B1012024
:1052100000E000202070607829494978484008B1B2
:10522000012000E000206070A0782549897848407E
:1052300008B1012000E00020A070E0782049C97882
:10524000484008B1012000E00020E07020789DF87F
:105250000010084008B1012000E0002020706078B4
:105260009DF80110084008B1012000E000206070A6
:10527000A0789DF80210084008B1012000E000204D
:10528000A070E0789DF80310084008B1012000E00C
:105290000020E0709DF80000094908709DF80100A9
:1052A00048709DF8020088709DF80300C87000BF28
:1052B00047E700005C00002000100240C000002012
:1052C0006000002010B5FEF773F810BD00B593B074
:1052D000302107A8FBF781F9142102A8FBF77DF91B
:1052E00000BF002001902448006840F0805022490F
:1052F00008600846006800F08050019000BF00BFC1
:1053000000BF002001901D48006840F480401B4908
:1053100008600846006800F48040019000BF00BFAC
:10532000012007900004089002200D9041050E9185
:1053300019210F914FF4A8711091022111910421AC
:10534000129107A8FEF728FA08B1FCF79DFB0F2081
:10535000029002200390002004904FF4A05005908A
:105360004FF480500690052102A8FEF7FBF808B123
:10537000FCF78AFB13B000BD4038024000700040CB
:105380000348006840F4700001490860704700005D
:1053900088ED00E000BFFEE738B504460D4600206A
:1053A000102316A201460090FDF780FCFDF747F997
:1053B00015490968401A41F28831884209D91348D1
:1053C000007880F0010011490870FDF738F90E49A6
:1053D00008600E48007838B100200C230CA2182178
:1053E0000090FDF763FC38BD00200C2312A21821A9
:1053F0000090FDF75BFC00BFF5E7000042593A530F
:10540000554958494E0000004C0000205000002033
:105410004353444E3A2068747470733A2F2F626C71
:105420006F672E6373646E2E6E65742F6D305F37F9
:10543000333637373836360042696C6962696C69D1
:105440003A2068747470733A2F2F73706163652EFD
:1054500062696C6962696C692E636F6D2F333439D0
:10546000343335393435323335343935330000008F
:1054700003B401984100009850EAC12018BF0420ED
:105480004A0D18BF40F0010040F2FF72B2EB515FCD
:1054900008BF40F00200012808BF052002B0704795
:1054A0004100080218BF04200A0E18BF40F0010096
:1054B0004FF07F4232EA010108BF40F002000128AC
:1054C00008BF05207047000002480068C0F30220B2
:1054D000704700000CED00E010B5002804DB0A075F
:1054E000130E054A135406E00A07140E034A00F08F
:1054F0000F031B1FD45410BD00E400E018ED00E0C2
:105500002DED020B019820F0004001909DED000B65
:1055100002B070470000000070B5D94B00242DED9B
:10552000020B2DED108BDDE91010984205DA20F00A
:1055300000429A4201D809D141B19DED100BBDEC5A
:10554000108B02B0BDE8704000F08EBDB0F5801F3A
:1055500026DA11430BD0002813DA0120FBF7BFF83D
:10556000BDEC108B02B0BDE8704000F089BD022098
:10557000FBF7B5F800F060FD51EC100B00F020FED9
:105580009EE06FF035049FEDC00B53EC102B9DEDAA
:10559000100B51EC100B01F01BF9CDE9100108467E
:1055A00004EB2051C0F31304B948A1F2FF312044A9
:1055B00000F4801080F07F6282F04052224301EBC1
:1055C00020559FEDB50B119253EC102B9DED100B58
:1055D00051EC100B01F03CFA41EC180BA01CC0F38D
:1055E00013009FEDAFDB9FEDB0EBB14E7E4403287F
:1055F0006CD296ED000B51EC180B53EC102B01F014
:1056000029F81DD1002D01BF96ED000BBDEC108BCC
:1056100002B070BD284601F088F841EC180B53EC3D
:105620001D2B01F0D5F841EC190B53EC1E2B51EC5E
:10563000180B01F0CDF853EC192B00F0FFFD3FE003
:105640009FED9D0B51EC180B53EC102B01F0C0F8A3
:105650009FED9B1B53EC112B01F0EEF941EC190B64
:1056600053EC182B51EC180B01F0B2F853EC192B3A
:1056700001F0AEF841EC190B002D04BF53EC192BCF
:1056800051EC180B1AD0284601F04FF841EC1A0BD8
:1056900053EC1D2B01F09CF853EC192B01F0CCF9C5
:1056A00053EC182B01F0D4F941EC180B53EC1E2BE2
:1056B00051EC1A0B01F08CF853EC182B01F0C8F9DF
:1056C000BDEC108B02B041EC100B70BD9FED7E0B5A
:1056D00051EC180B53EC102B00F0B0FD41EC100B0B
:1056E00051EC180B53EC102B00F05CFE41EC190B45
:1056F000284601F01AF841EC1B0B53EC192B51EC26
:10570000190B01F065F841EC1A0B714853EC1A2B98
:10571000261851EC1A0B01F05BF841EC1F0B6D4899
:10572000C4F1510404F5D724B0EE4F0AF0EE6F0A2D
:105730000321784400F004FC53EC1F2B51EC100BB8
:1057400001F046F841EC1C0B6348B0EE4F0AF0EE56
:105750006F0A0421784400F0F3FB53EC1A2B51EC50
:10576000100B01F035F8344353EC1C2B00F066FDB0
:1057700041EC1C0B002C4CDD9FED510B51EC180B38
:1057800053EC102B01F024F853EC182B01F020F807
:1057900041EC1A0B55B353EC1D2B51EC1B0B01F0D4
:1057A00017F841EC1D0B53EC1C2B51EC1A0B00F0BD
:1057B00045FD53EC192B01F00BF853EC1D2B00F0B9
:1057C0003DFD53EC1A2B01F037F953EC182B01F087
:1057D0003FF941EC180B53EC1E2B51EC1B0B00F066
:1057E000F7FF53EC182B01F033F969E753EC1C2B4E
:1057F00051EC1A0B00F022FD53EC192B00F0E8FFDE
:1058000053EC1A2B01F018F953EC182B01F014F992
:1058100056E735B353EC1D2B51EC1B0B00F0D8FFB2
:1058200041EC1A0B53EC1C2B51EC180B01F010F946
:1058300053EC192B00F0CCFF53EC1A2B01F008F9B4
:1058400053EC182B01F004F941EC180B53EC1E2B10
:1058500051EC1B0B00F0BCFF53EC182B01F0F8F8D7
:105860002EE753EC1C2B51EC180B01F0F1F853EC24
:10587000192B00F0ADFF53EC182B01F0DDF81FE7FA
:105880000000F07F00000000000000000000504316
:10589000645F090000000000000000000000F03F0D
:1058A000763C7935EF39EA3D0000E0FE422EE63FD6
:1058B00088D0000000000000555555555555D53F7E
:1058C000000000000000E03F000000000000004079
:1058D00086EBF9FFCACD0000C0CD000010B510EE78
:1058E000100A2DED068BB7EE001A10EE901AB0EEEE
:1058F000418A0022A0F5000CDFEDFE9A4FF0007304
:10590000BCF1FE4F4FF07F4403EB410C80F0B481BB
:10591000BCF1804FC0F02082F74901449FEDF73A77
:10592000B1F5005F40F2D48200F58021CB0C03F08A
:105930000F0101EE901AC3F307137F3BA0EBC35096
:10594000B8EEE12A00EE100A1A44DFEDED2AF0EE7F
:10595000411A42EE221AF0EE613A70EE232A30EE3E
:10596000632A12EE900A00F500606FF30B0001EE5F
:10597000900A73EEE13A33EE804AC1EE223A22EE0B
:10598000230A10EE100A00F500606FF30B0000EE22
:10599000100A00EE612A00EE442A62EE232A70EE1D
:1059A000221A21EEA12ADFEDD73A02EE233A23EEA6
:1059B000023A20EE012A22EE811A03EE211A32EE7B
:1059C000010A10EE100A00F500606FF30B0000EE04
:1059D000100A72EE401A31EE812A9FEDCB1A60EE6A
:1059E000011A9FEDCA1A20EE011A9FEDC90A02EEB4
:1059F000001A31EE810A10EE100A00F500606FF314
:105A00000B0000EE100AC34871EEC01A31EE812A75
:105A1000784400EBC10090ED003AD0ED011A10017E
:105A200001EE100AF8EEC12A32EE211A31EE001A08
:105A300031EE031A31EE221A11EE100A00F5006061
:105A40006FF30B0009EE100A39EE621A31EE431AB9
:105A500031EE400A30EE610A32EE40AA10EE900AB2
:105A6000002100F500606FF30B0008EE900A084675
:105A700070EEE8AA4FF0000029EE280A00F00C01B1
:105A8000F0EEC00A10EE900AB0F18B4F0DDD10EE73
:105A9000900AB4EB400F08D310EE100A4FF08B427F
:105AA00062F31E0008EE900A13E069EE2A0A38EE4F
:105AB000AA1A4AEE010A30EE201A11EE100A00F579
:105AC00000606FF30B0008EE900A30EE680A70EE8B
:105AD000209A0C204FF0000038EEA90AB5EEC00A5B
