:020000040800F2
:1000000000190020AD010008132300082321000877
:1000100075220008B10700084938000800000000F8
:10002000000000000000000000000000893100080E
:100030004D080008000000001D2F0008A13700082F
:10004000C7010008C7010008C7010008C701000870
:10005000C7010008C7010008C7010008C701000860
:10006000C7010008C7010008C7010008C701000850
:10007000C7010008C7010008C7010008C701000840
:10008000C7010008C7010008C70100080000000000
:10009000000000000000000000000000C701000890
:1000A000C7010008C7010008C7010008C701000810
:1000B000C7010008C7010008C7010008C701000800
:1000C000C7010008C7010008C7010008C7010008F0
:1000D000C7010008C7010008C701000800000000B0
:1000E000C7010008C7010008C701000800000000A0
:1000F000000000000000000000000000C701000830
:1001000000000000C7010008C7010008C70100087F
:1001100000000000000000000000000000000000DF
:10012000C7010008C7010008C7010008C70100088F
:10013000C7010008000000000000000000000000EF
:10014000000000000000000000000000C7010008DF
:10015000C7010008C7010008C7010008C70100085F
:10016000C7010008C70100080000000000000000EF
:10017000000000000000000000000000000000007F
:1001800000000000C701000800000000000000009F
:10019000C7010008DFF810D000F0F8FA0048004767
:1001A000ED480008AFF300800019002006488047A2
:1001B00006480047FEE7FEE7FEE7FEE7FEE7FEE74C
:1001C000FEE7FEE7FEE7FEE7393800089501000884
:1001D0002DE9F05F0546002092469B46884606467C
:1001E000814640241BE0284641464746224600F00F
:1001F00034FA53465A46C01A914110D31146184654
:10020000224600F01BFA2D1A67EB01084F462246E2
:100210000120002100F012FA17EB00094E41201EC8
:10022000A4F10104DFDC484631462A464346BDE8D6
:10023000F09FD2B201E000F8012B491EFBD27047BB
:100240000022F6E710B513460A4604461946FFF7A2
:10025000F0FF204610BD30B504460020034600E004
:100260005B1C934203D2E05CCD5C401BF8D030BDF8
:100270002DE9FE4F804681EA0300C00F0C46009036
:1002800021F0004123F00045B8EB0200A94105D25E
:100290004046214690461C460B46024623F000404D
:1002A000104347D0270DC7F30A00C3F30A51029049
:1002B000401A019040286BDAC3F3130040F4801B0E
:1002C0000098924620B10023D2EB030A63EB0B0B9C
:1002D00001985946C0F14002504600F0AFF9064679
:1002E0000D4650465946019A00F0C7F910EB080038
:1002F0006141002487EA115284EAE7731A4340D02F
:10030000009A62B3019A012A4FEA075215DC001BDA
:1003100061EB02014FF0004202EA0752CDE90042D0
:10032000001C41F5801132462B4600F0C7F903B09E
:10033000BDE8F08F40462146F9E7001B61EB020162
:10034000001C41F5801300185B412018A2F500172E
:1003500047EB030140EAD570B6196D4111E06D0815
:100360004FEA360645EAC0754FEA0752001B61EBBB
:100370000201001C41F5801149084FEA30000019C4
:10038000514132462B4603B0BDE8F04F00F087B92B
:100390000098012240000023D0EB020263EBE073DF
:1003A000009821464FEAE074B8EB000061EB0401CD
:1003B000E9E783F000435BE781F0004158E72DE96E
:1003C000FE4F81EA030404F0004421F00041009450
:1003D0004FF0000B23F0004350EA01045ED052EAD4
:1003E00003045BD0C3F30A54C1F30A552C44A4F2AE
:1003F000F3340194A0FB0254C1F3130141F48011C2
:10040000C3F3130343F4801301FB024400FB034EC8
:10041000840A970A44EA815447EA8357A4FB076891
:1004200002958D0A05FB07854FEA932C04FB0C54BB
:100430002705029D4FEA065847EA1637B5EB08052F
:100440006EEB070C870E920E47EA811742EA831281
:10045000A7FB0201B6EB0B0164EB00042B0D43EA92
:100460000C335E1844EB1C50DA465146E7FB0201A0
:10047000C5F313044FEA0B3343EA14534FEA043233
:10048000019C43EA0603A4F10C040294009CCDE90C
:1004900000B400F013F903B0BDE8F08F002001466E
:1004A000F9E72DE9F04D81EA030404F0004B21F057
:1004B000004514464FF0000A23F0004150EA0502BF
:1004C00020D054EA01021DD0C5F30A570246C5F3F5
:1004D0001303C1F31300C1F30A5640F4801543F42B
:1004E0008013A7EB0608101BD64608F2FD3873EB05
:1004F000050002D308F1010801E092185B41B8F150
:10050000000F03DA00200146BDE8F08D00204FF413
:100510008011064684460EE0171B73EB050705D3D2
:10052000121B63EB050306434CEA010C49084FEA32
:10053000300092185B4150EA0107EDD152EA030006
:1005400012D082EA040083EA0501084305D0101B9B
:10055000AB4106D20122002306E000224FF0004307
:1005600002E06FF0010253101AEB06004CEB085149
:1005700010EB0A0041EB0B01BDE8F04D00F08FB825
:100580000EB5C10F80EAE0700844CA07002140F2AE
:1005900033438DE80E000A460B4600F08FF803B097
:1005A00000BD70B5C1F30A5201F000450024C1F34B
:1005B000130140F2FF3341F480119A4201DA002026
:1005C00070BD40F233439A42A2F2334203DC5242FE
:1005D00000F043F800E090402C43F1D0404270BD61
:1005E00030B5041E71F1000404DB4FF000444042BA
:1005F00064EB0101141E73F1000405DB1C464FF08F
:100600000043524263EB0403994208BF904230BD5D
:1006100030B50B46014600202022012409E021FAD2
:1006200002F59D4205D303FA02F5491B04FA02F5CF
:100630002844151EA2F10102F1DC30BD202A04DBA2
:10064000203A00FA02F1002070479140C2F12003E5
:1006500020FA03F3194390407047202A04DB203A24
:1006600021FA02F00021704721FA02F3D040C2F1D2
:1006700020029140084319467047202A06DBCB1719
:10068000203A41FA02F043EAE07306E041FA02F34D
:10069000D040C2F12002914008431946704710B57E
:1006A000141E73F1000408DA401C41F10001921895
:1006B0005B411A4301D120F0010010BD2DE9F04D3E
:1006C00092469B4611B1B1FA81F202E0B0FA80F293
:1006D00020329046FFF7B2FF04460F4640EA0A0078
:1006E00041EA0B0153465A46084313D0114653EAD8
:1006F000010019D0C8F140025046FFF7AEFF054691
:100700000E46504659464246FFF798FF084305D02B
:10071000012004E020463946BDE8F08D0020054365
:1007200046EAE0762C4337430A986305E40AA0EBD7
:1007300008000022FD0A44EA47540A3002D500208E
:100740000146E9E7010510196941DDE9084500198D
:100750006941BDE8F04DA2E7C1F30A52C1F31301AC
:1007600040F2FF3341F480119A4202DA0020014640
:10077000704740F233439A42A2F2334202DC5242C3
:10078000FFF76BBFFFF75ABF00207047064C074DBD
:1007900006E0E06840F0010394E807009847103451
:1007A000AC42F6D3FFF7FAFC7855000898550008DC
:1007B000FEE700001CB500F003FD1A4CE169401A89
:1007C0000A280ED99FED180B53EC102B94ED0A0B51
:1007D00051EC100BFFF74CFDC4E90A0100F0F0FCEE
:1007E000E0619FED130B53EC102B94ED0A0B51ECD1
:1007F000100BFFF7F5FE03D29FED0F0B84ED0A0BF4
:100800000023012210210EA001F036FD01200090EE
:10081000019094ED0A0B0623642218210E2002F0A9
:100820007EFB1CBD000000207B14AE47E17A843FB4
:10083000000000000000F03F000000000000000089
:100840004D65737361676520426F780070470000E3
:100850007CB500F0B5FC134C6168401A0F2805D92F
:10086000A068401CA06000F0ABFC6060A0687F281E
:1008700001DD0020A060BF200125CDE9005000214E
:100880003F230846A26800F09FF8AF20CDE9005052
:10089000A0683F23C0F17F0200217F2000F094F880
:1008A0007CBD0000000000207FB500F089FC174CE3
:1008B000E168401A1E280AD920780028206901D052
:1008C000401C00E0401E206100F07AFCE0602269DC
:1008D00001251F2A02DD0020207002E0002A00DA34
:1008E00025700BA102A803F011F8F020CDE900500B
:1008F00001231F214020226900F0A2FA00211023C9
:1009000002AA0846009500F057FE7FBD00000020B7
:10091000723D25640000000008B5012000901023FE
:1009200002A21821002000F047FE08BDE9A9B1E5A8
:100930008AA8E78988E69CAC3A76312E332E4D00A2
:1009400072B6FEE702460020014606E07F2B02D980
:10095000801CC91C01E0401C491C535C002BF5D1D4
:100960007047000070B5002055230B49AA224FF4B0
:1009700080640B540D18801C6A70A042F9DB074C90
:100980000120207000F048FE01F0AEFD00F00EF8EE
:100990000220207070BD000050010020680000207F
:1009A00038B5049C009401F021FE38BD0148007860
:1009B00001F0B0BC6800002010B501F08FFDBDE86B
:1009C0001040AD2001F0A6BC2DE9F04F80462DED82
:1009D000088B81B001261D461746DDE912A00C46A2
:1009E000AF2800D103264046B84506D00CE0524659
:1009F0002146404600F09CF83444AC42F7DD01B09B
:100A0000BDEC088BBDE8F08FAC420AD1054605E08D
:100A100052462146284600F08BF83544BD42F7DDAA
:100A2000EDE7A2EB0800FFF7ABFD814641EC180BA8
:100A3000281B0091FFF7A4FD8B464BEC100B0546DD
:100A400053EC182B51EC100BFFF72BFD9FED368B61
:100A500041EC1A0BB0EE489AF0EE689A27E0204677
:100A6000FFF78EFD41EC1B0B53EC192B51EC1A0BCD
:100A7000FFF7A5FC53EC1B2BFFF7FAFBFFF791FDEB
:100A800007464046FFF77CFD53EC192BFFF7F0FBC0
:100A9000FFF787FD5246394600F04AF83046FFF727
:100AA0006FFD53EC192BFFF7E3FB41EC190B009999
:100AB00053EC192B41EC109B51EC100BFFF790FD00
:100AC00028D8CCE72046FFF75BFD53EC182BFFF747
:100AD000CFFBFFF766FD07464046FFF751FD41ECAF
:100AE000190B53EC1A2B51EC180BFFF7DAFC53ECF3
:100AF000192BFFF7BDFBFFF754FD5246394600F0B6
:100B000017F83046FFF73CFD53EC182BFFF7B0FB0E
:100B100041EC180B4BEC105B53EC182B51EC100B09
:100B2000FFF75EFDCED96AE700000000000000007C
:100B3000014B1B7801F010BC680000202DE9FF4F2D
:100B400093462DED028B83B08946149AB0F1000ACA
:100B500000DC002080460AEB0B06701C802801DABE
:100B6000761C00E08026B9F1000001DD044600E0BB
:100B7000002409EB0B00411C402901DA401C00E075
:100B800040200090F02A254669D005E1A8EB04003A
:100B9000471961E0AAEB070000EE100AF0EE000A28
:100BA000B8EEC00A02F0EAFEB0EE408AA9EB0500FA
:100BB00000EE100AF0EE000AB8EEC00A02F0DEFE07
:100BC00038EE000AF0EE000AB0EEC08A00EE10BA6D
:100BD000B8EEC00A02F0D2FEB4EEC08AF1EE10FA0E
:100BE00039D81298012806D002280ED0032817D031
:100BF000042830D121E0C5EB44013846139AFFF7B1
:100C000097FF04EB0800C11B1FE0C5EB4401C7EBD5
:100C10004800139AFFF78CFF04EB0800C11B08E0A3
:100C2000C7EB48002946139AFFF782FFE119A1EBB1
:100C3000080108EB0400401B0AE029463846139AD5
:100C4000FFF776FFE119A1EB080108EB0500001B97
:100C5000139AFFF76DFF7F1CB7429BDB6D1C00985A
:100C6000854293DB03B0BDEC028BBDE8FF8F00BF74
:100C7000A8EB040047198BE0AAEB070000EE100A6E
:100C8000F0EE000A0290B8EEC00A02F077FEA9EB7F
:100C9000050000EE900AB0EE408A0190B8EEE00A3E
:100CA000F0EE000A02F06AFE38EE000AF0EE000AEA
:100CB000B0EEC08A00EE10BAB8EEC00A02F05EFED6
:100CC000B4EEC08AF1EE10FA61D80298F0EE000A94
:100CD00000EE100AB8EEC00A02F050FE0198B0EE25
:100CE000408A00EE100AF0EE000AB8EEC00A02F0E8
:100CF00045FE38EE000A0899F0EE000AABEB010061
:100D0000B0EEC08A00EE100AB8EEC00A02F036FE5D
:100D1000B4EEC08AF1EE10FA39DB1298012806D041
:100D200002280ED0032817D0042830D121E0C5EBCB
:100D300044013846139AFFF7FBFE04EB0800C11B81
:100D40001FE0C5EB4401C7EB4800139AFFF7F0FE24
:100D500004EB0800C11B08E0C7EB48002946139AC2
:100D6000FFF7E6FEE119A1EB080108EB0400401BC8
:100D70000AE029463846139AFFF7DAFEE119A1EB9B
:100D8000080108EB0500001B139AFFF7D1FE7F1C3A
:100D9000B742FFF671AF6D1C00988542FFF668AF51
:100DA00060E72DE9FC479042DDE90A7C01DA044660
:100DB00000E01446A146994201DA0E4600E01E46C4
:100DC000904200DC10460446994200DC19460D466C
:100DD000BCF10F0F01D0B0462FE04FF0BF08CDE9B6
:100DE00000783346224619464846FFF7EDFDCDE927
:100DF00000782B46224619464846FFF7E5FDCDE927
:100E000000784A462B4631461046FFF7DDFDCDE916
:100E1000007822462B4631461046FFF7D5FDBDE847
:100E2000FC874E4605E03A4641463046FFF780FED5
:100E3000761CA642F7DD08F10108A845F1DDEEE7D2
:100E40002DE9FF4F89462DED028B85B0934615990C
:100E5000B0F1000A01DD054600E000250AEB0B00B9
:100E6000421C802A01DA401C00E080208046B9F153
:100E7000000001DD044600E0002409EB0B00421CE9
:100E8000402A01DA401C00E040200290F02926466A
:100E900063D0F7E0281B87195CE000BFAAEB0700CE
:100EA00000EE100AF0EE000AB8EEC00A02F066FD8D
:100EB000B0EE408AA9EB060000EE100AF0EE000A40
:100EC000B8EEC00A02F05AFD38EE000AF0EE000A51
:100ED000B0EEC08A00EE10BAB8EEC00A02F04EFDC5
:100EE000B4EEC08AF1EE10FA33D831463846149A7F
:100EF000FFF71EFEE019411BA819001B0191049089
:100F0000149AFFF715FEC6EB440103913846149A74
:100F1000FFF70EFE6019C11B0091149A0498FFF7A9
:100F200007FEC7EB450003990390149AFFF700FEF4
:100F30002819801B00990090149AFFF7F9FD31469B
:100F4000149A0398FFF7F4FDDDE90001149AFFF706
:100F5000EFFD7F1C4745A1DB761C0298864299DB9A
:100F600005B0BDEC028BBDE8FF8F281B871985E01B
:100F7000AAEB070000EE100AF0EE000A0190B8EEAE
:100F8000C00A02F0FBFCA9EB060000EE900AB0EEEE
:100F9000408A0090B8EEE00AF0EE000A02F0EEFCA3
:100FA00038EE000AF0EE000AB0EEC08A00EE10BA89
:100FB000B8EEC00A02F0E2FCB4EEC08AF1EE10FA1C
:100FC0005BD80198F0EE000A00EE100AB8EEC00AF5
:100FD00002F0D4FC0098B0EE408A00EE100AF0EE69
:100FE000000AB8EEC00A02F0C9FC38EE000A0A99FD
:100FF000F0EE000AABEB0100B0EEC08A00EE100A82
:10100000B8EEC00A02F0BAFCB4EEC08AF1EE10FAF3
:1010100033DB31463846149AFFF78AFDE019411B4D
:10102000A819001B01910490149AFFF781FDC6EBEB
:10103000440103913846149AFFF77AFD6019C11BE9
:101040000091149A0498FFF773FDC7EB45000399CC
:101050000390149AFFF76CFD2819801B00990090EB
:10106000149AFFF765FD3146149A0398FFF760FD67
:10107000DDE90001149AFFF75BFD7F1C4745FFF691
:1010800077AF761C02988642FFF66FAF68E72DE9CE
:10109000F04F87B09042DDE91076DDF848A001DA24
:1010A000044600E014460494994201DA0C4600E03C
:1010B0001C460594904200DC10460390994200DCE7
:1010C00019468B460499401AB0EB470F02DA01EB40
:1010D00047000390ABEB04002146B0EB470F01DA69
:1010E00001EB470B02210091CDE9016A04983C44D1
:1010F000A0463844814601233A464146FFF71EFD8B
:1011000001218DE8420403982146C51B01233A467C
:101110002846FFF713FD03218DE84204ABEB0704DB
:10112000484601233A462146FFF708FD04218DE891
:10113000420401233A4621462846FFF7FFFCBAF154
:101140000F0F1BD0F027CDE90067DDE90320234610
:101150004146FFF726FECDE9006743462A4648464A
:101160000599FFF71EFE2A46214648465B46CDE913
:101170000067FFF716FE07B0BDE8F08FBF27CDE987
:101180000067059B2A4648461946FFF71DFC5B464B
:101190002A4648461946CDE90067FFF715FC049A30
:1011A00023464146CDE900671046FFF70DFC039A40
:1011B00023464146CDE900671046FFF705FCDAE714
:1011C00000F040BB08B501200090102302A21821B6
:1011D000002000F0F1F908BDE59BBEE5BDA2E5BA2F
:1011E00093E78988E69CAC3A76312E310000000006
:1011F00010B501F091F9BDE81040AD2001F08AB8BA
:101200002DE9FF4F85B093468946DDE915A1DDE95B
:101210001342129D98461CB102EB0A00884203DC7F
:10122000012009B0BDE8F08F684301FB05F3CDE96B
:101230000003A0EB080720460026D0E904C3BCF158
:10124000000F00D06046914207DA002201E080687A
:10125000521C8A42FBDB006809E00AEB020088426C
:1012600002DC0BE0DB68521C8A42FBDB1868FFF7EC
:1012700069FB684300EBD0704FEA600A294A514687
:10128000019800F05DF80098DFF898A0404511DD66
:10129000DAF8001005EBD57201EB620208EBD870AA
:1012A000B2EB600601D5002602E0BE4200DD3E46FC
:1012B0008F1B01E0DAF800701798102801D0B8B140
:1012C0002EE01898CDE90054CDE902600598ABF105
:1012D000100228444346494600F0F2F801200090ED
:1012E00009EB07012B4610A2059800F065F917E0FD
:1012F0001898CDE90054CDE902605A464346494664
:10130000059800F0DDF80120009009EB0500C319F5
:10131000DAF8041005980A1809EB0701FFF740FBFB
:1013200000207EE7900000202D3E000010B5029CBA
:10133000E41A4443501AB4FBF0F0184410BD000006
:101340002DE9F04116462DED0C8B0746884600F03E
:1013500079FA534C534D6168401AA96988427CD987
:101360003068381AFFF70CF941EC190B94ED020BB9
:1013700053EC192B51EC100BFEF77AFF41EC1C0BD0
:1013800051EC190B84ED02CB94ED040B53EC102BB4
:10139000FFF70FF841EC1D0B7168A8EB0100FFF798
:1013A000EFF841EC180B94ED060B53EC182B51ECB5
:1013B000100BFEF75DFF41EC1A0B51EC180B84ED9E
:1013C00006AB94ED080B53EC102BFEF7F2FF95EDF6
:1013D000040B41EC1B0B53EC1D2B51EC100BFEF7D7
:1013E000EEFF95ED020B41EC1D0B53EC1C2B51EC69
:1013F000100BFEF7E4FF95ED000B41EC1C0B53ECDA
:10140000192B51EC100BFEF7DAFF53EC1C2BFEF7F7
:101410002FFF53EC1D2BFEF72BFF95ED081B53EC14
:10142000112BFEF7CCFFFFF7BCF8306095ED040BF5
:1014300053EC1B2B51EC100BFEF7C1FF95ED020B8B
:1014400041EC1B0B53EC1A2B51EC100BFEF7B7FFC2
:1014500041EC1A0B95ED000B00E01DE053EC182B4E
:1014600051EC100BFEF7ABFF53EC1A2BFEF700FF0D
:1014700053EC1B2BFEF7FCFE95ED081B53EC112BD8
:10148000FEF79DFFFFF78DF8706084ED049B84EDFF
:10149000088B00F0D7F96060BDEC0C8BBDE8F081E3
:1014A00068000020500500207CB5044D069C2D7876
:1014B000CDE9004501F0B6FA7CBD000068000020CF
:1014C0002DE9FF4F83B03B4ADDE91090DDE912BA08
:1014D0000E46002147691170046998460D46D4B143
:1014E00005FB0961CDF800A0A1EB0B014B4622687A
:1014F000039800F061F8A4686D1CF0E705FB096132
:10150000CDF800A0A1EB0B014B463A68039800F020
:1015100053F8FF686D1C002FF0D105FB09F598FB0F
:10152000F5F20599039806EB08094418012A28DA10
:1015300008FB08F090FBF5F0871900232A461946AE
:101540005846CDF80080FFF7F1FE074400232A46F5
:1015500019465846CDF80080FFF7E8FE8119BF20F4
:101560000125CDE90050224610463B46FFF72CFAF4
:10157000AF20CDE9005022464B4610463146FFF7DA
:1015800023FA0C4D0120F0212870CDE900A14B4633
:10159000224631460398FFF704FC00F0A5FFFFF751
:1015A00005FA00202870FFF701FA0220287007B022
:1015B000BDE8F08F680000202DE9F84F1E46174661
:1015C0008A4681460446002503EBD678DDF828B02C
:1015D0001DE07A19334651462046CDF800B0FFF79A
:1015E00063FF785D7F2802D93444ED1C02E004EBF0
:1015F00068046D1C785D7F2802D204EB680002E06D
:1016000005D904EB0600802801DD4C46B244785D24
:101610000028DED1BDE8F88F02480178024801F0C9
:10162000BBBB0000680000205001002070B50446DC
:1016300000F008F90546601C02D004480078044414
:1016400000F000F9401BA042FAD370BD3800002022
:101650002DE9F84FDFF8B8A10022012403254FF04F
:101660000F090AF1040BAAF1040E00BF0B6804FA7B
:1016700002F63340B34273D10F7907F00307012F0D
:1016800001D0022F16D187684FEA420805FA08FCFC
:1016900027EA0C07D1F80CC00CFA08FC4CEA070C3E
:1016A000C0F808C04768B7430E79C6F300169640E5
:1016B0003E4346600E79F643B6070DD0C768560024
:1016C00005FA06FC27EA0C07D1F808C00CFA06FC5C
:1016D0004CEA070CC0F80CC00E7906F00306022E87
:1016E00010D1D60800EB8608D8F8206057074FEADB
:1016F000D76C09FA0CF7BE430F6907FA0CF73743AA
:10170000C8F8207006684FEA420C05FA0CF7BE4391
:101710000F7907F0030707FA0CF7374307604E68A5
:1017200016F4403F6DD03B4E376847F48047376032
:10173000366822F0030706F480460096364E07EB23
:10174000060CDCF8086897073F0F09FA07F826EA45
:101750000806DFF8C880404503D14FF000081EE0BE
:101760004FE0DFF8BC80404502D14FF0010816E0A1
:10177000DFF8B080404502D14FF002080FE0DFF8FB
:10178000A880404502D14FF0030808E0DFF89C80B4
:10179000404502D14FF0040801E04FF0070808FA75
:1017A00007F848EA0608CCF80888DAF800605746D7
:1017B000D1F804C09E435FEACC2C00D51E433E60A6
:1017C000DBF800605F46D1F804C09E435FEA8C2CD2
:1017D00000D51E433E60DEF800607746D1F804C0B5
:1017E0009E435FEA8C3C00D51E433E60084F083F95
:1017F0003E68D1F804C09E435FEACC3C00D51E434E
:101800003E60521C102AFFF431AFBDE8F88F000093
:10181000083C0140443802400030014000000240D2
:101820000004024000080240000C02400010024088
:101830000069084000D0012070470AB181617047FB
:101840000904FBE701488068704700003800002069
:101850000248816802781144816070473800002096
:101860000B4810B5016841F400710160016841F452
:1018700080610160016841F480710160032000F023
:1018800061F80F2000F006F800F024F8002010BDE9
:10189000003C024070B50D4D04464FF47A71287833
:1018A000B1FBF0F00A490968B1FBF0F000F025FC4B
:1018B00048B9102C07D200222146501E00F022F811
:1018C00000206C6070BD012070BD00003800002059
:1018D000440000200A4808B5016841F480410160D5
:1018E000006800F4804000900548001F016841F046
:1018F00080510160006800F08050009008BD000039
:1019000044380240F0B40E4B1B680C46C3F302236C
:10191000C3F10705042D00D90425191D072901D29B
:10192000002300E0DB1E012606FA05F1491E2140D6
:1019300099409E40761E16403143F0BC02F00DB82F
:101940000CED00E0064900F0070208684FF6FF03BF
:10195000184040EA0220034A104308607047000024
:101960000CED00E00000FA052DE9F0470E460500F9
:1019700065D0DFF81481D8F80000F7B200F0070056
:10198000B04207D288F80070D8F8000000F00700D5
:10199000B04254D128683D4C810712D5400703D589
:1019A000206840F4E05020602878000703D52068C4
:1019B00040F4604020602068A96820F0F0000843EF
:1019C00020602878C0072DD0304968680839012880
:1019D00012D0022813D0032811D0096889070029E2
:1019E0002DDA216821F0030101432160FFF72AFF6E
:1019F000814641F2883A0EE009688903EFE70968F9
:101A00008901ECE7FFF71EFFA0EB0901514502D960
:101A10000320BDE8F0872068696800F00C00B0EB97
:101A2000810FEFD1D8F80010404601F00701B14214
:101A300007D90770006800F00700B04201D001200C
:101A4000E7E72878400705D52068E96820F4E050EA
:101A5000084320602878000706D52068296920F40B
:101A6000604040EAC100206000F018F82168084A90
:101A7000C1F30311515CC84006490860064800687C
:101A8000FFF708FF0020C4E7003C0240083802408E
:101A9000DC490008440000203C000020154810B537
:101AA000006810F00C02144813D04110042A0FD023
:101AB000082A0ED10F4C241F2268236802F03F022F
:101AC0005B0207D52068C0F38810A0FB010106E087
:101AD000084610BD2168C1F38811A1FB0001002355
:101AE000FEF776FB2168C1F30141491C4900B0FBB8
:101AF000F1F010BD083802400024F4002DE9F84F41
:101B000004006ED02078DFF84C93C007A9F10405DB
:101B10004AD009F104000168C1F38101012908D00C
:101B20000068C0F3810002280AD1D9F80000400201
:101B300006D52868800337D560680028E1D033E0F7
:101B40006068B0F5803F10D0B0F5A02F286810D0A5
:101B500020F480302860286820F4802028606068A5
:101B6000A8B1FFF76FFE06460DE0286840F480300C
:101B7000F4E740F480202860F7E700BFFFF762FE3B
:101B8000801B642873D828688003F7D50CE0FFF722
:101B900059FE064605E000BFFFF754FE801B64288F
:101BA000F0D828688003F7D42078DFF8AC8280076B
:101BB0004FF0000A3ED5A748001D016811F00C0F38
:101BC00008D00068C0F3810002280BD1D9F80000CA
:101BD000400207D42868800716D5E068012800D1A4
:101BE00012E033E1E068B8B10120C8F80000FFF767
:101BF00029FE064605E000BFFFF724FE801B0228F1
:101C0000C0D828688007F7D52868216920F0F80037
:101C100040EAC10028600DE0C8F800A0FFF712FEFE
:101C2000064604E0FFF70EFE801B02281FD8286836
:101C30008007F7D42078000722D5864F874861694E
:101C4000703771B101210160FFF7FCFD064604E029
:101C5000FFF7F8FD801B022809D838688007F7D500
:101C60000EE0C0F800A0FFF7EDFD064605E082E0BB
:101C7000FFF7E8FD801B02287DD838688007F7D47D
:101C80002078400768D5DFF8CCB100270BF13C0B7A
:101C9000DBF80000C0000BD4DBF8001041F08051ED
:101CA000CBF80010DBF80000012700F08050009016
:101CB0006B4E3068C00510D4306840F480703060DE
:101CC000FFF7C0FD009005E0FFF7BCFD0099401A4A
:101CD000022850D83068C005F6D55E4EA0686C3634
:101CE00001280FD00528306810D020F001003060A6
:101CF000306820F004003060A068B8B1FFF7A2FDA2
:101D000000900FE0306840F00100F4E740F004007C
:101D10003060F7E7FFF796FD0099411A41F28830ED
:101D2000814266D830688007F4D50EE0FFF78AFD5F
:101D3000009007E0FFF786FD0099411A41F28830D4
:101D4000814256D830688007F4D42FB1DBF80010F8
:101D500021F08051CBF80010A069C8B33D49091D9E
:101D60000968C1F3810102294AD00228504607D0F0
:101D7000C8F8600000E03CE0FFF764FD04463BE08B
:101D80004746C8F86000FFF75DFD064605E000BF66
:101D9000FFF758FD801B02282BD828688001F7D454
:101DA000D4E907010843A16A2E4A490802EB014120
:101DB000626A41EA8211084394F82C1040EA0161FA
:101DC000C9F8001001203866FFF73CFD044606E024
:101DD0003EE000BFFFF736FD001B022809D8286847
:101DE0008001F7D534E000BFFFF72CFD001B02286F
:101DF00002D90320BDE8F88F28688001F4D427E0D9
:101E00000128F7D0D9F80000E26900F4800191427E
:101E10001CD1226A00F03F01914217D147F6C071F0
:101E2000626A0140B1EB821F10D1A26A4FF0FF330A
:101E300000F4403103EB5202B1EB024F06D194F8AB
:101E40002C1000F07060B0EB016F01D00120D1E7E1
:101E50000020CFE70438024000004742800E47428E
:101E6000007000400000FFFF70B5040009D0606AF8
:101E7000002540B125616561A56294F8510040B12B
:101E80000CE0012070BD6068B0F5827FF4D0E561A0
:101E9000F2E784F85050204600F044F8022084F81D
:101EA00051002068016821F040010160A08821896B
:101EB00000F4827001F404410843A18901F4006137
:101EC0000843217C01F002010843217D01F001015A
:101ED0000843218B01F400710843217F01F0380190
:101EE000084394F8201001F080010843218D01F48B
:101EF0000051084321680860A069042101EA1040EC
:101F000094F8241001F0100108432168486020680B
:101F1000C16921F40061C1616565012084F8510047
:101F2000002070BD10B586B0044614216846FEF747
:101F300087F913492068884220D11248002102689D
:101F400042F480520260006800F4805005900D4811
:101F50001438026842F001020260006800F00100DB
:101F60000590E02000900220CDE9010103200390BC
:101F70000520049069460448FFF76AFB06B010BDCF
:101F80000030014044380240000002402DE9F84F83
:101F9000044690F850000026984615468A460128C7
:101FA0000CD0012784F85070FFF74CFC814694F860
:101FB0005100B346012804D002269AE00220BDE871
:101FC000F88FBAF1000F6FD0002D6DD0032084F888
:101FD0005100C4F854B0C4F830A0A586E586C4F812
:101FE00038B0A4F83CB0A4F83EB0C4F844B0C4F88B
:101FF00040B0A068B0F5004F09D12068016821F019
:10200000400101602068016841F48041016020685E
:102010000168490603D4016841F040010160E068AD
:10202000B0F5006F606803D058B3012D29D049E0A6
:1020300008B1012D1FD1206B21680088C86006E01F
:1020400020688168890709D5216B0988C160206BE8
:10205000801C2063E08E401EE0860CE0FFF7F2FB60
:10206000A0EB0901414503D3B8F1FF3F03D006E0DF
:10207000B8F1000F03D0E08E0028E1D125E003265F
:1020800035E0206B21680078087306E020688168DD
:1020900089070AD5216B09780173206B401C2063E6
:1020A000E08E401EE0860DE01FE0FFF7CBFBA0EBCB
:1020B0000901414503D3B8F1FF3F03D0DFE7B8F191
:1020C000000FDCD0E08E0028E0D14A464146204691
:1020D00000F0C8FF08B120206065A06818B920682A
:1020E000C16880680090606D08B1012601E084F845
:1020F000517084F850B0304661E710B5401EB0F121
:10210000807F01D3012010BD4FF0E02460610F21DA
:10211000601701F022FC0020A06107202061002050
:1021200010BDFEE7F0B587B004460D460C9F0E9E2D
:102130000094CDE90153CDE903724FF0100C00EB90
:10214000D470CDE905C64010611CC4F13F03C0F155
:102150007F02FFF755F800960021234608462A68BB
:10216000FFF72AFA07B0F0BD08B501200090102350
:1021700002A218210020FFF71FFA08BD5358475547
:10218000492076312E3200002DE9F04186B014212D
:102190006846FEF755F823480024016841F08001A5
:1021A0000160016801F080010591016841F00101C1
:1021B0000160016801F001010591016841F004012D
:1021C00001600068184F00F0040005900022102103
:1021D0003846FFF732FBDFF85480002230214046BA
:1021E000FFF72BFB102001250326CDE90005CDE9E3
:1021F000024669463846FFF72BFA3020CDE9000544
:10220000CDE9024669464046FFF722FA4FF4707066
:102210008DE8310069464046FFF71AFA06B0BDE87E
:10222000F081000030380240000002400008024007
:102230000F4810B50D4901604FF4827141600021D3
:102240008160C1604FF400720161C0E90512C16193
:102250000162416281620A21C162FFF705FE002826
:1022600003D0BDE81040FEF76BBB10BD003001404D
:10227000F8000020FEE700002DE9FE4F9B461646C1
:102280000C468146FEF75EFBC02191FBF4F2054649
:10229000AA4201DA91FBF4F505FB04F000EBD071E2
:1022A0008022A2EB610002EB61010423F022009383
:1022B000CDE9016200EBD07601EBD1710222981FCB
:1022C00002EB610200EB6600A31C0021FEF7DFFEBB
:1022D0004FEA66080026374604EBD47A15E000BFC3
:1022E00009EB0602234601214046CDF800B0FFF776
:1022F000DBF819F806007F2803D9F61CA044BF1CA0
:1023000003E0761C08EB6A087F1CAF42E8DBBDE8FF
:10231000FE8FFEE710B54FF48061AD280AD000EBC8
:10232000C01202EB8020094A10448030BDE8104002
:10233000FDF786BF05480C468030FDF781FF21463A
:102340000348FDF77DFF21460248EFE778050020AE
:10235000790A0020FA0E002070B57F281CDC3F2986
:102360001ADC002818DB002916DB0831CC1701EB3A
:102370005474E51024F00704091B01248C4008491B
:1023800003EBC31606EB8323194400EBC510012AA7
:102390000A5C02D022400A5470BD2243FBE70000D1
:1023A000780500202DE9F04F93462DED028B81B08A
:1023B0000F46B0F1000800DC0020814608EB0B005E
:1023C000411C7F2901DA401C00E07F208246002F5B
:1023D00001DD3D4600E0002507EB0B00411C3F29D5
:1023E00001DA401C00E03F202C4600906DE000BF69
:1023F000A9EB0500061965E0A8EB060000EE100A3F
:10240000F0EE000AB8EEC00A01F0B8FAB0EE408A69
:10241000381B00EE100AF0EE000AB8EEC00A01F018
:10242000ADFA38EE000AF0EE000AB0EEC08A00EE17
:1024300010BAB8EEC00A01F0A1FAB4EEC08AF1EE0B
:1024400010FA3ED80C98012806D002280FD0032895
:1024500019D0042835D124E0DDE90D23C4EB450172
:102460003046FFF779FF05EB0900811B22E0DDE92B
:102470000D23C4EB4501C6EB4900FFF76DFF05EBEB
:102480000900811B09E0DDE90D23C6EB4900214667
:10249000FFF762FFA919A1EB090109EB0500001B79
:1024A0000BE0DDE90D2321463046FFF755FFA91962
:1024B000A1EB090109EB0400401BDDE90D23FFF747
:1024C0004BFF761C564597DB641C009884428FDBDB
:1024D00001B0BDEC028BBDE8F08F0000014800F0B8
:1024E0008DBC0000FA0E002070B50A4B00204FF49E
:1024F00080661918401C91F8015591F8822991F8CD
:102500008040AA432C40144381F88249B042F0DB5A
:1025100070BD00007805002010B5C820FFF786F8D0
:10252000314C002210212046FFF787F95020FFF799
:102530007DF8012210212046FFF77FF9AE2000F040
:1025400041FC202000F03EFC002000F03BFCB020CD
:1025500000F038FCC82000F035FC002000F032FC10
:10256000102000F02FFC402000F02CFC812000F017
:1025700029FC802000F026FCA12000F023FCA620EE
:1025800000F020FCA82000F01DFC3F2000F01AFC09
:10259000A42000F017FCD32000F014FC002000F071
:1025A00011FCD52000F00EFCF02000F00BFCD9202F
:1025B00000F008FC222000F005FCDA2000F002FC0C
:1025C000122000F0FFFBDB2000F0FCFB202000F0DD
:1025D000F9FB8D2000F0F6FB142000F0F3FBBDE8C2
:1025E0001040AF2000F0EEBB000002402DE9FE4F8E
:1025F0009042DDF8308001DA044600E0144699424A
:1026000001DA0F4600E01F46904200DC1046064605
:10261000994200DC19460D460020FFF77BFEB8F119
:10262000000F63D04FF001084FF0000902228DE83F
:1026300004034346B91CA01CFFF7B4FECDF800808C
:1026400001230222B91CCDE90189B01EFFF7AAFEC1
:1026500003228DE8040301230222A91EA01CFFF718
:10266000A1FE04228DE8040301230222A91EB01E4C
:10267000FFF798FE07F10209A5F1020A0DE0A04656
:1026800006E0002301224946FFF766FE08F1010833
:102690004046B045F5DD09F10109D145EFDDB84609
:1026A00007F10209B71E0CE0A61C06E00023012278
:1026B00041463046FFF750FE761CBE42F6DD08F17B
:1026C0000108C845F0DDA81E0CE0A61C06E00023AA
:1026D000012241463046FFF73FFE761CBE42F6DD42
:1026E00008F101008046A842EFDD10E0B8460CE09A
:1026F000274606E00023012241463846FFF72CFE1C
:102700007F1CB742F6DD08F10108A845F0DD0A4A52
:1027100000204FF480631118401C91F8824991F811
:1027200080506C4081F882499842F4DBBDE8FE4F4E
:102730000020FFF7EFBD0000780500202DE9FF4FD6
:1027400084B081461398002500EBC01202EB802074
:10275000B34A119E8418D81703EB507040F2814A97
:102760000831029054E112984FF0000301287DD007
:1027700048E1C81701EB50704FEAE00E09EBCE12AA
:102780001A444FF49067BA4204DC002A02DA4FF090
:10279000000C04E0BA4201DC944600E0D44620F08C
:1027A0000700A1EB000BCBF10808FF2014F80CC0C8
:1027B00020FA08F00CEA000CCDF80C80BA4203DCD9
:1027C000002A01DA002004E0BA4201DC104600E0F1
:1027D000504604F800C04FEACE10803048441844F8
:1027E000BE46704503DC002801DA002704E070458E
:1027F00001DC074600E0574614F807C0FF2707FA38
:102800000BF70CEA070C7746B84204DC002802DA22
:102810004FF0000804E0B84201DC804600E0D046FA
:10282000724504F808C003DC002A01DA002704E03E
:10283000724501DC174600E0574614F807C005FB57
:1028400006F70197DDF818809844CDF8008017F856
:10285000087007FA0BF74CEA070C77460CF0FF0CF0
:10286000BA4204DC002A02DA002203E025E0BA4280
:1028700000DD5246F04604F802C0404503DC002863
:1028800001DA002204E0404501DC024600E0524645
:10289000DDE900C7A25C17F80C70DDF80CC027FA60
:1028A0000CF73A43704503DC002801DA002002E00F
:1028B000704500DD50465B1C2254B342FFF659AF11
:1028C000A3E0C81701EB50704FEAE00E09EBCE12FF
:1028D0001A444FF49068424503DC002A01DA0027CD
:1028E00004E0424501DC174600E0574620F0070CA3
:1028F000E75DA1EB0C0BFF2000FA0BF0074307F09C
:10290000FF0C4746BA4203DC002A01DA002004E04B
:10291000BA4201DC104600E0504604F800C04FEA1D
:10292000CE10803048441844C646704503DC002869
:1029300001DA002704E0704501DC074600E0574655
:10294000CBF1080C14F80780FF2727FA0CF748EAA8
:1029500007087746CDF80CC0B84204DC002802DA3C
:102960004FF0000C04E0B84201DC844600E0D4469D
:10297000724504F80C8003DC002A01DA002704E029
:10298000724501DC174600E0574614F807C005FB06
:1029900006F70197DDF818809844CDF8008017F805
:1029A000087007FA0BF72CEA070C7746BA4203DCEB
:1029B000002A01DA002202E0BA4200DD5246F04667
:1029C00004F802C0404503DC002801DA002204E0DC
:1029D000404501DC024600E05246DDE900C7A25C4A
:1029E00017F80C70DDF80CC027FA0CF7BA437045E5
:1029F00003DC002801DA002002E0704500DD5046CB
:102A00005B1C2254B342FFF65CAF083102986D1C88
:102A1000B5EBE00FFFF6A7AE08B0BDE8F08F000001
:102A2000780500202DE9F04F85B0814610780F9F82
:102A3000904601F10804802875D22038C0B2D91719
:102A4000019003EB5171D1480291C91000EB810054
:102A500003EBD3760090701000FB01FE07EBC7106C
:102A6000CB49002500EB872040F2814A421868E1FB
:102A70000E984FF00003012876D05CE1E01704EBDC
:102A80005070C110049109EBC11119444FF49067C3
:102A9000B94204DC002902DA4FF0000C04E0B9422C
:102AA00001DC8C4600E0D44620F00700A4EB000BCC
:102AB000CBF10808FF2012F80CC020FA08F00CEA4D
:102AC000000CCDF80C80B94203DC002901DA0020AB
:102AD00004E0B94201DC084600E0504602F800C0BC
:102AE00004984FEAC01C0CF1800C0CEB0900184450
:102AF000B0F5906F03DC002801DA002705E0B0F59F
:102B0000906F01DC074600E0574612F807C0FF2728
:102B100007FA0BF70CEA070CB0F5906F04DC0028FD
:102B200002DA002706E014E1B0F5906F01DC0746F9
:102B300000E0574602F807C0009FDDF804C057F8D0
:102B4000048C0CFB0E8703EBC50C6744049797F8C5
:102B500000C04FF490670CFA0BFCB94205DC002969
:102B600003DA4FF0000805E036E0B94201DC8846A0
:102B700000E0D046B94212F808804CEA080C0CF08C
:102B8000FF0C03DC002901DA002102E0B94200DD7C
:102B90005146B84202F801C003DC002801DA0021E6
:102BA00004E0B84201DC014600E05146DDF810C007
:102BB000DDF80C80515C9CF800C02CFA08FC41EA5E
:102BC0000C01B84203DC002801DA002002E0B84220
:102BD00000DD50465B1C1154B3EB660FFFF64EAFA1
:102BE000ADE0E01704EB5070C110039109EBC11187
:102BF00019444FF49067B94204DC002902DA4FF01F
:102C0000000C04E0B94201DC8C4600E0D44620F020
:102C10000700A4EB000BFF2012F80CC000FA0BF029
:102C20004CEA000C0CF0FF00B94204DC002902DA87
:102C30004FF0000C04E0B94201DC8C4600E0D446C1
:102C400002F80C000398C001803048441844B0F5E5
:102C5000906F03DC002801DA002705E0B0F5906FE3
:102C600001DC074600E05746CBF1080C12F807805C
:102C7000FF2727FA0CF748EA0708CDF810C0B0F58F
:102C8000906F03DC002801DA002705E0B0F5906FB3
:102C900001DC074600E0574602F80780009FDDF898
:102CA00004C057F8048C0CFB0E8703EBC50C67447B
:102CB000039797F800804FF4906708FA0BF8B94231
:102CC00004DC002902DA4FF0000C04E0B94201DC18
:102CD0008C4600E0D446B94212F80CC02CEA080C2D
:102CE00003DC002901DA002102E0B94200DD51468F
:102CF000B84202F801C003DC002801DA002104E038
:102D0000B84201DC014600E05146DDF80CC0515CE0
:102D10009CF80080DDF810C028FA0CF821EA0801C0
:102D2000B84203DC002801DA002002E0B84200DDEE
:102D300050465B1C1154B3EB660FFFF652AF0834DC
:102D40006D1C0298B5EBE00FFFF692AE05B0BDE842
:102D5000F08F0E4E00250836032256F82510404607
:102D6000FDF779FA18B16D1C0F2DF5D3EEE71021A0
:102D70000E980B46CDE900100648029700EB45126D
:102D8000A4F108014846FFF7D9FCDFE798000020CE
:102D9000780500201C52000870B5094B01EBC115E5
:102DA00005EB812100224FF4806419448B18865C66
:102DB00013F8805F521C35431D70A242F6DB70BDD4
:102DC0007805002031B50B4C002220212046FEF76B
:102DD00034FD002210212046FEF72FFD01231A4664
:102DE00069460548FFF7D2F8012220212046FEF768
:102DF00024FD38BD00080240F800002070B50C4DDD
:102E00000446002220212846FEF717FD012210214A
:102E10002846FEF712FD01239A0221460548FFF7D6
:102E2000B5F82846BDE8704001222021FEF705BD17
:102E300000080240F800002030B5264D85B026A1DC
:102E400095ED000B01A853EC102B00F05FFD012461
:102E500000210C2301AA08460094FEF7ADFB95ED76
:102E6000020B20A153EC102B01A800F04FFD0C2306
:102E700001AA194600200094FEF79EFB95ED040B75
:102E80001BA153EC102B01A800F040FD0C2301AA5C
:102E9000182100200094FEF78FFB95ED080B17A179
:102EA00053EC102B01A800F031FD0C2301AA2421C2
:102EB00000200094FEF780FB14A101A8AA6900F08D
:102EC00025FD0C2301AA302100200094FEF774FB9D
:102ED00005B030BD500500204B703A20252E3366DA
:102EE000000000004B693A20252E336600000000E8
:102EF0004B643A20252E336600000000466163745F
:102F00006F723A20252E3366000000004D696E5422
:102F1000696D653A2025646D7300000070472DE9E6
:102F2000F04390462DED028B83B0074603EBD3723E
:102F30000E46DDE90C0955100F210095CDE9010180
:102F4000F418B0EE408AF0EE608A07EB08022346E0
:102F500031463846FEF79BF84046FDF711FB53EC2F
:102F6000182BFDF72CFA41EC180B3846FDF708FB3F
:102F700053EC182BFDF77CF9FDF713FBF0210095BE
:102F8000CDE901910246234631463846FEF77FF8E7
:102F900003B0BDEC028BBDE8F08300002DE9FE43D9
:102FA00089462F4C5FF00105FEF70AF96169401A66
:102FB0000F280AD960780028A06901D0401C00E0E1
:102FC000401EA061FEF7FCF86061A2693F2A02DDA5
:102FD000002060700AE0002A08DA65704FF4FA7089
:102FE000FEF724FB89F80050BDE8FE83042602EBBF
:102FF000D270CDE900654FF00F084310002108465C
:10300000CDF80880FEF743F8A269CDE9006502EB30
:10301000D270F02743100021402002974032FEF783
:1030200036F8A26908260096CDE90157202702EB61
:10303000D27007EB600339460020FEF728F8A2693A
:10304000CDE9006502EBD27007EB60032021402040
:10305000CDF808804032FEF71AF8FDF7ADFCA3E783
:1030600000000020F8B515460E460B4600920446B7
:103070000122022100F02CF8A0B91348134900687E
:10308000B0FBF1F04FF47A71484300906068B0F5FE
:10309000827F0DD13346002280212046009500F02A
:1030A00017F870B1606D40F0200060650320F8BD36
:1030B000009830B1401E009020688068C043000630
:1030C000F6D50020F8BD00004400002000366E0157
:1030D0002DE9F8431E46914688460446089DFEF7B2
:1030E000B1FB401B351AFEF7ADFB074625480068CB
:1030F000C0F3CB30684338E0701C37D0FEF7A2FB3A
:10310000C01BA84203D215B1009860B32CE0206820
:10311000416821F0E00141606068B0F5827F0BD129
:10312000A068B0F5004F02D0B0F5806F04D12068E0
:10313000016821F040010160A06AB0F5005F09D18B
:103140002068016821F4005101602068016841F4A1
:1031500000510160012084F85100002084F85000E3
:103160000320BDE8F8830025401E00902068816898
:1031700038EA010004D000214945BDD10020F0E724
:103180000121F9E74400002070470A690AB10120D3
:103190007047086142690AB905E00246D068002814
:1031A000FBD1D16000E0416100208A607047CA68AD
:1031B0000AB101207047C86002690AB905E00246F9
:1031C00090680028FBD1916000E0016100204A6016
:1031D000704770B504460D46182001F0C9FBC0E9E0
:1031E000004570BD70B505460C46202001F0C0FBBF
:1031F0000560846170BD000070B5074E05460C4641
:10320000F06808B1012070BD202001F0B1FBF06032
:1032100005608461002070BD4800002010B5FFF7F4
:10322000EBFF0248C168016110BD000048000020AA
:10323000F0B587B00446DDE90E670D46DDF830C015
:10324000CDF80CC006960094CDE90153CDE90427D2
:1032500000EBD4704010611CC4F13F03C0F17F0249
:10326000FDF7CEFF00960021234608462A68FEF7A8
:10327000A3F907B0F0BD00002DE9FF4F7E4C85B0EB
:10328000204693460169E278DDF84880486909697B
:103290009A46002532B111B1C4E9051501E0C4E92F
:1032A0000550E570002701E089687F1C0029FBD1EB
:1032B000002601E0C068761C0028FBD198F80300C6
:1032C0004FF0010900B32078F0B1606988B1206146
:1032D0000169616129B1FDF773FFA0602570A561E7
:1032E00005E04069A061FDF76BFFA0602570656097
:1032F0000AE0A06940B1607830B9FDF761FFA060D5
:10330000257084F80190A57098F80000A0B120788D
:1033100090B1607810B184F802900DE02069C06827
:1033200050B1FDF74DFFA06025702069C068206195
:103330000069C4E90505656098F8020030B360785B
:1033400020BB207810B3606970B1806810B1C4E907
:1033500005050EE02069416911B1C4E9055108E095
:10336000A5610069606110E0A06978B1C06820B112
:10337000A0616068401C606008E02169086910B1C4
:10338000C4E9050501E04869A061656098F801009D
:1033900098B3607898BB207808B36069B8B140688A
:1033A00010B1C4E9050517E02169486908B904E0CE
:1033B0000846C1680029FBD137E0A561086900E033
:1033C000084681680029FBD16061F01913E0A0690B
:1033D00028B1806820B1A0616068401E606027E06D
:1033E00021690869D8B1A56100E008468168002913
:1033F000FBD160616068401E60606078C0B1A06908
:103400004268AAB11C494046891C9047A078D0B1B7
:103410006570FDF7D5FEA0602570A57013E04869C2
:1034200000E00846C1680029FBD1C4E90550CCE79B
:10343000069ACDE902BACDE9006221693B4662688D
:103440008D690598A847FDF7BBFEA168401A28289A
:1034500002D2FDF7ABFA0AE0FDF7B2FEA168401A0E
:10346000782802D2FDF77EFA01E084F8009009B0D6
:10347000BDE8F04FFDF7A0BA48000020016909B18E
:10348000012070470749CA680261516909B905E01E
:103490001146CA68002AFBD1C86000E05061816013
:1034A0000020704748000020C16809B10120704722
:1034B0000749CA68C260116909B905E011468A68FE
:1034C000002AFBD1886000E0106141600020704755
:1034D000480000202DE9FE4F324933A0FFF79EFE41
:1034E000324933A0FFF77EFE0090304932A0FFF74B
:1034F00079FE8146334934A0FFF76BFE02903549CF
:1035000035A0FFF766FE0190364937A0FFF761FE50
:103510008346384938A0FFF75CFE80463A493BA015
:10352000FFF757FE07463D493DA0FFF752FE06460E
:103530003F4940A0FFF74DFE0546424942A0FFF734
:1035400048FE0446444945A0FFF743FE82460098E2
:10355000FFF7AAFF49460098FFF729FE0298FFF7F8
:103560008DFF0198FFF78AFF5846FFF787FF504607
:10357000FFF784FF41464846FFF707FE39464846B5
:10358000FFF703FE31464846FFF7FFFD2946484650
:10359000FFF7FBFD03B021464846BDE8F04FFFF7BB
:1035A000F4BD000025210008487562003132000892
:1035B000E4BFA1E681AF0000475549E4BFA1E68121
:1035C000AF0000005108000844726177204C696E1A
:1035D00065000000A90800084472617720526F75E9
:1035E0006E6400009D2F0008526F756E6420526556
:1035F0006374000069210008E58685E6A0B8E789C4
:1036000088E69CAC00000000C5110008E59BBEE503
:10361000BDA2E5BA93E78988E69CAC0019090008C9
:10362000E9A9B1E58AA8E4BFA1E681AF00000000E6
:103630004D380008E4BD9CE88085E4BFA1E681AF79
:1036400000000000392E000850494420506172618A
:103650006D65746572000000B5070008436F6E74F5
:10366000726F6C73000000002DE9F0470446FEF70E
:10367000E9F8484D696A401A022873D9FEF7E2F862
:103680000026DFF81481B146444F4FF0010A68620A
:1036900007E036B1012E07D0022E17D0032E08D135
:1036A00018E02546402101E0651C80214046FEF7D8
:1036B000BFF857F8261088B1491E47F8261005298B
:1036C0001ADA47F8269085F8009017E0A51C4FF409
:1036D0008071EBE7E51C4FF40071E7E7491C47F800
:1036E0002610052905DD85F800A00A2147F82610D7
:1036F00004E085F8009001E085F800A0761C042E17
:10370000C7DB244D2378303562782E78A178E078B5
:103710001746B34201D0012600E00026267095F836
:1037200001C0674501D0012700E000276770A94666
:10373000AD78A94201D0012500E00025A57099F8D7
:103740000380404502D04FF0010C01E04FF0000C27
:1037500084F803C01E4000D001262670174202D014
:10376000012601E014E0002666700D4000D001251E
:10377000A5701CEA000F01D0012500E00025E570CE
:1037800089F8003089F8012089F8021089F80300CF
:10379000BDE8F0870000002000080240E80000209B
:1037A000FEF756B830B593B030216846FCF748FDB7
:1037B00014210CA8FCF744FD1D480024016841F0C9
:1037C00080510160006800F0805011901948016834
:1037D00021F4404141F4004101600068022500F4F9
:1037E0004040119001200390102004900095069510
:1037F0000820CDE907405420CDE9090504200B90AD
:103800006846FEF77BF908B172B6FEE70F20CDE9F6
:103810000C054FF48050CDE90E4002210CA8109405
:10382000FEF7A2F8002801D072B6FEE713B030BD53
:1038300040380240007000400248016841F47001C5
:103840000160704788ED00E0FEE7000038B5012513
:103850000021102310A208460095FDF7ADFEFDF7EC
:10386000AFFC114C216A401A41F28831884206D9D6
:10387000A07880F00100A070FDF7A2FC2062A07883
:103880004FF00C03009508B108A200E011A2182126
:103890000020FDF791FE38BDE4BD9CE880853AE547
:1038A000B281E5BF83000000000000204353444E76
:1038B0003A2068747470733A2F2F626C6F672E63AE
:1038C00073646E2E6E65742F6D305F373336373705
:1038D0003836360042696C6962696C693A206874EE
:1038E0007470733A2F2F73706163652E62696C690F
:1038F00062696C692E636F6D2F3334393433353917
:103900003435323335343935330000000FB4084BC9
:1039100010B504A902AA039800F060FC044602A9AD
:10392000002000F0DEFF204610BC5DF814FB000014
:10393000E34800084100080218BF04200A0E18BF1F
:1039400040F001004FF07F4232EA010108BF40F031
:103950000200012808BF052070470907090E00284A
:1039600004DB00F1E02080F80014704700F00F0045
:1039700000F1E02080F8141D7047000010B510EE33
:10398000100A2DED068BB7EE001A10EE901AB0EE6D
:10399000418A0022A0F5000CDFEDFE9A4FF0007383
:1039A000BCF1FE4F4FF07F4403EB410C80F0B4813B
:1039B000BCF1804FC0F02082F74901449FEDF73AF7
:1039C000B1F5005F40F2D48200F58021CB0C03F00A
:1039D0000F0101EE901AC3F307137F3BA0EBC35016
:1039E000B8EEE12A00EE100A1A44DFEDED2AF0EEFF
:1039F000411A42EE221AF0EE613A70EE232A30EEBE
:103A0000632A12EE900A00F500606FF30B0001EEDE
:103A1000900A73EEE13A33EE804AC1EE223A22EE8A
:103A2000230A10EE100A00F500606FF30B0000EEA1
:103A3000100A00EE612A00EE442A62EE232A70EE9C
:103A4000221A21EEA12ADFEDD73A02EE233A23EE25
:103A5000023A20EE012A22EE811A03EE211A32EEFA
:103A6000010A10EE100A00F500606FF30B0000EE83
:103A7000100A72EE401A31EE812A9FEDCB1A60EEE9
:103A8000011A9FEDCA1A20EE011A9FEDC90A02EE33
:103A9000001A31EE810A10EE100A00F500606FF393
:103AA0000B0000EE100AC34871EEC01A31EE812AF5
:103AB000784400EBC10090ED003AD0ED011A1001FE
:103AC00001EE100AF8EEC12A32EE211A31EE001A88
:103AD00031EE031A31EE221A11EE100A00F50060E1
:103AE0006FF30B0009EE100A39EE621A31EE431A39
:103AF00031EE400A30EE610A32EE40AA10EE900A32
:103B0000002100F500606FF30B0008EE900A0846F4
:103B100070EEE8AAFCF738FE29EE280A00F00C0146
:103B2000F0EEC00A10EE900AB0F18B4F0DDD10EEF2
:103B3000900AB4EB400F08D310EE100A4FF08B42FE
:103B400062F31E0008EE900A13E069EE2A0A38EECE
:103B5000AA1A4AEE010A30EE201A11EE100A00F5F8
:103B600000606FF30B0008EE900A30EE680A70EE0A
:103B7000209A0C20FCF708FE38EEA90AB5EEC00A20
:103B8000F1EE10FA34BFFEEE000AF6EE000A30EE57
:103B9000800ABDEEC00A10EE100A011100EE101AE4
:103BA000F8EEC00A00EE100AB8EEC00A38EEC00AFD
:103BB00030EE290ADFED801A9FED801A00EE211AFF
:103BC000DFED7F1A7F4900F00F0040EE011A21EE71
:103BD000800A794401EB800191ED001A7A49794419
:103BE00001EB8001D1ED001A784901EE801A794489
:103BF00001EB8000764990ED000A31EE001AB0EE3C
:103C0000E00A10EE100A884215DA10EE100AB4EB42
:103C1000400F10D39FED6F0A30EE800ADFED6E0A81
:103C200020EE200A68EE010ABDEC068BBCEEC00A4D
:103C300020EE200A10BD10EE100A6849884243DACF
:103C400010EE100AB4EB400F3ED3BDEEE00A68EE72
:103C5000010A10EE100A00EBD0725110C90501F1F3
:103C60007E5100EE101AA0EB6200C00560EE200A43
:103C700000F17E5000EE100A60EE808A18EE900A85
:103C8000B4EB400F0FD1022000F0E0F900F0BEF9D4
:103C900010EE101A18EE100ABDEC068B61F31E0030
:103CA00000EE100A10BD18EE900A400011D018EE78
:103CB000900AFFF73FFE042808BF00F0AFF9B0EE0E
:103CC000680ABDEC068B10BDF5EEC00AF1EE10FAE5
:103CD0000FD2022000F0BAF900F0A0F910EE101A8D
:103CE00018EE100ABDEC068B61F31E0000EE100A00
:103CF00010BD022000F0AAF900F088F910EE101AA9
:103D0000B0EE480A10EE100ABDEC068B61F31E00FF
:103D100000EE100A10BD00BFBCF1804F6CD300BF95
:103D200000F1FF43B3F1FE4F24D200BFB0EEC00A52
:103D300010EE100AC1F3C7537F2B0DDB972BBFF694
:103D40003BAEC3F196034FF0010C0CFA03F3A3F161
:103D5000010C1CEA010F08D0012000F077F9BDEC3E
:103D6000068BBDE8104000F049B90B4218BFBFEE0A
:103D7000008A21E643001CBF4FF08073B3EB400F75
:103D800034D96FF01A02DFED161A20EE210A10EE78
:103D9000100A27E000000000001080C0ABAAAA3E75
:103DA0000000803D7EE24C3E00B03842D49AB8BB61
:103DB0003BAA384248190000FC596337C9FF753ADD
:103DC0001872313DE61800001A1900008A18000028
:103DD0000000FC420000FE420000004B0000404397
:103DE0000000004D10F0004FA0D1E5E5A0F5000364
:103DF000B3F1FE4F21D2DFE503EB4103B3F1007FC6
:103E000011D3F5EEC00AF1EE10FA05D1430018BF48
:103E1000B4EB400F76D883E701F0004141F0FC514C
:103E200000EE901A7CE7B3F1807F06D210EE903A54
:103E3000A3F5000300EE903A72E720F000426FF025
:103E4000FF4C604C02EB0C03A34210D321F0004363
:103E50009C44A4450BD3B0F17E5F18BF5FEA410CD0
:103E600050D0B2F1FF4F98BFB3F1FF4F05D9BDEC71
:103E7000068BBDE8104000F0BDB8B0F1FF4F0FD089
:103E8000C1F3C7527F2A09DB972A11DAC2F19602E1
:103E9000012303FA02F2531E0B4205D0002208E070
:103EA00011F0004F55D128E00A4218BF012200D17D
:103EB000022210F5000F13D028B3B0F1004F26D026
:103EC00010F1814F4FD04FF0FE42B2EB400F94BF44
:103ED00001200020012202EBE171884239D10CE07F
:103EE00011F0004F02D0012A38D032E0012A02BF7F
:103EF0009FED350ABDEC068B10BD9FED340ABDEC7D
:103F0000068B10BD2FE011F0004F0CD121E0B1F174
:103F1000FF4F1ED011F5000F05D011F0004F15D046
:103F20000AB1012A08D0022000F090F8BDEC068BFF
:103F3000BDE8104000F054B8022000F087F800F00F
:103F40004FF8BDEC068BB1EE400A10BD0AB1012A54
:103F500004D0B0EE690ABDEC068B10BDBDEC068B3B
:103F60009FED1B0A10BDBDEC068BB7EE000A10BD1D
:103F700030EE410AB5EE001A9FED172A00EE413AE5
:103F8000B6EE001A60EE001A00EE431A61EEC11A96
:103F90009FED101A20EE011A20EE020A9FED0F2A63
:103FA00001EE820A71EE001A11EE900A00F500602F
:103FB0006FF30B0009EE100A31EE491A31EE00AA38
:103FC0009CE50000FFFF3F00000080FF0000807FB5
:103FD0000000008000B0B841D49A38BB3BAAB84179
:103FE000DFED030AB7EE001A81EE200A70470000E9
:103FF0000000000030EE200A70470000DFED020AEA
:1040000080EEA00A70470000000000009FED020A49
:1040100020EE000A70470000000000709FED020AC9
:1040200020EE000A704700000000001002E008C8FF
:10403000121F08C1002AFAD170477047002001E022
:1040400001C1121F002AFBD170470000014908601E
:1040500070470000E40000202DE9FF5F82B00021DE
:10406000DDE90430020DDDF840B0034318D044F61A
:104070001050A2F2FF3242431514119801281FD0AC
:10408000A5EB0B00401C5FEA000A4FF000064E4F04
:10409000DFF83891B046504615D5CAF1000413E058
:1040A000119801244AA3012801D16FEA0B0102985B
:1040B000119AC0E90031C0E9024206B0BDE8F09FA4
:1040C000CBF10000DFE704460021404A491842EBEB
:1040D0000450CDE9001012E0E00707D032463B461D
:1040E00040464946FCF76BF98046894632463B46D6
:1040F00010461946FCF763F906460F466410002C7B
:10410000EAD1DDE90401DDE90023BAF1000F06DAA6
:10411000FCF755F942464B46FCF751F905E0FCF730
:10412000C0F942464B46FCF7BCF904460E46002255
:10413000284BFCF755FA03D84FF0FF30014607E053
:104140000022254B20463146FCF792F8FCF704FB91
:10415000102409E0002C0ADB0A220023FCF738F8BF
:10416000039B30321A55641E50EA0102F2D1641CDE
:10417000039AC4F111031444119A012A03D00122B5
:1041800008430DD10AE0084304D000204FF0110B82
:10419000119072E7A3EB0B056D1E0DE05B4504DD8E
:1041A0004FF0000205F1010504E003DA4FF00002D0
:1041B000A5F10105002AECD002981199C0E902315D
:1041C000C0E9004579E70000000014400000F03F1E
:1041D000300000000000F0430000E03F2DE9FF4FF9
:1041E00095B09A46884606460025EEE1252877D107
:1041F00000242746F94A0121039400E0044316F8FD
:10420000013F203B01FA03F01042F7D130782A2811
:1042100011D06FF02F033078A0F13002092A16D8A0
:10422000039A44F0020402EB820203EB42021044C0
:10423000761C0390EFE758F8042B0392002A03DA68
:10424000504244F40054039044F00204761C307849
:104250002E2816D116F8010F44F004042A280DD098
:104260006FF02F023078A0F13003092B09D807EB4B
:10427000870302EB4303C718761CF3E758F8047B67
:10428000761C30786C280FD006DC4C2817D06828B4
:104290000DD06A2814D104E0742810D07A280FD1E8
:1042A0000DE044F400140AE044F4801401E044F406
:1042B00040147278824202D104F58014761C761C78
:1042C000307866280BD013DC582877D009DC00281A
:1042D00075D04528F6D04628F4D047281AD193E166
:1042E00018E0632835D0642879D0652812D18BE195
:1042F000702873D008DC6728F1D069286FD06E2849
:104300000DD06F2806D1ACE073282CD0752874D05E
:10431000782853D05246179990476D1C54E1C4F346
:104320000250022809D003280DD0D8F80010042824
:104330000DD00D6008F1040846E1D8F80010EA1726
:10434000C1E90052F6E7D8F800100D80F2E70D70D1
:10435000F0E718F8041B8DF8001000208DF801001C
:10436000EB46012003E058F804BB4FF0FF30610733
:104370004FF0000102D40DE009F101018946B94274
:104380000FDA8145F8DB1BF809100029F4D108E0A9
:1043900009F1010189468142FADB1BF80910002965
:1043A000F6D103985346A0EB090721463846179AE1
:1043B00000F080FA284400EB090507E044E008E13A
:1043C0000DE01BF8010B524617999047B9F101090E
:1043D000F7D2534621463846179AF2E039E00A21CF
:1043E000C4F302524FF0000B0091022A06D058F895
:1043F000040BC117032A09D00AE023E008F10700E3
:1044000020F00702F2E80201904605E000B2C11771
:10441000042A01D140B2C117002906DA0A46002158
:10442000404261EB02012D2202E0220504D52B223D
:104430008DF80420012203E0E20701D02022F7E7F3
:10444000914657E00A2100E010214FF0000B009147
:104450000BE010214FF0000B44F0040408270091FA
:1044600003E008204FF0000B0090C4F30252022A30
:1044700005D058F8040B0021032A08D008E008F101
:10448000070020F00702F2E80201904603E080B244
:10449000042A00D1C0B24FF0000922072AD5327891
:1044A000702A07D0DDF800C08CF0100C5CEA0B0C11
:1044B00005D00EE040228DF80420012208E050EAE9
:1044C000010306D030238DF804308DF80520022238
:1044D0009146009B83F0080353EA0B030AD150EA8C
:1044E000010201D1620705D530228DF804204FF07A
:1044F00001097F1E3278582A04D039A20C920CAAE6
:1045000002920BE03BA2F9E75B46009AFBF760FEE4
:104510000C9B9B5C029A521E0292137050EA01029D
:10452000F2D1029804A9081A00F1200B600702D505
:1045300024F4803400E001275F4502DDA7EB0B0087
:1045400000E0002000EB0B01009003984944401A62
:104550000390E00306D453462146179A039800F0CF
:10456000A9F90544002706E001A85246C05D179945
:1045700090476D1C7F1C4F45F6DBE0030CD553467E
:104580002146179A039800F095F9054404E030207D
:104590005246179990476D1C0099481E00900029BB
:1045A000F5DC08E00298029952460078491C029115
:1045B000179990476D1CBBF10001ABF1010BF1DCC9
:1045C0005BE100F065F90544761C307800287FF443
:1045D0000DAE19B02846BDE8F08F00000928010093
:1045E0003031323334353637383961626364656669
:1045F000000000003031323334353637383941422B
:104600004344454600000000600700D4062708F137
:10461000070020F00700F0E80223804603F0004C7A
:104620005FEA0C0001D097A009E0200501D596A013
:1046300005E0E00701D095A001E0AFF24C00139037
:10464000307823F0004365280CD006DC452809D0DB
:1046500046281DD047287FD13BE0662818D0672820
:104660007AD136E00021112F01DB112000E0781C07
:10467000CDE9000104A90CA8FFF7EEFCDDE90D016E
:104680000C9A4FF0000B07F10109109200914EE0D7
:104690004FF000400097CDE9011004A90CA8FFF7E6
:1046A000DBFCDDE90D020C9B0F994FF0000B9146EE
:1046B0001093009211B9791C00EB0109B7EB0900C6
:1046C00003D4C0F1FF3B07F10109A9EB07000190FA
:1046D00042E0012F00DA01270021112F01DD112016
:1046E00000E03846CDE9000104A90CA8FFF7B4FCAE
:1046F000DDE90D010C9A00914FF0000BB9461092C4
:1047000021070FD4009A4A4503DA914601E0A9F146
:104710000109B9F1010F05DD109AA9F10101515C00
:104720003029F4D0B84202DA10F1040F03DA012183
:10473000CDE9011010E0002803DC8344A9EB00015F
:1047400002E0411C494500DD8946A0EB0B00401CFE
:1047500001904FF000400290200705D40198484591
:1047600002DB4FF0FF30019000208DF84B000298E3
:104770000DF14B07B0F1004F25D002200C902B20FB
:104780000D90029800280CDA404202902D200D90E6
:1047900007E00A210298FBF73BFF3031029007F84F
:1047A000011D0C99481E0C900029F2DC029800288B
:1047B000EFD1791E0D980870307800F0200040F09D
:1047C000450007F8020D11A8C01BC01D02901398E8
:1047D000007800B1012000EB0901019801EBE071C4
:1047E000029801440398401A401E0390E00306D447
:1047F00053462146179A039800F05CF80544139835
:10480000007818B15246179990476D1CE00323D5E4
:1048100053462146179A039800F04CF805441BE0D4
:10482000BBF1000F07DB0098584504DD109817997D
:1048300010F80B0001E0179930205246904701987C
:104840000BF1010B401E05F10105019004D12E2052
:104850005246179990476D1CB9F10001A9F1010961
:10486000DEDC05E017F8010B5246179990476D1CE6
:104870000299481E02900029F4DC53462146179AFB
:1048800003989EE62D0000002B0000002000000091
:104890002DE9F041044600251E461746880404D43D
:1048A00005E039462020B0476D1C641EF9D5284626
:1048B000BDE8F0812DE9F041044600251E469046F2
:1048C000C80301D5302700E02027880404D505E07F
:1048D00041463846B0476D1C641EF9D52846BDE8F0
:1048E000F0810A68531C0B601070704708B5FCF724
:1048F000B7FFFEF757FFFDF747FCFDF799FC15489A
:104900009FED120B0A2180ED000B9FED130B80ED44
:10491000020B9FED130B80ED040B9FED130B80ED4D
:10492000080B8161082000F023F80446FCF760FCC6
:10493000FEF7D0FD2046FEF797FE00230122194620
:1049400010200094FEF798FCF4E700009A999999DA
:10495000999909C05005002054E3A59BC42010403C
:1049600054E3A59BC420EC3F9A9999999999B93F32
:10497000F0B50B30154D20F007010024144A0FE06C
:1049800003688B420BD38B4205D95E1A43184768E4
:10499000C3E9006700E04368136002C004E0021D41
:1049A00010680028ECD12046002802D1286808B100
:1049B0000020F0BD064A07481060074A121A22F08C
:1049C0000702C0E9002401202860D7E7E0000020AA
:1049D000DC0000200413002000150020000000006F
:1049E000000000000102030406070809000000009F
:1049F00000000000002F0000000007000700001466
:104A00007F147F1400242A7F2A1200626408132373
:104A100000364955225000000503000000001C220A
:104A20004100000041221C000014083E0814000848
:104A3000083E0808000000A06000000808080808F8
:104A4000000060600000002010080402003E514990
:104A5000453E0000427F400000426151494600212E
:104A600041454B31001814127F1000274545453948
:104A7000003C4A49493000017109050300364949A3
:104A8000493600064949291E00003636000000005C
:104A900056360000000814224100001414141414A7
:104AA0000000412214080002015109060032495950
:104AB000513E007C1211127C007F49494936003E6C
:104AC00041414122007F4141221C007F4949494127
:104AD000007F09090901003E4149497A007F080821
:104AE000087F0000417F4100002040413F01007FDE
:104AF00008142241007F40404040007F020C027FAA
:104B0000007F0408107F003E4141413E007F0909BB
:104B10000906003E4151215E007F091929460046E1
:104B2000494949310001017F0101003F4040403FB8
:104B3000001F2040201F003F4038403F0063140802
:104B400014630007087008070061514945430000DD
:104B50007F41410000552A552A55000041417F0000
:104B600000040201020400404040404000000102F5
:104B70000400002054545478007F484444380038DE
:104B80004444442000384444487F00385454541866
:104B900000087E0901020018A4A4A47C007F080478
:104BA00004780000447D4000004080847D00007F48
:104BB000102844000000417F4000007C0418047865
:104BC000007C0804047800384444443800FC242461
:104BD00024180018242418FC007C08040408004849
:104BE0005454542000043F444020003C4040207C6A
:104BF000001C2040201C003C4030403C0044281059
:104C00002844001CA0A0A07C004464544C44000034
:104C100018E700000000FF0000000000E718000097
:104C200008040810080414141414141400000000DC
:104C3000000000000000000000000000000000F87C
:104C400000000000000000333000000000100C06DF
:104C5000100C0600000000000000000040C078407A
:104C6000C0784000043F04043F040400007088FC46
:104C700008300000001820FF211E0000F008F0009E
:104C8000E018000000211C031E211E0000F008880F
:104C9000700000001E2123241927211010160E0079
:104CA000000000000000000000000000000000E024
:104CB0001804020000000007182040000002041839
:104CC000E00000000040201807000000404080F095
:104CD000804040000202010F01020200000000F0CB
:104CE000000000000101011F01010100000000009F
:104CF0000000000080B07000000000000000000014
:104D0000000000000001010101010101000000009C
:104D10000000000000303000000000000000000033
:104D200080601804006018060100000000E0100810
:104D30000810E000000F102020100F00001010F8E5
:104D4000000000000020203F202000000070080824
:104D500008887000003028242221300000300888A4
:104D6000884830000018202020110E000000C020CC
:104D700010F8000000070424243F240000F80888ED
:104D8000880808000019212020110E0000E010887A
:104D900088180000000F112020110E0000380808AC
:104DA000C83808000000003F0000000000708808BC
:104DB00008887000001C222121221C0000E010083D
:104DC0000810E0000000312222110F00000000C096
:104DD000C000000000000030300000000000008033
:104DE0000000000000008060000000000000804023
:104DF000201008000001020408102000404040403C
:104E0000404040000404040404040400000810208E
:104E100040800000002010080402010000704808D3
:104E20000808F0000000003036010000C030C8283B
:104E3000E810E0000718272423140B000000C038F6
:104E4000E0000000203C23020227382008F8888870
:104E500088700000203F202020110E00C03008087C
:104E600008083800071820202010080008F8080853
:104E70000810E000203F202020100F0008F888884C
:104E8000E8081000203F20202320180008F8888818
:104E9000E8081000203F200003000000C030080890
:104EA0000838000007182020221E020008F8080019
:104EB0000008F808203F210101213F20000808F8E0
:104EC000080800000020203F202000000000080803
:104ED000F8080800C08080807F00000008F888C0C3
:104EE00028180800203F20012638200008F8080074
:104EF00000000000203F20202020300008F8F800AB
:104F0000F8F80800203F003F003F200008F830C0BC
:104F10000008F808203F200007183F00E0100808AC
:104F20000810E0000F10202020100F0008F80808DB
:104F30000808F000203F210101010000E0100808EE
:104F40000810E0000F18242438504F0008F8888813
:104F500088887000203F2000030C302000708808F3
:104F6000080838000038202121221C00180808F801
:104F7000080818000000203F2000000008F8080082
:104F80000008F808001F202020201F000878880053
:104F900000C83808000007380E010000F80800F8C3
:104FA0000008F800033C0700073C0300081868806D
:104FB0008068180820302C03032C30200838C800E3
:104FC000C83808000000203F200000001008080832
:104FD000C83808002038262120201800000000FED4
:104FE000020202000000007F40404000000C30C080
:104FF00000000000000000010638C00000020202AC
:10500000FE000000004040407F000000000004025D
:105010000202040000000000000000000000000088
:105020000000000080808080808080800002020478
:105030000000000000000000000000000000808070
:10504000808000000019242222223F2008F80080DE
:1050500080000000003F112020110E0000000080A1
:1050600080800000000E1120202011000000008030
:105070008088F800000E112020103F200000808062
:1050800080800000001F222222221300008080F076
:10509000888888180020203F2020000000008080A1
:1050A00080808000006B94949493600008F80080E6
:1050B00080800000203F210000203F200080989841
:1050C000000000000020203F2020000000000080A1
:1050D0009898000000C08080807F000008F80000E1
:1050E00080808000203F24022D302000000808F836
:1050F000000000000020203F2020000080808080F1
:1051000080808000203F20003F20003F8080008082
:1051100080800000203F210000203F200000808090
:1051200080800000001F202020201F008080008041
:105130008000000080FFA12020110E0000000080F0
:1051400080808000000E112020A0FF8080808000E1
:105150008080800020203F2120000100000080800E
:10516000808080000033242424241900008080E003
:10517000808000000000001F2020000080800000D0
:1051800000808000001F202020103F2080808000B1
:105190000080808000010E300806010080800080C1
:1051A000008080800F300C030C300F0000808000E6
:1051B000808080000020312E0E3120008080800011
:1051C0000080808080818E701806010000808080C1
:1051D000808080000021302C22213000000000005F
:1051E000807C020200000000003F40400000000000
:1051F000FF00000000000000FF0000000002027C31
:10520000800000000040403F000000000006010157
:1052100002020404000000000000000000001E1054
:105220001090F09F909090901E000000808084422B
:105230004142242810080403000000000000800000
:1052400000E002041800000040800000100C030081
:10525000003F40404040407800010E00008060F870
:10526000070004242425262424240400010000FF30
:10527000000000F94949494949F90000000000FCD3
:1052800054545655545454FC000000004030000360
:1052900039414145594141730008300000FE20204A
:1052A0003F2000FC24E4242223E20000807F01014F
:1052B000FF80601F804126182641800000101010DA
:1052C00010D030FF30D01010101000001008040271
:1052D000090808FF080809020408100000F8080877
:1052E0000808887F8808080808F8000000FF000800
:1052F000040201000001024C807F00001010D0FF6A
:1053000090100888C8A8998E88482800040300FFD8
:1053100000038888444422112844820000FE02428F
:1053200022325E925232120202FE000000FF42421E
:10533000425155646941424242FF0000808282FE30
:105340008282FE8282802010088660008040300FBA
:105350000000FF000080844221100C000000FC24AB
:1053600024A4643DA62424242424040040300F10E7
:1053700013121212FF12121212101000008060F8A5
:105380000740300FF888888888080800010000FF6F
:1053900000000000FF08080808080000202024245E
:1053A0002424BF642434282422202000100804026E
:1053B000FF494949494949FF0000000002FA828239
:1053C000FE8000FE02126282621A020008184884FF
:1053D000443F007F50484641465840004044C44442
:1053E0004444401010FF101010F00000103C131047
:1053F00014B840300E014080403F00000000000023
:10540000000000000000B33FB2BE7D3A00002E4015
:10541000DFCF513800007E40BF51FABA00E0A4400F
:1054200019DAC3BA00E0C840C2ED8AB90040EB40C7
:10543000CD1F2CBA001006412AFFFABA00C0154150
:10544000DFCFD13700D024419A97703A00503341D2
:1054500089478E3600404141E75B9D3800B04E41A0
:10546000C00A98B900A05B41558F943A003068415A
:10547000DA92C0BA0040744162B3C63A0000803F7D
:1054800000A0853F00908B3F00C0913F0030983FC7
:1054900000F09E3F00F0A53F0050AD3F0000B53F3B
:1054A0000000BD3F0060C53F0020CE3F0040D73F19
:1054B00000C0E03F00C0EA3F0020F53F00000000D0
:1054C0007D36AC397D3C3839EBDCF438320A7E3934
:1054D000124C26399B6AED39A4EE83397F661E395A
:1054E000F6398A392B426539A48211395B991F3903
:1054F000C3EECD39DDE7C637A5A22F390000803FC6
:10550000C3AA853FC2958B3FD3C3913FF037983FE5
:1055100032F59E3FD7FEA53F3F58AD3FF304B53F60
:10552000A408BD3F2A67C53F8C24CE3FFD44D73F2A
:10553000DFCCE03FC7C0EA3F7D25F53FE5B2810003
:10554000E5BF8300E8808500E5868500E78988005F
:10555000E5BA9300E4BD9C00E4BFA100E5BDA20054
:10556000E58AA800E69CAC00E681AF00E9A9B1009D
:10557000E6A0B800E59BBE0098550008000000209A
:10558000E80000002C40000880560008E8000020D9
:10559000181800003C400008010101000000000054
:1055A00000000000000000000000000000000000FB
:1055B00000000000000000000000000000000000EB
:1055C00000000000000000000000000000000000DB
:1055D0000100000010000000000000000024F400A2
:1055E00001000001000000000000000000000000B9
:1055F00000000000000000000000000000000000AB
:105600000200000000000000000000000000000098
:10561000000000000000000000000000000000008A
:10562000000000000000000000000000000000007A
:10563000EC4900082C4C00083C5500084055000877
:1056400058550008685500084C5500086455000876
:105650004855000870550008745500085C5500084E
:105660005055000854550008445500086C55000872
:10567000605500080000000000000000000000006D
:040000050800019559
:00000001FF
