:020000040800F2
:10000000481900205D0200082B320008D730000894
:100010002932000801180008A94600080000000065
:100020000000000000000000000000001140000877
:100030000318000800000000353E000801460008D3
:1000400077020008770200087702000877020008AC
:10005000770200087702000877020008770200089C
:10006000770200087702000877020008770200088C
:10007000770200087702000877020008770200087C
:1000800077020008770200087702000800000000ED
:1000900000000000000000000000000077020008DF
:1000A000770200087702000877020008770200084C
:1000B000770200087702000877020008770200083C
:1000C000770200087702000877020008770200082C
:1000D000770200087702000877020008000000009D
:1000E000770200087702000877020008000000008D
:1000F000000000000000000000000000770200087F
:10010000000000007702000877020008770200086C
:1001100000000000000000000000000000000000DF
:1001200077020008770200087702000877020008CB
:10013000770200080000000000000000000000003E
:10014000000000000000000000000000770200082E
:10015000770200087702000877020008770200089B
:10016000770200087702000800000000000000008D
:10017000000000000000000000000000000000007F
:1001800000000000770200080000000000000000EE
:100190007702000800F002F800F050F80AA090E89A
:1001A000000C82448344AAF10107DA4501D100F032
:1001B00045F8AFF2090EBAE80F0013F0010F18BFAF
:1001C000FB1A43F001031847246300004463000056
:1001D000103A24BF78C878C1FAD8520724BF30C873
:1001E00030C144BF04680C60704700000023002445
:1001F00000250026103A28BF78C1FBD8520728BF37
:1002000030C148BF0B607047662905F054836429EC
:1002100000F02681002070471FB505F047FB9DE8E0
:10022000030000F075FA00F03FFD040000200021FB
:1002300004F07AFEE0601FBD10B510BD00F056FE60
:100240001146FFF7E9FF04F02DFE00F074FE03B441
:10025000FFF7F2FF03BC00F0E5FE0000094880470D
:1002600009480047FEE7FEE7FEE7FEE7FEE7FEE798
:10027000FEE7FEE7FEE7FEE704480549054A064BB0
:1002800070470000994600089501000848130020B7
:1002900048190020481500204815002070B5064672
:1002A00000F01AFA056806F10B0020F00704B442CA
:1002B0009CBF002070BD2B466A68BAB11068A0428E
:1002C00010D304F1080188423CBF5068586007D33E
:1002D0005168101941601168091B01605860146071
:1002E000101D70BD13465268002AE7D121462846EA
:1002F00000F0FAF90028DED170BD70B50446051F84
:1003000000F0EAF90068002C14BF446870BD002CAE
:1003100018BFAC423CBF20466468F8D301680A1895
:10032000AA4218BF456003D12A68054611440160FE
:1003300028684119A1421CBF6C6070BD616869608A
:1003400021680844286070BD53EA020C00F06980FF
:100350002DE9F04B4FF00006002B1FBFB3FA83F5D9
:1003600003FA05F424FA05F65E4012BF1643B2FA0A
:1003700082F502FA05F4C5F120051EBF22FA05FC3C
:1003800044EA0C04203556EA044C4FEA144418BFE2
:10039000641C4FF000084FF00009904271EB030C11
:1003A00039D3002919BFB1FA81F701FA07F6B0FA7B
:1003B00080F700FA07F6C7F120071EBF20FA07FCF6
:1003C00046EA0C062037B6FBF4FCA7EB0507103F06
:1003D00007F01F0BCBF120060CFA0BFB2CFA06F6EC
:1003E00044BFB3460026202FA4BF5E464FF0000B4B
:1003F0005BEA060C08BF4FF0010B19EB0B09ABFBD6
:10040000027C48EB0608C01B06FB02CC0BFB03CCAE
:1004100071EB0C01C1E70B46024641464846BDE878
:10042000F08B13B54FF000004FF00001AFF30080E8
:10043000BDE81C40704700000FB41CB5074B06AA6E
:100440007B4469460090059800F011FC0020694645
:1004500000F020FC1CBC5DF814FB000051080000FB
:100460002DE9F0410646002410687529314616A58D
:1004700010D0AFF30080002802DA404213A507E055
:1004800031688A0701D512A502E0490704D511A5F4
:10049000012401E0AFF3008000210A2206F12407C5
:1004A00009E0B0FBF2FCB0FBF2F302FB1C003030C1
:1004B00078541846491C0028F3D123462A46304672
:1004C000BDE8F04100F065B9000000002D0000001B
:1004D0002B000000200000002DE9F0474FF0000A3B
:1004E00089460446C0F820A02046E16888470028D5
:1004F00076D0252806D0D4E901219047206A401CF7
:100500002062F1E7E168204600258847C4F81CA076
:1005100006460027C4F818A02A2E09D0304604F059
:10052000B9FC38B304EB8708303EC8F8186019E00E
:1005300059F8041B204604EB87029161E168884763
:10054000012F064618D1E069002820DA25F02005A1
:100550001DE0D8F8180000EB800006EB40003038B2
:10056000C8F818002046E1688847064604F092FC67
:100570000028EED1012F0AD02E2E08D12046E168A6
:1005800088477F1C0646022F45F02005C4DBA06982
:10059000002803DA404245F00105A061E80701D0D8
:1005A00025F01005B6B1A6F14100192802D8203671
:1005B00045F400654A463146204625604D46FFF722
:1005C00023FE58B1012806D0ED1D25F0070000F1EB
:1005D000080989E704E005F1040985E730468AE760
:1005E000206ABDE8F08740EA010310B59B070FD1F0
:1005F000042A0DD310C808C9121F9C42F8D020BA93
:1006000019BA884201D9012010BD4FF0FF3010BD4A
:100610001AB1D30703D0521C07E0002010BD10F818
:10062000013B11F8014B1B1B07D110F8013B11F8DE
:10063000014B1B1B01D1921EF1D1184610BD4FF08A
:1006400000020429C0F0128010F0030C00F01B809F
:10065000CCF1040CBCF1020F18BF00F8012BA8BFAD
:1006600020F8022BA1EB0C0100F00DB85FEAC17C71
:1006700024BF00F8012B00F8012B48BF00F8012B24
:1006800070474FF0000200B5134694469646203955
:1006900022BFA0E80C50A0E80C50B1F12001BFF43B
:1006A000F7AF090728BFA0E80C5048BF0CC05DF8A1
:1006B00004EB890028BF40F8042B08BF704748BFEF
:1006C00020F8022B11F0804F18BF00F8012B704763
:1006D000704770477047000000487047EC120020D8
:1006E000704770477047704738B504460A46002087
:1006F0006946AFF30080002808BF38BD0246009964
:10070000204600F0D9FA012038BD012000F0E6BBF8
:10071000F8B5AFF30080054600200C46102000BF5E
:100720000646A819A0420DD9324669460020AFF30B
:100730000080070008BF00F0D1FB0098A04218BF5E
:100740000546C419FFF7C8FF05600746F01D20F0F5
:1007500007004619284600F00AF8B44208BFF8BD61
:10076000A21B31463868BDE8F84000F0A5BA002168
:100770000160C0E9011070471020704710B500F00B
:1007800097FA006810BD10B5044600F091FA0460B5
:1007900010BD2DE9F0470D4699469246044600F1FA
:1007A00024080168880604D5E06921F01001216061
:1007B00000E00120A84201DD471B00E00027A169FD
:1007C0007A1902EB0900081AA0612078C00602D449
:1007D0002046AFF30080002608E0D4E901211AF892
:1007E00006009047206A401C761C20624E45F4DBD0
:1007F0002078C0060AD52046AFF3008006E0D4E991
:10080000012130209047206A401C2062381EA7F149
:100810000107F4DC07E0D4E9012118F8050090474E
:10082000206A401C2062281EA5F10105F3DC204649
:10083000AFF300802078000602D50220BDE8F087E3
:100840000120FBE770472DE9FF4F0C461E464FF095
:10085000FF378BB0D2E90001DDF860800A908A464C
:10086000C1F30A5505B93D46002108464FF0000086
:10087000BAF1000F00F4400005DA00EB80004FF4FD
:10088000400101EA50004FEA9059B9F1010F00DD33
:10089000B9460A9850EA4A000ED044F61050A5F224
:1008A000FF3545432F14B8F1000F1ED07542291EA5
:1008B0001EDDC9F100021CE0B8F1010F4FF000008D
:1008C00001D0302103E0F24305E02154401CB04246
:1008D000FBDB30460022002121540B99C1F808802F
:1008E000C1E900200FB0BDE8F08FBD1B6D1CDEE735
:1008F0004A4600DA694206A800F07EFA06AB93E8A1
:10090000070003AB83E8070050460A9900F0B0FBEC
:100910008DE80700A0F500501F3800900398002DC7
:100920000ADD42F21F014A460844002303A903904E
:10093000684600F019FE09E0A0F500504A461F384D
:10094000002303A90390684600F023FE8DE807000A
:100950000004000C03D04FF0FF30410800E01046C7
:10096000B8F1000F03D00022009215461EE0751E5C
:1009700005D400F0BBF9303262556D1EF9D5B3468F
:100980000122084302D000227F1C04E02078302896
:1009900001D100227F1E002A099784D01DE0112D6D
:1009A00007DA00F0A3F9303262556D1C50EA0102FB
:1009B000F5D1084302D00098C8B10EE00021681EAE
:1009C00005E0235C625C63542254401E491C814252
:1009D000F7DBAB46A81B401E0990002004F80B0073
:1009E0000B98099AC0F80880C0E9002B7AE7112615
:1009F0004FF0000857E72DE9F04F88460446D21D16
:100A000022F0070191B0D1E90001CDE90A0103F01C
:100A1000ADFE02460B98C00F01D02D2007E02068E4
:100A2000810701D52B2002E0202101EAC000032A22
:100A3000099001D0072A05DB03464146204600F015
:100A40009BF90BE12078800601D5E06900E00620E3
:100A5000B8F1650F814606D0B8F1660F18D0B8F12D
:100A6000670F70D131E00020B9F1110F009001DB68
:100A7000112301E009F101030AAA01A90CA8FFF75B
:100A8000E2FEDDE90C70002609F10105834647E02E
:100A900001204B4600904FF000470AAA01A90CA87C
:100AA000FFF7D1FEDDE90DB00C995D46002610B9C7
:100AB00009F101000D18B9EB050003D4C0F1FF36B0
:100AC00009F10105A5EB09002BE0B9F1010F01DAED
:100AD0004FF001090020B9F1110F0090484601DDE7
:100AE000112300E003460AAA01A90CA8FFF7ABFEF8
:100AF000DDE90C704D4600268346207800070AD4B5
:100B0000AB4500DA5D4601A8012D04DD411911F85D
:100B1000011C302907D04F4502DA17F1040F04DA1F
:100B2000012082460FE06D1EEEE7002F02DCED1B78
:100B30003E4403E0781CA84200DD7D1CB81B00F198
:100B4000010A4FF000472078000703D4AA4501DBD3
:100B50004FF0FF3A0021B7F1004F0DF143088DF837
:100B6000431024D002202B23002F01DA7F422D23B3
:100B70000A21021EA0F1010000DC5FB197FBF1FC2D
:100B800097FBF1F201FB1C7C17460CF1300C08F8C6
:100B900001CDEEE7A8F1010003702188090501D518
:100BA000452100E06521A0F1010800F8011C099829
:100BB0000FA9A1EB0807FF1D00B10120411901EBAE
:100BC000EA70A1693844081A401EA0612078C00666
:100BD00002D42046AFF30080099828B1D4E901215E
:100BE0009047206A401C20622078C00622D520460B
:100BF000AFF300801EE0002E04DBB34502DD01A848
:100C0000805D00E03020D4E901219047206A401C3B
:100C10002062761CAAF101005FEA000A0AD100F006
:100C200043F8C0680168405CD4E901219047206A1C
:100C3000401C2062281EA5F10105DCDC07E0D4E998
:100C4000012118F8010B9047206A401C2062381ED1
:100C5000A7F10107F3DC2046AFF30080032011B0B9
:100C600041E6000001694A1C02610878704700B53E
:100C70008FB0CDE901310021059105497944CDE9D5
:100C8000031011466846FFF727FC0FB000BD0000B7
:100C9000E5FFFFFF0A6802F8010B0A6070470000D9
:100CA00000487047E41200200048704704130020F9
:100CB00000487047E4120020034640688C46002834
:100CC00018BF88423CBF03464068F8D318681844F0
:100CD000884207D00CF1030020F00700001D411AE4
:100CE000521A0146081D0A60FFF707BB30B5B0F184
:100CF0000A024FEA900E71F100034EEA817EB0EBDA
:100D00000E0061EB91014FEA101E4EEA017E10EBDE
:100D10000E0041EB11114FEA102E4EEA016E10EB5E
:100D20000E0041EB11214FEA104E4EEA014E10EB3E
:100D30000E0041EB1141401841F100014FEAD00093
:100D400040EA41704FEAD10110EB80054FEA81047F
:100D500044EA907444EB01046D1944EB0404521B03
:100D6000A3414FF0000348BF0A3200D530BD401CFC
:100D700041F1000130BD00002DE9F0411F4604465D
:100D800003260168072A01F4006004DB08B116A5F8
:100D900005E016A503E008B115A500E015A521F0B2
:100DA00010002060A069C01EA0610FB1401EA061AC
:100DB0002046AFF300804FB1D4E901213846904777
:100DC000206A401C2062C01C206206E0206AFAE70C
:100DD000D4E9012115F8010B9047761EF8D2204680
:100DE000AFF30080BDE8F0814E414E006E616E00B1
:100DF000494E4600696E66002DE9F0478146164669
:100E00008AB0354878440DC88DE80D0032487844E2
:100E1000801C03AC0DC884E80D0041F69B300844EB
:100E2000372190FBF1F290FBF1F5A5F1800501FB74
:100E300012041B3C02D56442012000E00020DFF8D0
:100E400098A080460027FA44AAF1BE0A0EE0E00707
:100E50000AD03246684607EB470101230AEB8101BD
:100E600000F097FB8DE8070064107F1C002CEED18A
:100E7000194F7F44AE3F19E0E80715D007EB041087
:100E80000DF1180A90E80E008AE80E00C068F042E2
:100E900001D1981908903246012306A903A800F051
:100EA00078FB03AB83E807006D10641C002DE3D1D1
:100EB0004FF0010332466946B8F1000F03A802D093
:100EC00000F052FB01E000F064FBC9E90001C9F841
:100ED00008200AB0BDE8F0879056000010B500F079
:100EE00039F8BDE8104000F02FB870477546FFF79D
:100EF000D7FEAE4605006946534620F007008546FA
:100F000018B020B5FFF7B8F9BDE820404FF0000653
:100F10004FF000074FF000084FF0000B21F00701E1
:100F2000AC46ACE8C009ACE8C009ACE8C009ACE824
:100F3000C0098D46704710B50446AFF300802046C7
:100F4000BDE81040FFF783B9002801D000F06AB86F
:100F50007047000010B5012805D0002103A000F063
:100F600067F8012010BD09A1F8E700005349475276
:100F7000544D454D3A204F7574206F662068656169
:100F800070206D656D6F7279000000003A20486531
:100F90006170206D656D6F727920636F727275700C
:100FA000746564004FF0013C50F8042B51F8043B89
:100FB0009A4221D1A2EB0C03934313EACC1317D12D
:100FC00050F8042B51F8043B9A4215D1A2EB0C03C4
:100FD000934313EACC130BD150F8042B51F8043B84
:100FE0009A4209D1A2EB0C03934313EACC13DBD052
:100FF0004FF00000704700BFD01A01BAB1FA81F17A
:1010000001F0180122FA01F0CB40C1F12001DBB25E
:10101000C0B2C01A2CFA01F3D11A914311EAC311DC
:10102000E6D1704701491820ABBEFEE7260002005A
:1010300070B505460C460A2000E06D1C00F011F862
:1010400035B128780028F8D102E0641C00F009F8D6
:1010500014B120780028F8D1BDE870400A20AFF321
:10106000008008B569468DF800000320ABBE08BDBE
:101070005FEA400C08BF91F0000F4FEA8C234FEA63
:10108000C12243EA51514FEA1C5018BF00F5F0400D
:101090004FEA300018BF41F000415FEA6C5C00F09D
:1010A0002980BCF1FF3F08BF40F080407047130C1F
:1010B00006BF12044FF0100C4FF0000C130E04BFCB
:1010C00012020CF1080C130F04BF12010CF1040CF6
:1010D000930F04BF92000CF1020CD30F04BF520017
:1010E0000CF1010C11464FF00002A0F11F00A0EB23
:1010F0000C00704711F0004F08BF704731F00041FD
:101100003FF4D5AF0B0C06BF09044FF0100C4FF0A5
:10111000000C0B0E04BF09020CF1080C0B0F04BFEE
:1011200009010CF1040C8B0F04BF89000CF1020CB7
:10113000CB0F04BF49000CF1010CCCF12003A0EB54
:101140000C0022FA03F302FA0CF241EA030100F167
:101150000100704720F07F4C80EA030023F07F47B6
:10116000ACEB070303F57C5300F0004003F1FF03F1
:101170002DE980494FEA154B09B44FEA144325EA9B
:101180000B4E24EA03480FF2042606EB1327490806
:101190003E785FEA320203FB0667C7F5000707FBEC
:1011A00006F64FEA54374FEAD64606F1020607FB29
:1011B000066CCCF1005C4FEA1C472CEA074C07FB9D
:1011C00006F40CFB06F504EB15464FEA961634BF01
:1011D00000204FF000404FEAD13706FB07FC4FEAF2
:1011E0001C4C0CFB0BF7D21B03FB0CF761EB07014C
:1011F0000CFB0EF7B0EB074072EB17420CFB08F745
:1012000034BFA2EB0742B2EB074261EB17414FEA52
:101210000C444FEA910706FB07FC4FEA1C4C0CFB01
:101220000BF7B0EBC74072EB573203FB0CF734BF40
:10123000A2EBC742B2EBC74261EB57310CFB0EF792
:10124000B0EBC70072EB57720CFB08F734BFA2EB90
:10125000C702B2EBC70261EB5771039F4FEA81618E
:1012600041EA921104EBCC044FEAD1374FEA826293
:1012700006FB07FC42EA90124FEA80604FEA1C4CE2
:101280000CFB0BF7D21B03FB0CF761EB07010CFB0C
:101290000EF7B0EB074072EB17420CFB08F734BFB8
:1012A000A2EB0742B2EB074261EB17414FEA8C55C4
:1012B0004FEA910704EB9C2406FB07FC4FEA1C4C09
:1012C0000CFB0BF7B0EBC74072EB573203FB0CF78C
:1012D00034BFA2EBC742B2EBC74261EB57310CFB04
:1012E0000EF7B0EBC70072EB57720CFB08F734BF78
:1012F000A2EBC702B2EBC70261EB577115EB4C25AD
:101300004FEA816141EA92114FEA82624FEAD13796
:1013100042EA901206FB07FC44F100044FEA8060A9
:101320004FEA1C4C0CFB0BF7D21B03FB0CF761EBD9
:1013300007010CFB0EF7B0EB074072EB17420CFBFA
:1013400008F734BFA2EB0742B2EB074261EB17414B
:1013500015EB1C154FEA813141EA92414FEA823286
:1013600042EA90424FEA80304FEA0C7644F10004A2
:1013700048EA03434EEA0B484FF0000EB2EB080C6C
:1013800071EB030724BF624639464EEB0E0E4FF059
:10139000000B0018524149414BEB0B0BB2EB080C10
:1013A00071EB03077BF1000B24BF624639464EEB1D
:1013B0000E0E4FF0000B0018524149414BEB0B0B46
:1013C000B2EB080C71EB03077BF1000B24BF624604
:1013D00039464EEB0E0E51EA020718BF46F00106E1
:1013E00016EB0E7655F1000254F1000103D5BDE86D
:1013F0008901BDE80088BDE88901BDE80048B6194B
:10140000524141EB0101A3F10103704780807F7ECF
:101410007D7C7B7A7978777676757473727171706A
:101420006F6E6E6D6C6C6B6A6A696868676666651C
:101430006464636362616160605F5F5E5E5D5D5CAA
:101440005C5B5B5A5A59595858575756565555551B
:101450005454535352525251515050504F4F4F4E7B
:101460004E4D4D4D4C4C4C4B4B4B4A4A4A494949C9
:10147000484848474747474646464545454444440B
:10148000444343434342424242414141002B9C4634
:1014900030D477002BD01CB54FEA370703B44FF098
:1014A00010004FF01001BAF1000F06D0BCF1000F90
:1014B000DCBF40F0080040F008014FF000000FBC16
:1014C000BDE810400BF1010BBBF1010F08BF5FEA53
:1014D000170722BF12F1010211F101014FF0004183
:1014E00043F1000300F0004043EA00007047F9D3E5
:1014F0005708D0E746EA064613F1400F4FEA164672
:101500001FDD13F1200FDFBF16430A4600212033F1
:101510005B42BED0C3F1200746EA064602FA07F74F
:101520004FEA164646EA0706C3F1200722FA03F2FD
:1015300001FA07F721FA03F14FF0000342EA07022C
:10154000A7E746EA020646EA06464FEA164646EA94
:101550000106BCBF46EA0646360C4FF000034FF0CA
:1015600000024FF0000194E72DE9804C9A46934623
:1015700070B491E8380007C831EA400C48BF34EA3B
:10158000430C03D5FFF7E6FDFFF780FFF0BCBDE895
:10159000008C2DE9804C9A46934670B491E838004F
:1015A00007C810F0804F08BF13F0804F03D100F040
:1015B00005F8FFF76BFFF0BCBDE8008C20F07F471B
:1015C00080EA030023F07F4C07EB0C03A3F57C5368
:1015D00000F00040A3F1FE0392F0000F00F0B38092
:1015E00095F0000F00F077802DE901494FEA114096
:1015F0004FEA144621EA004800FB06FC24EA0647AD
:1016000008FB06F607FB08F800FB07F718EB06488F
:101610004CEB164C4FEA124B18EB07484FEA1546B5
:101620004CEB174022EA0B4E0BFB06FC25EA064763
:101630000EFB06F607FB0EFE0BFB07F71EEB064E36
:101640004CEB164C4FF000061EEB074E4CEB174BC5
:1016500018EB0B0840F1000018EB0E0B58EB0008DC
:1016600040F100008F1A4FF000013CBFC943661BD8
:1016700014BFB5EB040C00213CBFC943F61B4FEA75
:1016800017444EEA8E0E27EA04454FEA1C4704FB36
:1016900007622CEA074C05FB07F70CFB05F604FB79
:1016A0000CFC16EB074642EB174216EB0C4642EBDE
:1016B0001C421BEB060658EB0202414146EA9E061D
:1016C00001D5BDE80189B619524141EB0101A3F1F1
:1016D0000103BDE801894FEA14454FEA114724EAA6
:1016E000054621EA074C05FB07F406FB07F70CFB50
:1016F00006F105FB0CFC11EB074144EB17444FEAE4
:10170000124711EB0C4144EB1C4422EA074C05FB49
:1017100007F206FB07F70CFB06F605FB0CFC16EBC5
:10172000074642EB174216EB0C4642EB1C456A1883
:1017300054F1000148BF7047B619524141EB010115
:10174000A3F10103704795F0000F37D04FEA114223
:101750004FEA144721EA024624EA074C02FB07F14C
:1017600006FB07F70CFB06F402FB0CFC14EB07442A
:1017700041EB17414FEA154714EB0C4441EB1C4178
:1017800025EA074C02FB07F506FB07F70CFB06F6FC
:1017900002FB0CFC16EB074645EB174516EB0C4617
:1017A00045EB1C42121951F1000148BF7047B619B0
:1017B000524141EB0101A3F1010370474FEA144587
:1017C0004FEA114724EA054621EA074C05FB07F1D9
:1017D00006FB07F70CFB06F24FF0000605FB0CFCBE
:1017E00012EB074241EB174112EB0C4251EB1C414B
:1017F00048BF7047921841EB0101A3F10103704704
:10180000FEE770477CB500F0B5FC134C6168401AE8
:101810000F2805D9A068401CA06000F0ABFC6060F8
:10182000A0687F2801DD0020A060BF200125CDE950
:10183000005000213F230846A26800F09FF8AF2027
:10184000CDE90050A0683F23C0F17F0200217F2036
:1018500000F094F87CBD0000000000207FB500F08F
:1018600089FC174CE168401A1E280AD92078002804
:10187000206901D0401C00E0401E206100F07AFC8D
:10188000E060226901251F2A02DD0020207002E0AD
:10189000002A00DA25700BA102A8FEF7CDFDF0208A
:1018A000CDE9005001231F214020226900F0A2FA57
:1018B0000021102302AA0846009500F057FE7FBDC4
:1018C00000000020723D25640000000008B50120E2
:1018D0000090102302A21821002000F047FE08BD4E
:1018E000E9A9B1E58AA8E78988E69CAC3A76312E69
:1018F000332E4D0072B6FEE702460020014606E098
:101900007F2B02D9801CC91C01E0401C491C535C80
:10191000002BF5D17047000070B5002055230B490E
:10192000AA224FF480640B540D18801C6A70A042E8
:10193000F9DB074C0120207000F048FE01F060FD4B
:1019400000F00EF80220207070BD00003801002069
:101950005800002038B5049C009401F0D3FD38BD38
:101960000148007801F062BC5800002010B501F079
:1019700041FDBDE81040AD2001F058BC2DE9F04F0D
:1019800080462DED088B81B001261D461746DDE906
:1019900012A00C46AF2800D103264046B84506D019
:1019A0000CE052462146404600F09CF83444AC42DC
:1019B000F7DD01B0BDEC088BBDE8F08FAC420AD179
:1019C000054605E052462146284600F08BF835448E
:1019D000BD42F7DDEDE7A2EB080003F0F6FC81461F
:1019E00041EC180B281B009103F0EFFC8B464BECED
:1019F000100B054653EC182B51EC100B03F05EFB5B
:101A00009FED368B41EC1A0BB0EE489AF0EE689AD7
:101A100027E0204603F0D9FC41EC1B0B53EC192BBB
:101A200051EC1A0B03F024FD53EC1B2B03F092FA3C
:101A300003F09CFC0746404603F0C7FC53EC192B0F
:101A400003F088FA03F092FC5246394600F04AF857
:101A5000304603F0BAFC53EC192B03F07BFA41EC4F
:101A6000190B009953EC192B41EC109B51EC100B06
:101A700003F0FCFD28D8CCE7204603F0A6FC53EC8D
:101A8000182B03F067FA03F071FC0746404603F099
:101A90009CFC41EC190B53EC1A2B51EC180B03F086
:101AA0000DFB53EC192B03F055FA03F05FFC524683
:101AB000394600F017F8304603F087FC53EC182B3A
:101AC00003F048FA41EC180B4BEC105B53EC182B6D
:101AD00051EC100B03F0CAFDCED96AE700000000FC
:101AE00000000000014B1B7801F0C2BB5800002031
:101AF0002DE9FF4F93462DED028B83B08946149A52
:101B0000B0F1000A00DC002080460AEB0B06701CD6
:101B1000802801DA761C00E08026B9F1000001DDA2
:101B2000044600E0002409EB0B00411C402901DAC7
:101B3000401C00E040200090F02A254669D005E1D5
:101B4000A8EB0400471961E0AAEB070000EE100AB9
:101B5000F0EE000AB8EEC00A02F044FEB0EE408A91
:101B6000A9EB050000EE100AF0EE000AB8EEC00A7C
:101B700002F038FE38EE000AF0EE000AB0EEC08A3D
:101B800000EE10BAB8EEC00A02F02CFEB4EEC08A25
:101B9000F1EE10FA39D81298012806D002280ED09A
:101BA000032817D0042830D121E0C5EB4401384682
:101BB000139AFFF797FF04EB0800C11B1FE0C5EB6A
:101BC0004401C7EB4800139AFFF78CFF04EB0800B1
:101BD000C11B08E0C7EB48002946139AFFF782FFB4
:101BE000E119A1EB080108EB0400401B0AE02946BB
:101BF0003846139AFFF776FFE119A1EB080108EBCD
:101C00000500001B139AFFF76DFF7F1CB7429BDB9B
:101C10006D1C0098854293DB03B0BDEC028BBDE8E0
:101C2000FF8F00BFA8EB040047198BE0AAEB070069
:101C300000EE100AF0EE000A0290B8EEC00A02F0C0
:101C4000D1FDA9EB050000EE900AB0EE408A0190AC
:101C5000B8EEE00AF0EE000A02F0C4FD38EE000A29
:101C6000F0EE000AB0EEC08A00EE10BAB8EEC00A7C
:101C700002F0B8FDB4EEC08AF1EE10FA61D8029815
:101C8000F0EE000A00EE100AB8EEC00A02F0AAFD5B
:101C90000198B0EE408A00EE100AF0EE000AB8EEAD
:101CA000C00A02F09FFD38EE000A0899F0EE000A23
:101CB000ABEB0100B0EEC08A00EE100AB8EEC00A2D
:101CC00002F090FDB4EEC08AF1EE10FA39DB129802
:101CD000012806D002280ED0032817D0042830D1BE
:101CE00021E0C5EB44013846139AFFF7FBFE04EBF5
:101CF0000800C11B1FE0C5EB4401C7EB4800139A65
:101D0000FFF7F0FE04EB0800C11B08E0C7EB48003A
:101D10002946139AFFF7E6FEE119A1EB080108EB4B
:101D20000400401B0AE029463846139AFFF7DAFE02
:101D3000E119A1EB080108EB0500001B139AFFF75E
:101D4000D1FE7F1CB742FFF671AF6D1C0098854233
:101D5000FFF668AF60E72DE9FC479042DDE90A7CB9
:101D600001DA044600E01446A146994201DA0E4623
:101D700000E01E46904200DC10460446994200DC1A
:101D800019460D46BCF10F0F01D0B0462FE04FF0C1
:101D9000BF08CDE900783346224619464846FFF78A
:101DA000EDFDCDE900782B46224619464846FFF75F
:101DB000E5FDCDE900784A462B4631461046FFF74F
:101DC000DDFDCDE9007822462B4631461046FFF76F
:101DD000D5FDBDE8FC874E4605E03A464146304613
:101DE000FFF780FE761CA642F7DD08F10108A84542
:101DF000F1DDEEE72DE9FF4F89462DED028B85B031
:101E000093461599B0F1000A01DD054600E0002572
:101E10000AEB0B00421C802A01DA401C00E0802003
:101E20008046B9F1000001DD044600E0002409EB22
:101E30000B00421C402A01DA401C00E040200290C6
:101E4000F029264663D0F7E0281B87195CE000BF25
:101E5000AAEB070000EE100AF0EE000AB8EEC00A86
:101E600002F0C0FCB0EE408AA9EB060000EE100ABA
:101E7000F0EE000AB8EEC00A02F0B4FC38EE000A38
:101E8000F0EE000AB0EEC08A00EE10BAB8EEC00A5A
:101E900002F0A8FCB4EEC08AF1EE10FA33D8314655
:101EA0003846149AFFF71EFEE019411BA819001BC3
:101EB00001910490149AFFF715FEC6EB44010391BB
:101EC0003846149AFFF70EFE6019C11B0091149A50
:101ED0000498FFF707FEC7EB450003990390149A97
:101EE000FFF700FE2819801B00990090149AFFF755
:101EF000F9FD3146149A0398FFF7F4FDDDE900017E
:101F0000149AFFF7EFFD7F1C4745A1DB761C029872
:101F1000864299DB05B0BDEC028BBDE8FF8F281B24
:101F2000871985E0AAEB070000EE100AF0EE000A20
:101F30000190B8EEC00A02F055FCA9EB060000EED5
:101F4000900AB0EE408A0090B8EEE00AF0EE000A87
:101F500002F048FC38EE000AF0EE000AB0EEC08A4B
:101F600000EE10BAB8EEC00A02F03CFCB4EEC08A33
:101F7000F1EE10FA5BD80198F0EE000A00EE100ABC
:101F8000B8EEC00A02F02EFC0098B0EE408A00EED7
:101F9000100AF0EE000AB8EEC00A02F023FC38EE98
:101FA000000A0A99F0EE000AABEB0100B0EEC08A1D
:101FB00000EE100AB8EEC00A02F014FCB4EEC08ABB
:101FC000F1EE10FA33DB31463846149AFFF78AFDFA
:101FD000E019411BA819001B01910490149AFFF706
:101FE00081FDC6EB440103913846149AFFF77AFD50
:101FF0006019C11B0091149A0498FFF773FDC7EB99
:10200000450003990390149AFFF76CFD2819801B73
:1020100000990090149AFFF765FD3146149A0398D1
:10202000FFF760FDDDE90001149AFFF75BFD7F1CFF
:102030004745FFF677AF761C02988642FFF66FAFF2
:1020400068E72DE9F04F87B09042DDE91076DDF8C2
:1020500048A001DA044600E014460494994201DAEB
:102060000C4600E01C460594904200DC10460390AC
:10207000994200DC19468B460499401AB0EB470F91
:1020800002DA01EB47000390ABEB04002146B0EB12
:10209000470F01DA01EB470B02210091CDE9016AFC
:1020A00004983C44A0463844814601233A464146C0
:1020B000FFF71EFD01218DE8420403982146C51B50
:1020C00001233A462846FFF713FD03218DE8420419
:1020D000ABEB0704484601233A462146FFF708FDCB
:1020E00004218DE8420401233A4621462846FFF7A1
:1020F000FFFCBAF10F0F1BD0F027CDE90067DDE937
:10210000032023464146FFF726FECDE900674346FC
:102110002A4648460599FFF71EFE2A4621464846AC
:102120005B46CDE90067FFF716FE07B0BDE8F08F0C
:10213000BF27CDE90067059B2A4648461946FFF7A9
:102140001DFC5B462A4648461946CDE90067FFF765
:1021500015FC049A23464146CDE900671046FFF777
:102160000DFC039A23464146CDE900671046FFF770
:1021700005FCDAE700F040BB08B501200090102311
:1021800002A21821002000F0F1F908BDE59BBEE590
:10219000BDA2E5BA93E78988E69CAC3A76312E3148
:1021A0000000000010B501F043F9BDE81040AD207B
:1021B00001F03CB82DE9FF4F85B093468946DDE933
:1021C00015A1DDE91342129D98461CB102EB0A00ED
:1021D000884203DC012009B0BDE8F08F684301FBB1
:1021E00005F3CDE90003A0EB080720460026D0E95F
:1021F00004C3BCF1000F00D06046914207DA002210
:1022000001E08068521C8A42FBDB006809E00AEBAF
:102210000200884202DC0BE0DB68521C8A42FBDBD6
:102220001868FFF769FB684300EBD0704FEA600A5B
:10223000294A5146019800F05DF80098DFF898A00F
:10224000404511DDDAF8001005EBD57201EB6202B2
:1022500008EBD870B2EB600601D5002602E0BE4262
:1022600000DD3E468F1B01E0DAF800701798102859
:1022700001D0B8B12EE01898CDE90054CDE9026044
:102280000598ABF1100228444346494600F0F2F8A5
:102290000120009009EB07012B4610A2059800F0E1
:1022A00065F917E01898CDE90054CDE902605A4667
:1022B00043464946059800F0DDF80120009009EBFF
:1022C0000500C319DAF8041005980A1809EB07018C
:1022D000FFF740FB00207EE7800000202D3E00003D
:1022E00010B5029CE41A4443501AB4FBF0F01844B1
:1022F00010BD00002DE9F04116462DED0C8B074670
:10230000884600F079FA534C534D6168401AA96928
:1023100088427CD93068381A03F057F841EC190B21
:1023200094ED020B53EC192B51EC100B02F012FE42
:1023300041EC1C0B51EC190B84ED02CB94ED040B1A
:1023400053EC102B03F0C8F941EC1D0B7168A8EB9E
:10235000010003F03AF841EC180B94ED060B53EC36
:10236000182B51EC100B02F0F5FD41EC1A0B51EC5F
:10237000180B84ED06AB94ED080B53EC102B03F017
:10238000ABF995ED040B41EC1B0B53EC1D2B51EC01
:10239000100B03F06DF895ED020B41EC1D0B53ECA7
:1023A0001C2B51EC100B03F063F895ED000B41EC86
:1023B0001C0B53EC192B51EC100B03F059F853EC98
:1023C0001C2B02F0C7FD53EC1D2B02F0C3FD95ED55
:1023D000081B53EC112B03F04BF802F0C7FF3060E1
:1023E00095ED040B53EC1B2B51EC100B03F040F854
:1023F00095ED020B41EC1B0B53EC1A2B51EC100B1F
:1024000003F036F841EC1A0B95ED000B00E01DE0EF
:1024100053EC182B51EC100B03F02AF853EC1A2B49
:1024200002F098FD53EC1B2B02F094FD95ED081B78
:1024300053EC112B03F01CF802F098FF706084ED50
:10244000049B84ED088B00F0D7F96060BDEC0C8B29
:10245000BDE8F08158000020380500207CB5044D0F
:10246000069C2D78CDE9004501F068FA7CBD00009E
:10247000580000202DE9FF4F83B03B4ADDE9109062
:10248000DDE912BA0E4600214769117004699846C9
:102490000D46D4B105FB0961CDF800A0A1EB0B01FD
:1024A0004B462268039800F061F8A4686D1CF0E7C1
:1024B00005FB0961CDF800A0A1EB0B014B463A6882
:1024C000039800F053F8FF686D1C002FF0D105FB56
:1024D00009F598FBF5F20599039806EB08094418ED
:1024E000012A28DA08FB08F090FBF5F08719002391
:1024F0002A4619465846CDF80080FFF7F1FE0744FA
:1025000000232A4619465846CDF80080FFF7E8FE1A
:102510008119BF200125CDE90050224610463B46D7
:10252000FFF72CFAAF20CDE9005022464B4610466B
:102530003146FFF723FA0C4D0120F0212870CDE938
:1025400000A14B46224631460398FFF704FC00F0F9
:1025500057FFFFF705FA00202870FFF701FA022065
:10256000287007B0BDE8F08F580000202DE9F84F23
:102570001E4617468A4681460446002503EBD67858
:10258000DDF828B01DE07A19334651462046CDF8D3
:1025900000B0FFF763FF785D7F2802D93444ED1C5B
:1025A00002E004EB68046D1C785D7F2802D204EB26
:1025B000680002E005D904EB0600802801DD4C46E6
:1025C000B244785D0028DED1BDE8F88F024801787A
:1025D000024801F06DBB00005800002038010020C7
:1025E00070B5044600F008F90546601C02D00448A6
:1025F0000078044400F000F9401BA042FAD370BDFB
:102600002C0000202DE9F84FDFF8B8A100220124AA
:1026100003254FF00F090AF1040BAAF1040E00BFC5
:102620000B6804FA02F63340B34273D10F7907F016
:102630000307012F01D0022F16D187684FEA420805
:1026400005FA08FC27EA0C07D1F80CC00CFA08FCC4
:102650004CEA070CC0F808C04768B7430E79C6F3C8
:10266000001696403E4346600E79F643B6070DD0FD
:10267000C768560005FA06FC27EA0C07D1F808C01F
:102680000CFA06FC4CEA070CC0F80CC00E7906F0F8
:102690000306022E10D1D60800EB8608D8F8206079
:1026A00057074FEAD76C09FA0CF7BE430F6907FAD0
:1026B0000CF73743C8F8207006684FEA420C05FA59
:1026C0000CF7BE430F7907F0030707FA0CF73743FF
:1026D00007604E6816F4403F6DD03B4E376847F4B4
:1026E00080473760366822F0030706F4804600967C
:1026F000364E07EB060CDCF8086897073F0F09FA1F
:1027000007F826EA0806DFF8C880404503D14FF0F5
:1027100000081EE04FE0DFF8BC80404502D14FF0DA
:10272000010816E0DFF8B080404502D14FF0020802
:102730000FE0DFF8A880404502D14FF0030808E021
:10274000DFF89C80404502D14FF0040801E04FF0D3
:10275000070808FA07F848EA0608CCF80888DAF803
:1027600000605746D1F804C09E435FEACC2C00D5E8
:102770001E433E60DBF800605F46D1F804C09E4314
:102780005FEA8C2C00D51E433E60DEF80060774681
:10279000D1F804C09E435FEA8C3C00D51E433E60E6
:1027A000084F083F3E68D1F804C09E435FEACC3C26
:1027B00000D51E433E60521C102AFFF431AFBDE825
:1027C000F88F0000083C01404438024000300140CE
:1027D000000002400004024000080240000C0240D9
:1027E000001002400069084000D0012070470AB183
:1027F000816170470904FBE7014880687047000069
:102800002C000020024881680278114481607047E2
:102810002C0000200B4810B5016841F400710160E4
:10282000016841F480610160016841F480710160D8
:10283000032000F061F80F2000F006F800F024F803
:10284000002010BD003C024070B50D4D04464FF411
:102850007A712878B1FBF0F00A490968B1FBF0F011
:1028600000F025FC48B9102C07D200222146501E4A
:1028700000F022F800206C6070BD012070BD0000E7
:102880002C000020380000200A4808B5016841F4F7
:1028900080410160006800F4804000900548001FFE
:1028A000016841F080510160006800F080500090A4
:1028B00008BD000044380240F0B40E4B1B680C46C3
:1028C000C3F30223C3F10705042D00D90425191D04
:1028D000072901D2002300E0DB1E012606FA05F1DC
:1028E000491E214099409E40761E16403143F0BC5F
:1028F00001F067BF0CED00E0064900F00702086830
:102900004FF6FF03184040EA0220034A10430860D4
:10291000704700000CED00E00000FA052DE9F047DB
:102920000E46050065D0DFF81481D8F80000F7B234
:1029300000F00700B04207D288F80070D8F8000015
:1029400000F00700B04254D128683D4C810712D5F1
:10295000400703D5206840F4E05020602878000745
:1029600003D5206840F4604020602068A96820F00A
:10297000F000084320602878C0072DD030496868EF
:102980000839012812D0022813D0032811D0096871
:10299000890700292DDA216821F003010143216014
:1029A000FFF72AFF814641F2883A0EE00968890361
:1029B000EFE709688901ECE7FFF71EFFA0EB0901CB
:1029C000514502D90320BDE8F0872068696800F00E
:1029D0000C00B0EB810FEFD1D8F80010404601F0A9
:1029E0000701B14207D90770006800F00700B04244
:1029F00001D00120E7E72878400705D52068E9687D
:102A000020F4E050084320602878000706D52068AD
:102A1000296920F4604040EAC100206000F018F805
:102A20002168084AC1F30311515CC8400649086097
:102A300006480068FFF708FF0020C4E7003C02409A
:102A400008380240BA580008380000203000002042
:102A5000154810B5006810F00C02144813D041104E
:102A6000042A0FD0082A0ED10F4C241F2268236895
:102A700002F03F025B0207D52068C0F38810A0FB7C
:102A8000010106E0084610BD2168C1F38811A1FBD1
:102A900000010023FDF758FC2168C1F30141491CE6
:102AA0004900B0FBF1F010BD083802400024F400EA
:102AB0002DE9F84F04006ED02078DFF84C93C00762
:102AC000A9F104054AD009F104000168C1F38101AC
:102AD000012908D00068C0F3810002280AD1D9F882
:102AE0000000400206D52868800337D560680028BA
:102AF000E1D033E06068B0F5803F10D0B0F5A02F92
:102B0000286810D020F480302860286820F48020C5
:102B100028606068A8B1FFF76FFE06460DE02868E0
:102B200040F48030F4E740F480202860F7E700BFED
:102B3000FFF762FE801B642873D828688003F7D5EE
:102B40000CE0FFF759FE064605E000BFFFF754FE14
:102B5000801B6428F0D828688003F7D42078DFF839
:102B6000AC8280074FF0000A3ED5A748001D0168DF
:102B700011F00C0F08D00068C0F3810002280BD1BF
:102B8000D9F80000400207D42868800716D5E0680D
:102B9000012800D112E033E1E068B8B10120C8F8A3
:102BA0000000FFF729FE064605E000BFFFF724FE00
:102BB000801B0228C0D828688007F7D528682169BB
:102BC00020F0F80040EAC10028600DE0C8F800A03D
:102BD000FFF712FE064604E0FFF70EFE801B0228F8
:102BE0001FD828688007F7D42078000722D5864FA1
:102BF00087486169703771B101210160FFF7FCFD01
:102C0000064604E0FFF7F8FD801B022809D8386863
:102C10008007F7D50EE0C0F800A0FFF7EDFD0646EF
:102C200005E082E0FFF7E8FD801B02287DD83868C8
:102C30008007F7D42078400768D5DFF8CCB10027AB
:102C40000BF13C0BDBF80000C0000BD4DBF80010EC
:102C500041F08051CBF80010DBF80000012700F0B4
:102C6000805000906B4E3068C00510D4306840F43E
:102C700080703060FFF7C0FD009005E0FFF7BCFDFD
:102C80000099401A022850D83068C005F6D55E4E2B
:102C9000A0686C3601280FD00528306810D020F0CD
:102CA00001003060306820F004003060A068B8B1E6
:102CB000FFF7A2FD00900FE0306840F00100F4E75C
:102CC00040F004003060F7E7FFF796FD0099411AE5
:102CD00041F28830814266D830688007F4D50EE032
:102CE000FFF78AFD009007E0FFF786FD0099411A83
:102CF00041F28830814256D830688007F4D42FB131
:102D0000DBF8001021F08051CBF80010A069C8B3A7
:102D10003D49091D0968C1F3810102294AD00228F1
:102D2000504607D0C8F8600000E03CE0FFF764FDC3
:102D300004463BE04746C8F86000FFF75DFD0646E5
:102D400005E000BFFFF758FD801B02282BD828683C
:102D50008001F7D4D4E907010843A16A2E4A490843
:102D600002EB0141626A41EA8211084394F82C1097
:102D700040EA0161C9F8001001203866FFF73CFD08
:102D8000044606E03EE000BFFFF736FD001B0228C8
:102D900009D828688001F7D534E000BFFFF72CFD83
:102DA000001B022802D90320BDE8F88F28688001A3
:102DB000F4D427E00128F7D0D9F80000E26900F444
:102DC000800191421CD1226A00F03F01914217D14B
:102DD00047F6C071626A0140B1EB821F10D1A26A4E
:102DE0004FF0FF3300F4403103EB5202B1EB024FDE
:102DF00006D194F82C1000F07060B0EB016F01D098
:102E00000120D1E70020CFE704380240000047420C
:102E1000800E4742007000400000FFFF70B50400C4
:102E200009D0606A002540B125616561A56294F80A
:102E3000510040B10CE0012070BD6068B0F5827FA8
:102E4000F4D0E561F2E784F85050204600F044F8F1
:102E5000022084F851002068016821F040010160DF
:102E6000A088218900F4827001F404410843A189FB
:102E700001F400610843217C01F002010843217D37
:102E800001F001010843218B01F400710843217F07
:102E900001F03801084394F8201001F08001084344
:102EA000218D01F40051084321680860A0690421C4
:102EB00001EA104094F8241001F010010843216841
:102EC00048602068C16921F40061C1616565012025
:102ED00084F85100002070BD10B586B0044614215E
:102EE0006846FDF7CEFB13492068884220D112487E
:102EF0000021026842F480520260006800F48050B1
:102F000005900D481438026842F001020260006822
:102F100000F001000590E02000900220CDE90101C1
:102F2000032003900520049069460448FFF76AFBDC
:102F300006B010BD0030014044380240000002409D
:102F40002DE9F84F044690F85000002698461546A3
:102F50008A4601280CD0012784F85070FFF74CFCFA
:102F6000814694F85100B346012804D002269AE025
:102F70000220BDE8F88FBAF1000F6FD0002D6DD0A0
:102F8000032084F85100C4F854B0C4F830A0A586DA
:102F9000E586C4F838B0A4F83CB0A4F83EB0C4F854
:102FA00044B0C4F840B0A068B0F5004F09D1206823
:102FB000016821F0400101602068016841F480410E
:102FC000016020680168490603D4016841F04001AE
:102FD0000160E068B0F5006F606803D058B3012D60
:102FE00029D049E008B1012D1FD1206B216800884C
:102FF000C86006E020688168890709D5216B0988C7
:10300000C160206B801C2063E08E401EE0860CE0D7
:10301000FFF7F2FBA0EB0901414503D3B8F1FF3FF5
:1030200003D006E0B8F1000F03D0E08E0028E1D114
:1030300025E0032635E0206B21680078087306E060
:103040002068816889070AD5216B09780173206B94
:10305000401C2063E08E401EE0860DE01FE0FFF77D
:10306000CBFBA0EB0901414503D3B8F1FF3F03D0EF
:10307000DFE7B8F1000FDCD0E08E0028E0D14A464F
:103080004146204600F032FF08B120206065A0686C
:1030900018B92068C16880680090606D08B1012689
:1030A00001E084F8517084F850B0304661E710B503
:1030B000401EB0F1807F01D3012010BD4FF0E0240D
:1030C00060610F21601701F07CFB0020A0610720E8
:1030D0002061002010BDFEE7F0B587B004460D4624
:1030E0000C9F0E9E0094CDE90153CDE903724FF081
:1030F000100C00EBD470CDE905C64010611CC4F182
:103100003F03C0F17F02FFF755F8009600212346E8
:1031100008462A68FFF72AFA07B0F0BD08B5012073
:103120000090102302A218210020FFF71FFA08BD0B
:1031300053584755492076312E3100002DE9F04192
:1031400086B014216846FDF79CFA234800240168E4
:1031500041F080010160016801F080010591016882
:1031600041F001010160016801F001010591016870
:1031700041F0040101600068184F00F00400059060
:10318000002210213846FFF732FBDFF8548000227E
:1031900030214046FFF72BFB102001250326CDE907
:1031A0000005CDE9024669463846FFF72BFA302084
:1031B000CDE90005CDE9024669464046FFF722FA0F
:1031C0004FF470708DE8310069464046FFF71AFAF7
:1031D00006B0BDE8F0810000303802400000024037
:1031E000000802400F4810B50D4901604FF482718C
:1031F000416000218160C1604FF400720161C0E94B
:103200000512C1610162416281620A21C162FFF758
:1032100005FE002803D0BDE81040FEF76BBB10BDD3
:1032200000300140DC000020FEE7FEE710B54FF45F
:103230008061AD280AD000EBC01202EB8020094A61
:1032400010448030BDE81040FDF7F9B905480C4640
:103250008030FDF7F4F921460348FDF7F0F92146E7
:103260000248EFE760050020610A0020E20E00201E
:1032700070B57F281CDC3F291ADC002818DB0029E8
:1032800016DB0831CC1701EB5474E51024F0070469
:10329000091B01248C40084903EBC31606EB83236A
:1032A000194400EBC510012A0A5C02D022400A54DE
:1032B00070BD2243FBE70000600500202DE9F04FC0
:1032C00093462DED028B81B00F46B0F1000800DC73
:1032D0000020814608EB0B00411C7F2901DA401CCD
:1032E00000E07F208246002F01DD3D4600E0002502
:1032F00007EB0B00411C3F2901DA401C00E03F2096
:103300002C4600906DE000BFA9EB0500061965E0B2
:10331000A8EB060000EE100AF0EE000AB8EEC00AB4
:1033200001F060FAB0EE408A381B00EE100AF0EEB1
:10333000000AB8EEC00A01F055FA38EE000AF0EEC5
:10334000000AB0EEC08A00EE10BAB8EEC00A01F072
:1033500049FAB4EEC08AF1EE10FA3ED80C98012872
:1033600006D002280FD0032819D0042835D124E034
:10337000DDE90D23C4EB45013046FFF779FF05EB8E
:103380000900811B22E0DDE90D23C4EB4501C6EBFA
:103390004900FFF76DFF05EB0900811B09E0DDE93E
:1033A0000D23C6EB49002146FFF762FFA919A1EBE7
:1033B000090109EB0500001B0BE0DDE90D232146A7
:1033C0003046FFF755FFA919A1EB090109EB0400ED
:1033D000401BDDE90D23FFF74BFF761C564597DBBD
:1033E000641C009884428FDB01B0BDEC028BBDE809
:1033F000F08F0000014800F08DBC0000E20E0020BC
:1034000070B50A4B00204FF480661918401C91F8E3
:10341000015591F8822991F88040AA432C40144329
:1034200081F88249B042F0DB70BD000060050020E9
:1034300010B5C820FFF7D4F8314C002210212046E7
:10344000FFF7D5F95020FFF7CBF8012210212046D5
:10345000FFF7CDF9AE2000F041FC202000F03EFC4B
:10346000002000F03BFCB02000F038FCC82000F049
:1034700035FC002000F032FC102000F02FFC402032
:1034800000F02CFC812000F029FC802000F026FCBC
:10349000A12000F023FCA62000F020FCA82000F0D2
:1034A0001DFC3F2000F01AFCA42000F017FCD320E4
:1034B00000F014FC002000F011FCD52000F00EFC00
:1034C000F02000F00BFCD92000F008FC222000F0D6
:1034D00005FCDA2000F002FC122000F0FFFBDB20EC
:1034E00000F0FCFB202000F0F9FB8D2000F0F6FB43
:1034F000142000F0F3FBBDE81040AF2000F0EEBB5D
:10350000000002402DE9FE4F9042DDF8308001DAE4
:10351000044600E01446994201DA0F4600E01F46D7
:10352000904200DC10460646994200DC19460D46E2
:103530000020FFF77BFEB8F1000F63D04FF00108C9
:103540004FF0000902228DE804034346B91CA01C79
:10355000FFF7B4FECDF8008001230222B91CCDE9AB
:103560000189B01EFFF7AAFE03228DE804030123A0
:103570000222A91EA01CFFF7A1FE04228DE804036D
:1035800001230222A91EB01EFFF798FE07F10209CF
:10359000A5F1020A0DE0A04606E0002301224946FB
:1035A000FFF766FE08F101084046B045F5DD09F178
:1035B0000109D145EFDDB84607F10209B71E0CE05D
:1035C000A61C06E00023012241463046FFF750FECC
:1035D000761CBE42F6DD08F10108C845F0DDA81EE4
:1035E0000CE0A61C06E00023012241463046FFF70E
:1035F0003FFE761CBE42F6DD08F101008046A8427F
:10360000EFDD10E0B8460CE0274606E0002301227B
:1036100041463846FFF72CFE7F1CB742F6DD08F125
:103620000108A845F0DD0A4A00204FF48063111814
:10363000401C91F8824991F880506C4081F8824991
:103640009842F4DBBDE8FE4F0020FFF7EFBD00001D
:10365000600500202DE9FF4F84B0814613980025B6
:1036600000EBC01202EB8020B34A119E8418D817D9
:1036700003EB507040F2814A0831029054E11298F5
:103680004FF0000301287DD048E1C81701EB5070CE
:103690004FEAE00E09EBCE121A444FF49067BA429B
:1036A00004DC002A02DA4FF0000C04E0BA4201DC2C
:1036B000944600E0D44620F00700A1EB000BCBF1CC
:1036C0000808FF2014F80CC020FA08F00CEA000CDF
:1036D000CDF80C80BA4203DC002A01DA002004E0B5
:1036E000BA4201DC104600E0504604F800C04FEA40
:1036F000CE10803048441844BE46704503DC002894
:1037000001DA002704E0704501DC074600E0574677
:1037100014F807C0FF2707FA0BF70CEA070C7746E7
:10372000B84204DC002802DA4FF0000804E0B84296
:1037300001DC804600E0D046724504F808C003DC96
:10374000002A01DA002704E0724501DC174600E098
:10375000574614F807C005FB06F70197DDF81880F7
:103760009844CDF8008017F8087007FA0BF74CEA78
:10377000070C77460CF0FF0CBA4204DC002A02DA90
:10378000002203E025E0BA4200DD5246F04604F88C
:1037900002C0404503DC002801DA002204E0404575
:1037A00001DC024600E05246DDE900C7A25C17F8E2
:1037B0000C70DDF80CC027FA0CF73A43704503DCB7
:1037C000002801DA002002E0704500DD50465B1C55
:1037D0002254B342FFF659AFA3E0C81701EB507073
:1037E0004FEAE00E09EBCE121A444FF490684245BE
:1037F00003DC002A01DA002704E0424501DC174619
:1038000000E0574620F0070CE75DA1EB0C0BFF2012
:1038100000FA0BF0074307F0FF0C4746BA4203DCFF
:10382000002A01DA002004E0BA4201DC104600E080
:10383000504604F800C04FEACE1080304844184487
:10384000C646704503DC002801DA002704E0704515
:1038500001DC074600E05746CBF1080C14F807805E
:10386000FF2727FA0CF748EA07087746CDF80CC07F
:10387000B84204DC002802DA4FF0000C04E0B84241
:1038800001DC844600E0D446724504F80C8003DC79
:10389000002A01DA002704E0724501DC174600E047
:1038A000574614F807C005FB06F70197DDF81880A6
:1038B0009844CDF8008017F8087007FA0BF72CEA47
:1038C000070C7746BA4203DC002A01DA002202E044
:1038D000BA4200DD5246F04604F802C0404503DC1F
:1038E000002801DA002204E0404501DC024600E045
:1038F0005246DDE900C7A25C17F80C70DDF80CC079
:1039000027FA0CF7BA43704503DC002801DA0020DF
:1039100002E0704500DD50465B1C2254B342FFF6C6
:103920005CAF083102986D1CB5EBE00FFFF6A7AE57
:1039300008B0BDE8F08F0000600500202DE9F04FD1
:1039400085B0814610780F9F904601F108048028C9
:1039500075D22038C0B2D917019003EB5171D1480C
:103960000291C91000EB810003EBD3760090701038
:1039700000FB01FE07EBC710CB49002500EB8720B9
:1039800040F2814A421868E10E984FF00003012886
:1039900076D05CE1E01704EB5070C110049109EBA4
:1039A000C11119444FF49067B94204DC002902DACE
:1039B0004FF0000C04E0B94201DC8C4600E0D44634
:1039C00020F00700A4EB000BCBF10808FF2012F851
:1039D0000CC020FA08F00CEA000CCDF80C80B942BB
:1039E00003DC002901DA002004E0B94201DC0846CA
:1039F00000E0504602F800C004984FEAC01C0CF1E9
:103A0000800C0CEB09001844B0F5906F03DC002823
:103A100001DA002705E0B0F5906F01DC074600E011
:103A2000574612F807C0FF2707FA0BF70CEA070CF6
:103A3000B0F5906F04DC002802DA002706E014E1FC
:103A4000B0F5906F01DC074600E0574602F807C06A
:103A5000009FDDF804C057F8048C0CFB0E8703EBC5
:103A6000C50C6744049797F800C04FF490670CFAB0
:103A70000BFCB94205DC002903DA4FF0000805E031
:103A800036E0B94201DC884600E0D046B94212F87F
:103A900008804CEA080C0CF0FF0C03DC002901DA6A
:103AA000002102E0B94200DD5146B84202F801C0EF
:103AB00003DC002801DA002104E0B84201DC014601
:103AC00000E05146DDF810C0DDF80C80515C9CF838
:103AD00000C02CFA08FC41EA0C01B84203DC0028C3
:103AE00001DA002002E0B84200DD50465B1C1154B0
:103AF000B3EB660FFFF64EAFADE0E01704EB50708E
:103B0000C110039109EBC11119444FF49067B942F8
:103B100004DC002902DA4FF0000C04E0B94201DCB9
:103B20008C4600E0D44620F00700A4EB000BFF20F9
:103B300012F80CC000FA0BF04CEA000C0CF0FF007D
:103B4000B94204DC002902DA4FF0000C04E0B9426B
:103B500001DC8C4600E0D44602F80C000398C0015A
:103B6000803048441844B0F5906F03DC002801DA37
:103B7000002705E0B0F5906F01DC074600E05746EE
:103B8000CBF1080C12F80780FF2727FA0CF748EA58
:103B90000708CDF810C0B0F5906F03DC002801DAFB
:103BA000002705E0B0F5906F01DC074600E05746BE
:103BB00002F80780009FDDF804C057F8048C0CFB66
:103BC0000E8703EBC50C6744039797F800804FF40A
:103BD000906708FA0BF8B94204DC002902DA4FF0CA
:103BE000000C04E0B94201DC8C4600E0D446B94246
:103BF00012F80CC02CEA080C03DC002901DA0021C1
:103C000002E0B94200DD5146B84202F801C003DCCF
:103C1000002801DA002104E0B84201DC014600E09E
:103C20005146DDF80CC0515C9CF80080DDF810C0F6
:103C300028FA0CF821EA0801B84203DC002801DA6E
:103C4000002002E0B84200DD50465B1C1154B3EB8B
:103C5000660FFFF652AF08346D1C0298B5EBE00F0B
:103C6000FFF692AE05B0BDE8F08F0E4E0025083687
:103C7000032256F825104046FCF7B5FC18B16D1C20
:103C80000F2DF5D3EEE710210E980B46CDE900106D
:103C90000648029700EB4512A4F108014846FFF7D9
:103CA000D9FCDFE78800002060050020FA600008EA
:103CB00070B5094B01EBC11505EB812100224FF4D2
:103CC000806419448B18865C13F8805F521C35435E
:103CD0001D70A242F6DB70BD6005002031B50B4CB3
:103CE000002220212046FEF782FD002210212046DE
:103CF000FEF77DFD01231A4669460548FFF720F9C6
:103D0000012220212046FEF772FD38BD0008024046
:103D1000DC00002070B50C4D04460022202128460E
:103D2000FEF765FD012210212846FEF760FD012304
:103D30009A0221460548FFF703F92846BDE870407E
:103D400001222021FEF753BD00080240DC000020C4
:103D500030B5264D85B026A195ED000B01A853EC9A
:103D6000102BFCF769FB012400210C2301AA084653
:103D70000094FEF7FBFB95ED020B20A153EC102BFA
:103D800001A8FCF759FB0C2301AA19460020009456
:103D9000FEF7ECFB95ED040B1BA153EC102B01A8D7
:103DA000FCF74AFB0C2301AA182100200094FEF71F
:103DB000DDFB95ED080B17A153EC102B01A8FCF7C8
:103DC0003BFB0C2301AA242100200094FEF7CEFB2C
:103DD00014A101A8AA69FCF72FFB0C2301AA30212A
:103DE00000200094FEF7C2FB05B030BD380500206E
:103DF0004B703A20252E3366000000004B693A20B4
:103E0000252E3366000000004B643A20252E3366D1
:103E100000000000466163746F723A20252E3366FD
:103E2000000000004D696E54696D653A2025646D8F
:103E300073000000704700002DE9FE43FEF79AF979
:103E4000294C6169401A0F280AD960780028A069B6
:103E500001D0401C00E0401EA061FEF78BF96061BC
:103E6000A26901253F2A02DD0020607002E0002ADD
:103E700000DA6570042602EBD270CDE900654FF0E0
:103E80000F08431000210846CDF80880FEF7D9F846
:103E9000A269CDE9006502EBD270F0274310002142
:103EA000402002974032FEF7CCF8A269082600961F
:103EB000CDE90157202702EBD27007EB60033946AA
:103EC0000020FEF7BEF8A269CDE9006502EBD270D2
:103ED00007EB600320214020CDF808804032FEF738
:103EE000B0F8BDE8FE83000000000020F8B51546DC
:103EF0000E460B46009204460122022100F02CF8E7
:103F0000A0B9134813490068B0FBF1F04FF47A717F
:103F1000484300906068B0F5827F0DD1334600229F
:103F200080212046009500F017F870B1606D40F0D8
:103F3000200060650320F8BD009830B1401E00905D
:103F400020688068C0430006F6D50020F8BD000058
:103F50003800002000366E012DE9F8431E469146D8
:103F600088460446089DFEF747FC401B351AFEF7BD
:103F700043FC074625480068C0F3CB30684338E06F
:103F8000701C37D0FEF738FCC01BA84203D215B115
:103F9000009860B32CE02068416821F0E0014160A6
:103FA0006068B0F5827F0BD1A068B0F5004F02D0F9
:103FB000B0F5806F04D12068016821F040010160F4
:103FC000A06AB0F5005F09D12068016821F40051B2
:103FD00001602068016841F400510160012084F80B
:103FE0005100002084F850000320BDE8F88300252C
:103FF000401E00902068816838EA010004D000214A
:104000004945BDD10020F0E70121F9E73800002043
:1040100070470A690AB101207047086142690AB90C
:1040200005E00246D0680028FBD1D16000E0416184
:1040300000208A607047CA680AB101207047C860D2
:1040400002690AB905E0024690680028FBD1916038
:1040500000E0016100204A60704770B504460D46DB
:104060001820FCF71BF9C0E9004570BD70B5054686
:104070000C462020FCF712F90560846170BD000039
:1040800070B5074E05460C46F06808B1012070BDBA
:104090002020FCF703F9F06005608461002070BD0A
:1040A0003C00002010B5FFF7EBFF0248C16801613A
:1040B00010BD00003C000020F0B587B00446DDE9EB
:1040C0000E670D46DDF830C0CDF80CC006960094A2
:1040D000CDE90153CDE9042700EBD4704010611CF9
:1040E000C4F13F03C0F17F02FEF764F8009600219F
:1040F000234608462A68FEF739FA07B0F0BD0000EB
:104100002DE9FF4F7D4C85B0204693460069E2784B
:10411000DDF84880416900699A46002532B110B146
:10412000C4E9050501E0C4E90551E570002701E097
:1041300080687F1C0028FBD1002601E0C968761C3E
:104140000029FBD198F803004FF0010900B3207853
:10415000F0B1606988B120610169616129B1FEF740
:1041600009F8A0602570A56105E04069A061FEF72F
:1041700001F8A060257065600AE0A06940B1607830
:1041800030B9FDF7F7FFA060257084F80190A570A5
:1041900098F80000C0B12078B0B1607830B1FDF778
:1041A000E9FFA060257084F802900DE02069C068E6
:1041B00050B1FDF7DFFFA06025702069C068206165
:1041C0000069C4E90505656098F8020030B36078BD
:1041D00020BB207810B3606970B1806810B1C4E969
:1041E00005050EE02169486910B1C4E9055008E0F1
:1041F000A5610869606110E0A06978B1C06820B16C
:10420000A0616068401C606008E02169086910B125
:10421000C4E9050501E04869A061656098F80100FE
:1042200098B3607898BB207808B36069B8B14068EB
:1042300010B1C4E9050517E02169486908B904E02F
:104240000846C1680029FBD130E0A561086900E09B
:10425000084681680029FBD16061F01913E0A0696C
:1042600028B1806820B1A0616068401E606020E0D5
:1042700021690869A0B1A56100E0084681680029AC
:10428000FBD160616068401E6060607888B1A069A1
:10429000416871B1A07800B165704046884713E06D
:1042A000486900E00846C1680029FBD1C4E905500F
:1042B000D3E70698CDE902BACDE9006021693B4613
:1042C00062688D690598A847FDF754FFA168401AF8
:1042D000282802D2FDF744FB0AE0FDF74BFFA16856
:1042E000401A782802D2FDF717FB01E084F800900D
:1042F00009B0BDE8F04FFDF739BB00003C000020DD
:10430000016909B1012070470749CA680261516912
:1043100009B905E01146CA68002AFBD1C86000E06F
:1043200050618160002070473C000020C16809B1E5
:10433000012070470749CA68C260116909B905E0E0
:1043400011468A68002AFBD1886000E01061416054
:10435000002070473C0000202DE9FC5F2D492EA075
:10436000FFF7A0FE2D492EA0FFF780FE00902B49FD
:104370002DA0FFF77BFE81462E492FA0FFF76DFE93
:104380000190304930A0FFF768FE8346314932A0E2
:10439000FFF763FE8246334933A0FFF75EFE804697
:1043A000354936A0FFF759FE0746384938A0FFF7D0
:1043B00054FE06463A493BA0FFF74FFE05463D49ED
:1043C0003DA0FFF74AFE04460098FFF7AFFF0198B3
:1043D000FFF796FF5846FFF793FF5046FFF790FF11
:1043E00049460098FFF727FE41464846FFF711FE71
:1043F00039464846FFF70DFE31464846FFF709FEAD
:1044000029464846FFF705FE21464846BDE8FC5FC1
:10441000FFF7FFBDD930000848756200B9400008B9
:10442000E4BFA1E681AF0000475549E4BFA1E681A2
:10443000AF0000000518000844726177204C696ED7
:10444000650000005D1800084472617720526F75A6
:104450006E640000393E0008526F756E642052652C
:10446000637400001D310008E58685E6A0B8E78981
:1044700088E69CAC0000000079210008E59BBEE5C1
:10448000BDA2E5BA93E78988E69CAC00CD18000888
:10449000E9A9B1E58AA8E4BFA1E681AF0000000068
:1044A000AD460008E4BD9CE88085E4BFA1E681AF8D
:1044B00000000000513D00085049442050617261E5
:1044C0006D657465720000002DE9F0470446FEF743
:1044D00093F9484D296A401A022873D9FEF78CF9DE
:1044E0000026DFF81481B146444F4FF0010A2862DC
:1044F00007E036B1012E07D0022E17D0032E08D1C7
:1045000018E02546402101E0651C80214046FEF769
:1045100069F957F8261088B1491E47F82610052971
:104520001ADA47F8269085F8009017E0A51C4FF49A
:104530008071EBE7E51C4FF40071E7E7491C47F891
:104540002610052905DD85F800A00A2147F8261068
:1045500004E085F8009001E085F800A0761C042EA8
:10456000C7DB244D2378243562782E78A178E07853
:104570001746B34201D0012600E00026267095F8C8
:1045800001C0674501D0012700E000276770A946F8
:10459000AD78A94201D0012500E00025A57099F869
:1045A0000380404502D04FF0010C01E04FF0000CB9
:1045B00084F803C01E4000D001262670174202D0A6
:1045C000012601E014E0002666700D4000D00125B0
:1045D000A5701CEA000F01D0012500E00025E57060
:1045E00089F8003089F8012089F8021089F8030061
:1045F000BDE8F0870000002000080240CC00002049
:10460000FEF700B930B593B030216846FCF739F8B1
:1046100014210CA8FCF735F81D480024016841F06E
:1046200080510160006800F08050119019480168C5
:1046300021F4404141F4004101600068022500F48A
:1046400040401190012003901020049000950695A1
:104650000820CDE907405420CDE9090504200B903E
:104660006846FEF725FA08B172B6FEE70F20CDE9DD
:104670000C054FF48050CDE90E4002210CA8109497
:10468000FEF74CF9002801D072B6FEE713B030BD3A
:1046900040380240007000400248016841F4700157
:1046A0000160704788ED00E0FEE7000038B50125A5
:1046B0000021102310A208460095FDF757FFFDF7D3
:1046C00059FD114CE169401A41F28831884206D9FE
:1046D000A07880F00100A070FDF74CFDE061A078AB
:1046E0004FF00C03009508B108A200E011A21821B8
:1046F0000020FDF73BFF38BDE4BD9CE880853AE52E
:10470000B281E5BF83000000000000204353444E07
:104710003A2068747470733A2F2F626C6F672E633F
:1047200073646E2E6E65742F6D305F373336373796
:104730003836360042696C6962696C693A2068747F
:104740007470733A2F2F73706163652E62696C69A0
:1047500062696C692E636F6D2F33343934333539A8
:1047600034353233353439353300000003B4019821
:104770004100009850EAC12018BF04204A0D18BF1C
:1047800040F0010040F2FF72B2EB515F08BF40F011
:104790000200012808BF052002B07047410008024E
:1047A00018BF04200A0E18BF40F001004FF07F42EE
:1047B00032EA010108BF40F00200012808BF0520CD
:1047C00070470907090E002804DB00F1E02080F89B
:1047D0000014704700F00F0000F1E02080F8141D75
:1047E0007047000010B510EE100A2DED068BB7EEE5
:1047F000001A10EE901AB0EE418A0022A0F5000CCB
:10480000DFEDFE9A4FF00073BCF1FE4F4FF07F4496
:1048100003EB410C80F0B481BCF1804FC0F02082EA
:10482000F74901449FEDF73AB1F5005F40F2D482B9
:1048300000F58021CB0C03F00F0101EE901AC3F3B9
:1048400007137F3BA0EBC350B8EEE12A00EE100A3D
:104850001A44DFEDED2AF0EE411A42EE221AF0EE94
:10486000613A70EE232A30EE632A12EE900A00F5C8
:1048700000606FF30B0001EE900A73EEE13A33EE45
:10488000804AC1EE223A22EE230A10EE100A00F509
:1048900000606FF30B0000EE100A00EE612A00EEDC
:1048A000442A62EE232A70EE221A21EEA12ADFEDBD
:1048B000D73A02EE233A23EE023A20EE012A22EE04
:1048C000811A03EE211A32EE010A10EE100A00F5E9
:1048D00000606FF30B0000EE100A72EE401A31EE2A
:1048E000812A9FEDCB1A60EE011A9FEDCA1A20EEC5
:1048F000011A9FEDC90A02EE001A31EE810A10EE8C
:10490000100A00F500606FF30B0000EE100AC348B8
:1049100071EEC01A31EE812A784400EBC10090EDAF
:10492000003AD0ED011A100101EE100AF8EEC12A8A
:1049300032EE211A31EE001A31EE031A31EE221A4C
:1049400011EE100A00F500606FF30B0009EE100A7B
:1049500039EE621A31EE431A31EE400A30EE610A46
:1049600032EE40AA10EE900A002100F500606FF3CD
:104970000B0008EE900A084670EEE8AA4FF000001F
:1049800029EE280A00F00C01F0EEC00A10EE900AA1
:10499000B0F18B4F0DDD10EE900AB4EB400F08D351
:1049A00010EE100A4FF08B4262F31E0008EE900AE0
:1049B00013E069EE2A0A38EEAA1A4AEE010A30EE2E
:1049C000201A11EE100A00F500606FF30B0008EEDC
:1049D000900A30EE680A70EE209A0C204FF000002A
:1049E00038EEA90AB5EEC00AF1EE10FA34BFFEEEB9
:1049F000000AF6EE000A30EE800ABDEEC00A10EEA4
:104A0000100A011100EE101AF8EEC00A00EE100AAA
:104A1000B8EEC00A38EEC00A30EE290ADFED801A7F
:104A20009FED801A00EE211ADFED7F1A7F4900F01A
:104A30000F0040EE011A21EE800A794401EB80015B
:104A400091ED001A7A49794401EB8001D1ED001A09
:104A5000784901EE801A794401EB8000764990EDA7
:104A6000000A31EE001AB0EEE00A10EE100A884299
:104A700015DA10EE100AB4EB400F10D39FED6F0A59
:104A800030EE800ADFED6E0A20EE200A68EE010AA1
:104A9000BDEC068BBCEEC00A20EE200A10BD10EE65
:104AA000100A6849884243DA10EE100AB4EB400F4E
:104AB0003ED3BDEEE00A68EE010A10EE100A00EBEC
:104AC000D0725110C90501F17E5100EE101AA0EB11
:104AD0006200C00560EE200A00F17E5000EE100A70
:104AE00060EE808A18EE900AB4EB400F0FD10220DE
:104AF000FBF749FE00F0BEF910EE101A18EE100A8E
:104B0000BDEC068B61F31E0000EE100A10BD18EE1E
:104B1000900A400011D018EE900AFFF73FFE0428DB
:104B200008BF00F0AFF9B0EE680ABDEC068B10BD0F
:104B3000F5EEC00AF1EE10FA0FD20220FBF723FEC9
:104B400000F0A0F910EE101A18EE100ABDEC068B5A
:104B500061F31E0000EE100A10BD0220FBF713FEE9
:104B600000F088F910EE101AB0EE480A10EE100AA4
:104B7000BDEC068B61F31E0000EE100A10BD00BFF5
:104B8000BCF1804F6CD300BF00F1FF43B3F1FE4F87
:104B900024D200BFB0EEC00A10EE100AC1F3C75312
:104BA0007F2B0DDB972BBFF63BAEC3F196034FF087
:104BB000010C0CFA03F3A3F1010C1CEA010F08D05D
:104BC0000120FBF7E0FDBDEC068BBDE8104000F0D6
:104BD00049B90B4218BFBFEE008A21E643001CBF53
:104BE0004FF08073B3EB400F34D96FF01A02DFED52
:104BF000161A20EE210A10EE100A27E0000000002D
:104C0000001080C0ABAAAA3E0000803D7EE24C3E70
:104C100000B03842D49AB8BB3BAA3842C019000051
:104C2000FC596337C9FF753A1872313D5E190000AF
:104C300092190000021900000000FC420000FE4230
:104C40000000004B000040430000004D10F0004FFA
:104C5000A0D1E5E5A0F50003B3F1FE4F21D2DFE5D9
:104C600003EB4103B3F1007F11D3F5EEC00AF1EE7F
:104C700010FA05D1430018BFB4EB400F76D883E794
:104C800001F0004141F0FC5100EE901A7CE7B3F1D5
:104C9000807F06D210EE903AA3F5000300EE903A22
:104CA00072E720F000426FF0FF4C604C02EB0C0307
:104CB000A34210D321F000439C44A4450BD3B0F190
:104CC0007E5F18BF5FEA410C50D0B2F1FF4F98BF32
:104CD000B3F1FF4F05D9BDEC068BBDE8104000F0E5
:104CE000BDB8B0F1FF4F0FD0C1F3C7527F2A09DB27
:104CF000972A11DAC2F19602012303FA02F2531E37
:104D00000B4205D0002208E011F0004F55D128E0F9
:104D10000A4218BF012200D1022210F5000F13D061
:104D200028B3B0F1004F26D010F1814F4FD04FF093
:104D3000FE42B2EB400F94BF01200020012202EBA3
:104D4000E171884239D10CE011F0004F02D0012A04
:104D500038D032E0012A02BF9FED350ABDEC068B48
:104D600010BD9FED340ABDEC068B10BD2FE011F095
:104D7000004F0CD121E0B1F1FF4F1ED011F5000F13
:104D800005D011F0004F15D00AB1012A08D0022039
:104D9000FBF7F9FCBDEC068BBDE8104000F054B801
:104DA0000220FBF7F0FC00F04FF8BDEC068BB1EEF3
:104DB000400A10BD0AB1012A04D0B0EE690ABDEC68
:104DC000068B10BDBDEC068B9FED1B0A10BDBDEC24
:104DD000068BB7EE000A10BD30EE410AB5EE001AA0
:104DE0009FED172A00EE413AB6EE001A60EE001A67
:104DF00000EE431A61EEC11A9FED101A20EE011A5F
:104E000020EE020A9FED0F2A01EE820A71EE001ACF
:104E100011EE900A00F500606FF30B0009EE100A26
:104E200031EE491A31EE00AA9CE50000FFFF3F0079
:104E3000000080FF0000807F0000008000B0B841CB
:104E4000D49A38BB3BAAB841DFED030AB7EE001A8B
:104E500081EE200A704700000000000030EE200ABA
:104E600070470000DFED020A80EEA00A70470000E4
:104E7000000000009FED020A20EE000A70470000CB
:104E8000000000709FED020A20EE000A704700004B
:104E90000000001030380A2801D20120704700209D
:104EA0007047000008B5FDF7B5FCFFF7ABFBFEF758
:104EB00045F9FEF797F915489FED120B0A2180ED91
:104EC000000B9FED130B80ED020B9FED130B80ED9C
:104ED000040B9FED130B80ED080B81610820FBF79D
:104EE000DDF90446FDF75EF9FFF736FA2046FFF7D5
:104EF000EBFA00230122194610200094FFF700F975
:104F0000F4E700009A999999999909C03805002009
:104F100054E3A59BC420104054E3A59BC420EC3F60
:104F20009A9999999999B93F10B500290AD00878AA
:104F3000002807D005487844FCF734F8002801D051
:104F4000002010BD0248784410BD0000D6150000B6
:104F5000CE15000010B591EA030F48BF83F000435F
:104F600000F1C283841A71EB030C05D2121943EBD2
:104F70000C03001B61EB0C01DFF824E14FEA115434
:104F8000A4EB135C1EEA430F18BF9EEA445F73D084
:104F900023EA0E03DCF1200E21EA045143F48013CE
:104FA00032D322FA0CFE10EB0E0023FA0CFE41EB7A
:104FB0000E01CCF1200E03FA0EFE10EB0E0051F1A3
:104FC0000001B1F5801FCCF1200E32D201EB04516B
:104FD00012FA0EF2BDE8104058BF7047401C38BFAF
:104FE0005FEA420218BF7047002814BF20F001009A
:104FF00041F100014FEA410313F5001F38BF70472C
:10500000A1F1C04100F02CBB012A43EB0302ACF13B
:10501000200CDCF11F0E32BF4FF0000E23FA0CF310
:1050200010EB030041EB0451B4EB115FD0D0A1EBC6
:10503000045101F5801149085FEA300001EB045189
:105040000ED350F1000038BF12FA0EFE08D1BDE8B1
:105050001040C9E7401C38BF5FEA4202CAD1C3E72B
:10506000BDE810404FEA410313F5001F38BF7047F9
:10507000A1F1C04100F0F4BA9EEA445F08D011EA01
:105080005E0FBDE8104004BF01F0004100207047F2
:10509000BDE8104070B500F095FA00BF64FBBE3E5D
:1050A0000000E0FF491058BFC1F140415B1058BFFC
:1050B000C3F140438B42EFF3008070472DE9C041BC
:1050C00030B4DFF8A0C23CEA111418BF3CEA131454
:1050D00000F0EC8081EA03051CEA111444EAD5745F
:1050E00018BF1CEA131500F0C780A4EB05044FF0AD
:1050F000004545EAC12145EAC32341EA505143EA4C
:10510000525304F17F74994204F500344FEAC020F1
:105110004FEAC22208BF904200F09C804FEA13651C
:105120000FF24016765D4FEA134506FB05F7C7F10F
:10513000807706FB07F74FEAD737A7FB036876426D
:10514000C8F58038A7FB06CE38BFA8F1010807FBD9
:1051500008E64FF0000EA6FB028CE6FB03CEDCF166
:10516000000CCEF1004E38BFAEF1010EA6FB0C587C
:105170004FF000074FF00005E6FB0E87A1FB08C6C5
:10518000A0FB07CE16EB0E0645F10005E1FB076517
:1051900015F1E04E7EBFA4F580345FEA46066D410E
:1051A00016F1800745F100054FEA17274FEA06661A
:1051B00047EA0567A6F1DE46B6F1805F4FEA15259E
:1051C0001FD9384624F0010C05EBC471BCF1FE6F09
:1051D00001EB0C1102D8F0BCBDE8008124425CBF99
:1051E00001F5801E9EEAC47F02D4F0BCBDE80081B8
:1051F000244238D4F0BCA1F1C041BDE8004100F028
:105200002FBA4FEAD22242EA43524FEAD323A7FBF6
:1052100002864FEAD02040EA415007FB03661EEAAF
:105220000E0F4FEAD12105FB026658BFA6EB0056D0
:10523000B6EB00564FEA520E4EEAC37E18EB0E0E46
:1052400056EB530EBDD518EB02085E417F1C55F19D
:105250000005B6E74FF480154FF000074FF0000649
:105260004FF00008ADE7F0BC4FF0000001F1C04185
:1052700001F00041BDE8008111EA0C1F0CEA131592
:1052800000D00CE013EA0C1F00F025804FF0000066
:10529000F0BC81EA030101F00041BDE80081F0BCEF
:1052A000BDE8004181EA030100F0DAB9F0BCBDE8D5
:1052B000004170B500F086F9097EFC3E00F007B8A9
:1052C00081EA03014FF0000001F00041704781EADC
:1052D000030100F0C5B9F0BCBDE800414FF000008B
:1052E00021497047FFFDFBF9F7F5F4F2F0EEEDEB25
:1052F000E9E8E6E4E3E1E0DEDDDBDAD8D7D5D4D3D4
:10530000D1D0CFCDCCCBCAC8C7C6C5C4C2C1C0BF1F
:10531000BEBDBCBBBAB9B8B7B6B5B4B3B2B1B0AF25
:10532000AEADACABAAA9A8A8A7A6A5A4A3A3A2A109
:10533000A09F9F9E9D9C9C9B9A99999897979695C4
:1053400095949393929191908F8F8E8E8D8C8C8B60
:105350008B8A8989888887878685858484838382E8
:10536000828181800000FF070000F87F4FEA41033F
:105370004FEA5353A3F58063D3F11E03C8BFD3F1A3
:10538000210C0CDD4FF0004242EAC12242EA5052A9
:1053900032FA03FC8CEAE17CACEBE1707047102B35
:1053A000C4BF0020704703F5787CBCF1FF3F04D0F8
:1053B0006FF0004282EA2100704770B500F002F9F8
:1053C0004992248000207047F2E710F0004248BF65
:1053D0004042B0FA80F310FA03F10AD0C3F11D0382
:1053E00003F580634FEA415002EB035202EBD121F7
:1053F00070474FF00000704751EA030C17D41CF5BA
:10540000801F58BFBCF5801F00F10680994218BF6D
:10541000704708BF9042704707D711F5801F58BFEB
:1054200013F5801F19D499427047894270471CF5C3
:10543000801F08D5BCF5801FF7D58B4218BF704779
:1054400008BF824270474FF4001C1CEB410F38BF6D
:105450001CEB430F01D28B42704770B500F0B2F8DD
:10546000922449004FF000514FF08053FFF71ABECD
:10547000DFF848C170B51CEA111E1EBF1CEA1315E7
:105480009EEA0C0F95EA0C0F00F06F8081EA03048E
:1054900023EA4C134EEAD47E21EA4C1141F48011E8
:1054A00043F48013AE44A1FB024CA0FB0365AEF1B4
:1054B0007F7E361955EB0C05A1FB034C4CF1000324
:1054C000A0FB021C16EB0C06654153F100030942D8
:1054D00018BF46F0010613F4007F0BD14FEA0331E9
:1054E0004FEA0530340341EA155140EA16506FF097
:1054F00003020AE04FEAC3214FEAC520F40241EA61
:10550000555140EA56506FF0020202EB2E4201EB79
:10551000025585EACE710AD05FEA440C18BF24F028
:10552000004450F1000041F1000120EAD47040F243
:10553000FE7C624500D270BDA84214BF4FF080448B
:105540004FF04044002E08BF0024BEF1806FA8BF7A
:10555000A1F1C041BDE8704080F282804FF00000B0
:1055600001F1C04101F0004170479EEA0C0F0CEAC6
:10557000131518BF95EA0C0F06D04FF0000081EA12
:10558000030E0EF0004170BD00F01CF88900013ED2
:1055900000F007B800F009B84FEA430C5FEA5C5C22
:1055A00008D081EA030100F05BB84FEA410C5FEAE2
:1055B0005C5CF6D14FF00000014970470000FF0726
:1055C0000000F87F0EF1020E2EF0030E5EF8046B61
:1055D000364205D4012A43EB030515F5001F12D806
:1055E000012841EB010C1CF5001F0CD80ED14FEA2D
:1055F000D17C15F5001F0CEB4C0C0CF1020C08BF14
:105600004CEBD37C04E04FF0080C01E04FEAD37C74
:105610000CEB4C0526FA05F606F00706B6F1040C6D
:1056200006D20EEB860CBDE870404CF0010C6047D2
:10563000DFE80CF0090B02024FF000414FF00000D0
:10564000A1F5002170BD19461046012851EB010457
:1056500018BFD4F5001484BF002001F0004170BDD4
:105660000808A0F500114FEA3101704753EA010C18
:1056700017D41CF5801F58BFBCF5801F00F10680B1
:105680008B4218BF704708BF8242704707D713F597
:10569000801F58BF11F5801F19D48B4270479B4261
:1056A00070471CF5801F08D5BCF5801FF7D59942BF
:1056B00018BF704708BF904270474FF4001C1CEBA6
:1056C000430F38BF1CEB410F01D2994270470FB412
:1056D0000CBC03BCFFF7C1BE10B591EA030F48BF75
:1056E00083F000433FF53EAC841A71EB030C07D204
:1056F00012198CF0004C43EB0C03001B61EB0C0106
:10570000DFF8A4E14FEA1154A4EB135C1EEA430F47
:1057100018BF9EEA445F00F0B08023EA6E03524255
:1057200021EA0451C3EB6E0338BF5B1EDCF1200E8F
:1057300025D322FA0CFE10EB0E0043FA0CFE41EBCF
:105740000E01CCF1200E03FA0EFE10EB0E0051F10B
:105750000001CCF1200E29D412FA0EF201EB045113
:10576000BDE8104058BF7047401C1CBFB2F1004F4D
:10577000704700280CBF491C20F00100704712EB55
:10578000020E43EB030218BF4FF0010E4EEA420235
:10579000ACF1200CDCF11E0E54D943FA0CFE10EBD8
:1057A0000E0051F1FF31CCF11E0ED5D50EF1010ED8
:1057B00012FA0EFE404141EB010101EB445C5FEA4D
:1057C0005C5C10D910EBDE7001EB045138BFBEF108
:1057D000004FBDE8104018BF704700280CBF491C9F
:1057E00020F00100704730D24FEAD42C11F500119F
:1057F00024F400641BD0B1FA81F20B3AA41AA41E5F
:10580000D2F12003914030FA03F31943904001EBA9
:10581000CC71002C01EB0451BDE81040A8BF7047CB
:1058200001F1C0414FF0000001F000417047B0FAB3
:1058300080F310FA03F100D110BDE41A173C4805BB
:10584000C90AE4E701EB045110BD491001EB045112
:10585000BDE810404FEA300002E04FF00001704711
:105860004A0008BF0042F8D0B2F5001F28BF7047B9
:1058700001F000414FF0000070479EEA445F07D0FE
:1058800011EA5E0FBDE8104004BF00210020704700
:10589000BDE8104070B5FFF795FE00BF40DFF63E53
:1058A00083F00041104670470000E0FF4FF0407069
:1058B000E1EE100A7047FBF79EB800000000000000
:1058C00000000102030406070809000000000000B0
:1058D0000000002F000000000700070000147F14E4
:1058E0007F1400242A7F2A120062640813230036E2
:1058F0004955225000000503000000001C22410011
:10590000000041221C000014083E08140008083E54
:105910000808000000A0600000080808080800004F
:1059200060600000002010080402003E5149453E1E
:105930000000427F4000004261514946002141453C
:105940004B31001814127F10002745454539003CA3
:105950004A49493000017109050300364949493671
:1059600000064949291E0000363600000000563660
:105970000000000814224100001414141414000044
:105980004122140800020151090600324959513ED2
:10599000007C1211127C007F49494936003E41418A
:1059A0004122007F4141221C007F49494941007F3B
:1059B00009090901003E4149497A007F0808087F2A
:1059C0000000417F4100002040413F01007F08145A
:1059D0002241007F40404040007F020C027F007F58
:1059E0000408107F003E4141413E007F090909063D
:1059F000003E4151215E007F091929460046494970
:105A000049310001017F0101003F4040403F001F3C
:105A10002040201F003F4038403F006314081463BB
:105A200000070870080700615149454300007F41A5
:105A3000410000552A552A55000041417F000004CD
:105A40000201020400404040404000000102040006
:105A5000002054545478007F48444438003844446B
:105A6000442000384444487F0038545454180008F7
:105A70007E0901020018A4A4A47C007F0804047815
:105A80000000447D4000004080847D00007F10289D
:105A900044000000417F4000007C04180478007C32
:105AA0000804047800384444443800FC24242418B2
:105AB0000018242418FC007C0804040800485454EE
:105AC000542000043F444020003C4040207C001C07
:105AD0002040201C003C4030403C0044281028441A
