:020000040800F2
:10000000900F0020AD010008272500088B22000872
:10001000892400088908000819360008000000003B
:10002000000000000000000000000000CD2E0008CD
:100030002909000800000000492C0008713500085B
:10004000C7010008C7010008C7010008C701000870
:10005000C7010008C7010008C7010008C701000860
:10006000C7010008C7010008C7010008C701000850
:10007000C7010008C7010008C7010008C701000840
:10008000C7010008C7010008C70100080000000000
:10009000000000000000000000000000C701000890
:1000A000C7010008C7010008C7010008C701000810
:1000B000C7010008C7010008C7010008C701000800
:1000C000C7010008C7010008C7010008C7010008F0
:1000D000C7010008C7010008C701000800000000B0
:1000E000C7010008C7010008C701000800000000A0
:1000F000000000000000000000000000C701000830
:1001000000000000C7010008C7010008C70100087F
:1001100000000000000000000000000000000000DF
:10012000C7010008C7010008C7010008C70100088F
:10013000C7010008000000000000000000000000EF
:10014000000000000000000000000000C7010008DF
:10015000C7010008C7010008C7010008C70100085F
:10016000C7010008C70100080000000000000000EF
:10017000000000000000000000000000000000007F
:1001800000000000C701000800000000000000009F
:10019000C7010008DFF810D000F064FB00480047FA
:1001A000E54B0008AFF30080900F00200648804721
:1001B00006480047FEE7FEE7FEE7FEE7FEE7FEE74C
:1001C000FEE7FEE7FEE7FEE70936000895010008B6
:1001D0002DE9F05F0546002092469B46884606467C
:1001E000814640241BE0284641464746224600F00F
:1001F00050FA53465A46C01A914110D31146184638
:10020000224600F037FA2D1A67EB01084F462246C6
:100210000120002100F02EFA17EB00094E41201EAC
:10022000A4F10104DFDC484631462A464346BDE8D6
:10023000F09FD2B201E000F8012B491EFBD27047BB
:100240000022F6E710B513460A4604461946FFF7A2
:10025000F0FF204610BD30B504460020034600E004
:100260005B1C934203D2E05CCD5C401BF8D030BDF8
:100270002DE9FE4F804681EA0300C00F0C46009036
:1002800021F0004123F00045B8EB0200A94105D25E
:100290004046214690461C460B46024623F000404D
:1002A000104347D0270DC7F30A00C3F30A51029049
:1002B000401A019040286BDAC3F3130040F4801B0E
:1002C0000098924620B10023D2EB030A63EB0B0B9C
:1002D00001985946C0F14002504600F0CBF906465D
:1002E0000D4650465946019A00F0E3F910EB08001C
:1002F0006141002487EA115284EAE7731A4340D02F
:10030000009A62B3019A012A4FEA075215DC001BDA
:1003100061EB02014FF0004202EA0752CDE90042D0
:10032000001C41F5801132462B4600F01AFA03B04A
:10033000BDE8F08F40462146F9E7001B61EB020162
:10034000001C41F5801300185B412018A2F500172E
:1003500047EB030140EAD570B6196D4111E06D0815
:100360004FEA360645EAC0754FEA0752001B61EBBB
:100370000201001C41F5801149084FEA30000019C4
:10038000514132462B4603B0BDE8F04F00F0DAB9D8
:100390000098012240000023D0EB020263EBE073DF
:1003A000009821464FEAE074B8EB000061EB0401CD
:1003B000E9E783F000435BE781F0004158E72DE96E
:1003C000FE4F81EA030404F0004421F00041009450
:1003D0004FF0000B23F0004350EA01045ED052EAD4
:1003E00003045BD0C3F30A54C1F30A552C44A4F2AE
:1003F000F3340194A0FB0254C1F3130141F48011C2
:10040000C3F3130343F4801301FB024400FB034EC8
:10041000840A970A44EA815447EA8357A4FB076891
:1004200002958D0A05FB07854FEA932C04FB0C54BB
:100430002705029D4FEA065847EA1637B5EB08052F
:100440006EEB070C870E920E47EA811742EA831281
:10045000A7FB0201B6EB0B0164EB00042B0D43EA92
:100460000C335E1844EB1C50DA465146E7FB0201A0
:10047000C5F313044FEA0B3343EA14534FEA043233
:10048000019C43EA0603A4F10C040294009CCDE90C
:1004900000B400F066F903B0BDE8F08F002001461B
:1004A000F9E72DE9F04D81EA030404F0004B21F057
:1004B000004514464FF0000A23F0004150EA0502BF
:1004C00020D054EA01021DD0C5F30A570246C5F3F5
:1004D0001303C1F31300C1F30A5640F4801543F42B
:1004E0008013A7EB0608101BD64608F2FD3873EB05
:1004F000050002D308F1010801E092185B41B8F150
:10050000000F03DA00200146BDE8F08D00204FF413
:100510008011064684460EE0171B73EB050705D3D2
:10052000121B63EB050306434CEA010C49084FEA32
:10053000300092185B4150EA0107EDD152EA030006
:1005400012D082EA040083EA0501084305D0101B9B
:10055000AB4106D20122002306E000224FF0004307
:1005600002E06FF0010253101AEB06004CEB085149
:1005700010EB0A0041EB0B01BDE8F04D00F0E2B8D2
:100580000EB5C10F80EAE0700844CA07002140F2AE
:1005900033438DE80E000A460B4600F0E2F803B044
:1005A00000BD70B5C1F30A5201F000450024C1F34B
:1005B000130140F2FF3341F480119A4201DA002026
:1005C00070BD40F233439A42A2F2334203DC5242FE
:1005D00000F05FF800E090402C43F1D0404270BD45
:1005E00030B5041E71F1000404DB4FF000444042BA
:1005F00064EB0101141E73F1000405DB1C464FF08F
:100600000043524263EB0403994208BF904230BD5D
:1006100001F0004330B421F0004150EA010206D05D
:100620000A0DA2F56072C1F31301002A02DC30BC8E
:1006300000207047440F44EAC104C100E01830BCF8
:1006400000EBC25000F047B830B50B460146002021
:100650002022012409E021FA02F59D4205D303FA84
:1006600002F5491B04FA02F52844151EA2F1010205
:10067000F1DC30BD202A04DB203A00FA02F1002030
:1006800070479140C2F1200320FA03F319439040D0
:100690007047202A04DB203A21FA02F0002170473B
:1006A00021FA02F3D040C2F12002914008431946DA
:1006B0007047202A06DBCB17203A41FA02F043EAC2
:1006C000E07306E041FA02F3D040C2F1200291400B
:1006D0000843194670470029A8BF7047401C4900CD
:1006E00008BF20F00100704710B4B0FA80FC00FA97
:1006F0000CF050EA010404BF10BC704749B1CCF1C2
:10070000200421FA04F411FA0CF118BF012121434D
:100710000843A3EB0C01CB1D4FEA00614FEA102008
:1007200042BF002010BC704700EBC35010440029AA
:10073000A4BF10BC7047401C490008BF20F0010056
:1007400010BC704710B5141E73F1000408DA401C89
:1007500041F1000192185B411A4301D120F00100E0
:1007600010BD2DE9F04D92469B4611B1B1FA81F2D0
:1007700002E0B0FA80F220329046FFF77BFF044699
:100780000F4640EA0A0041EA0B0153465A46084325
:1007900013D0114653EA010019D0C8F14002504667
:1007A000FFF777FF05460E46504659464246FFF78B
:1007B00061FF084305D0012004E020463946BDE82A
:1007C000F08D0020054346EAE0762C4337430A9833
:1007D0006305E40AA0EB08000022FD0A44EA47543E
:1007E0000A3002D500200146E9E7010510196941E8
:1007F000DDE9084500196941BDE8F04DA2E7C1F304
:100800000A52C1F3130140F2FF3341F480119A42BE
:1008100002DA00200146704740F233439A42A2F2C6
:10082000334202DC5242FFF734BFFFF723BF000020
:1008300030B5041E71F1000404DB4FF00044404267
:1008400064EB0101141E73F1000405DB1C464FF03C
:100850000043524263EB04038B4208BF824230BD27
:1008600000207047064C074D06E0E06840F00103A9
:1008700094E8070098471034AC42F6D3FFF78EFC9B
:10088000EC5A00080C5B0008FEE700003EB500F0E3
:10089000E7FC1B4CE169401A0A280ED99FED190BA1
:1008A00053EC102B94ED0C0B51EC100BFFF7E0FC0C
:1008B000C4E90C0100F0D4FCE0619FED140B53EC93
:1008C000102B94ED0C0B51EC100BFFF789FE03D2AB
:1008D0009FED100B84ED0C0B0023012210210FA0C3
:1008E00001F0D4FD01200021CDE90001029094ED3A
:1008F0000C0B0623642218210E2002F0A6F93EBD3F
:10090000000000207B14AE47E17A843F0000000025
:100910000000F03F00000000000000004D65737310
:1009200061676520426F7800704700007CB500F079
:1009300097FC134C6168401A0F2805D9A068401C29
:10094000A06000F08DFC6060A0687F2801DD0020C1
:10095000A060BF200125CDE9005000213F230846BB
:10096000A26800F085F8AF20CDE90050A0683F23D1
:10097000C0F17F0200217F2000F07AF87CBD0000EA
:10098000000000207FB500F06BFC174CE168401AB6
:100990001E280AD920780028206901D0401C00E0D8
:1009A000401E206100F05CFCE060226901251F2AE6
:1009B00002DD0020207002E0002A00DA25700BA181
:1009C00002A802F08BFEF020CDE9005001231F2188
:1009D0004020226900F084FA0021102302AA084670
:1009E000009500F0A1FE7FBD00000020723D25644F
:1009F0000000000008B501200090102302A2182179
:100A0000002000F091FE08BDE9A9B1E58AA8E789B8
:100A100088E69CAC3A4F4C45442076312E342E4D1E
:100A20000000000072B6FEE702460020014606E024
:100A30007F2B02D9801CC91C01E0401C491C535C5F
:100A4000002BF5D1704738B50124009401F0BCFEAD
:100A500038BD01F069BD10B501F03CFEBDE81040A5
:100A600001F062BD0148C06800470000700000202E
:100A70002DE9F04F80462DED088B81B001261D46F3
:100A80001746DDE912A00C46AF2800D103264046E8
:100A9000B84506D00CE052462146404600F09CF88E
:100AA0003444AC42F7DD01B0BDEC088BBDE8F08FFB
:100AB000AC420AD1054605E052462146284600F0E0
:100AC0008BF83544BD42F7DDEDE7A2EB0800FFF7F8
:100AD00057FD814641EC180B281B0091FFF750FD94
:100AE0008B464BEC100B054653EC182B51EC100BBE
:100AF000FFF7D7FC9FED368B41EC1A0BB0EE489A0E
:100B0000F0EE689A27E02046FFF73AFD41EC1B0B18
:100B100053EC192B51EC1A0BFFF751FC53EC1B2B28
:100B2000FFF7A6FBFFF73DFD07464046FFF728FD10
:100B300053EC192BFFF79CFBFFF733FD5246394668
:100B400000F04AF83046FFF71BFD53EC192BFFF776
:100B50008FFB41EC190B009953EC192B41EC109BC6
:100B600051EC100BFFF73CFD28D8CCE72046FFF7EF
:100B700007FD53EC182BFFF77BFBFFF712FD074631
:100B80004046FFF7FDFC41EC190B53EC1A2B51ECDE
:100B9000180BFFF786FC53EC192BFFF769FBFFF7E7
:100BA00000FD5246394600F017F83046FFF7E8FCE2
:100BB00053EC182BFFF75CFB41EC180B4BEC105B74
:100BC00053EC182B51EC100BFFF70AFDCED96AE756
:100BD000000000000000000001F0B4BC2DE9FF4F50
:100BE00093462DED028B83B08946149AB0F1000A2A
:100BF00000DC002080460AEB0B06701C802801DA1E
:100C0000761C00E08026B9F1000001DD044600E01A
:100C1000002409EB0B00411C402901DA401C00E0D4
:100C200040200090F02A254669D005E1A8EB040099
:100C3000471961E0AAEB070000EE100AF0EE000A87
:100C4000B8EEC00A02F066FFB0EE408AA9EB0500DC
:100C500000EE100AF0EE000AB8EEC00A02F05AFFE9
:100C600038EE000AF0EE000AB0EEC08A00EE10BACC
:100C7000B8EEC00A02F04EFFB4EEC08AF1EE10FAF0
:100C800039D81298012806D002280ED0032817D090
:100C9000042830D121E0C5EB44013846139AFFF710
:100CA0009BFF04EB0800C11B1FE0C5EB4401C7EB31
:100CB0004800139AFFF790FF04EB0800C11B08E0FF
:100CC000C7EB48002946139AFFF786FFE119A1EB0D
:100CD000080108EB0400401B0AE029463846139A35
:100CE000FFF77AFFE119A1EB080108EB0500001BF3
:100CF000139AFFF771FF7F1CB7429BDB6D1C0098B6
:100D0000854293DB03B0BDEC028BBDE8FF8F00BFD3
:100D1000A8EB040047198BE0AAEB070000EE100ACD
:100D2000F0EE000A0290B8EEC00A02F0F3FEA9EB62
:100D3000050000EE900AB0EE408A0190B8EEE00A9D
:100D4000F0EE000A02F0E6FE38EE000AF0EE000ACD
:100D5000B0EEC08A00EE10BAB8EEC00A02F0DAFEB9
:100D6000B4EEC08AF1EE10FA61D80298F0EE000AF3
:100D700000EE100AB8EEC00A02F0CCFE0198B0EE08
:100D8000408A00EE100AF0EE000AB8EEC00A02F047
:100D9000C1FE38EE000A0899F0EE000AABEB010044
:100DA000B0EEC08A00EE100AB8EEC00A02F0B2FE41
:100DB000B4EEC08AF1EE10FA39DB1298012806D0A1
:100DC00002280ED0032817D0042830D121E0C5EB2B
:100DD00044013846139AFFF7FFFE04EB0800C11BDD
:100DE0001FE0C5EB4401C7EB4800139AFFF7F4FE80
:100DF00004EB0800C11B08E0C7EB48002946139A22
:100E0000FFF7EAFEE119A1EB080108EB0400401B23
:100E10000AE029463846139AFFF7DEFEE119A1EBF6
:100E2000080108EB0500001B139AFFF7D5FE7F1C95
:100E3000B742FFF671AF6D1C00988542FFF668AFB0
:100E400060E72DE9FC479042DDE90A7C01DA0446BF
:100E500000E01446A146994201DA0E4600E01E4623
:100E6000904200DC10460446994200DC19460D46CB
:100E7000BCF10F0F01D0B0462FE04FF0BF08CDE915
:100E800000783346224619464846FFF7F1FDCDE982
:100E900000782B46224619464846FFF7E9FDCDE982
:100EA00000784A462B4631461046FFF7E1FDCDE972
:100EB000007822462B4631461046FFF7D9FDBDE8A3
:100EC000FC874E4605E03A4641463046FFF784FE31
:100ED000761CA642F7DD08F10108A845F1DDEEE732
:100EE0002DE9FF4F89462DED028B85B0934615996C
:100EF000B0F1000A01DD054600E000250AEB0B0019
:100F0000421C802A01DA401C00E080208046B9F1B2
:100F1000000001DD044600E0002409EB0B00421C48
:100F2000402A01DA401C00E040200290F0292646C9
:100F300063D0F7E0281B87195CE000BFAAEB07002D
:100F400000EE100AF0EE000AB8EEC00A02F0E2FD70
:100F5000B0EE408AA9EB060000EE100AF0EE000A9F
:100F6000B8EEC00A02F0D6FD38EE000AF0EE000A34
:100F7000B0EEC08A00EE10BAB8EEC00A02F0CAFDA8
:100F8000B4EEC08AF1EE10FA33D831463846149ADE
:100F9000FFF722FEE019411BA819001B01910490E4
:100FA000149AFFF719FEC6EB440103913846149AD0
:100FB000FFF712FE6019C11B0091149A0498FFF705
:100FC0000BFEC7EB450003990390149AFFF704FE4C
:100FD0002819801B00990090149AFFF7FDFD3146F7
:100FE000149A0398FFF7F8FDDDE90001149AFFF762
:100FF000F3FD7F1C4745A1DB761C0298864299DBF6
:1010000005B0BDEC028BBDE8FF8F281B871985E07A
:10101000AAEB070000EE100AF0EE000A0190B8EE0D
:10102000C00A02F077FDA9EB060000EE900AB0EED0
:10103000408A0090B8EEE00AF0EE000A02F06AFD85
:1010400038EE000AF0EE000AB0EEC08A00EE10BAE8
:10105000B8EEC00A02F05EFDB4EEC08AF1EE10FAFE
:101060005BD80198F0EE000A00EE100AB8EEC00A54
:1010700002F050FD0098B0EE408A00EE100AF0EE4B
:10108000000AB8EEC00A02F045FD38EE000A0A99DF
:10109000F0EE000AABEB0100B0EEC08A00EE100AE1
:1010A000B8EEC00A02F036FDB4EEC08AF1EE10FAD6
:1010B00033DB31463846149AFFF78EFDE019411BA9
:1010C000A819001B01910490149AFFF785FDC6EB47
:1010D000440103913846149AFFF77EFD6019C11B45
:1010E0000091149A0498FFF777FDC7EB4500039928
:1010F0000390149AFFF770FD2819801B0099009047
:10110000149AFFF769FD3146149A0398FFF764FDBE
:10111000DDE90001149AFFF75FFD7F1C4745FFF6EC
:1011200077AF761C02988642FFF66FAF68E72DE92D
:10113000F04F87B09042DDE91076DDF848A001DA83
:10114000044600E014460494994201DA0C4600E09B
:101150001C460594904200DC10460390994200DC46
:1011600019468B460499401AB0EB470F02DA01EB9F
:1011700047000390ABEB04002146B0EB470F01DAC8
:1011800001EB470B02210091CDE9016A04983C4430
:10119000A0463844814601233A464146FFF71EFDEA
:1011A00001218DE8420403982146C51B01233A46DC
:1011B0002846FFF713FD03218DE84204ABEB07043B
:1011C000484601233A462146FFF708FD04218DE8F1
:1011D000420401233A4621462846FFF7FFFCBAF1B4
:1011E0000F0F1BD0F027CDE90067DDE90320234670
:1011F0004146FFF726FECDE9006743462A464846AA
:101200000599FFF71EFE2A46214648465B46CDE972
:101210000067FFF716FE07B0BDE8F08FBF27CDE9E6
:101220000067059B2A4648461946FFF721FC5B46A6
:101230002A4648461946CDE90067FFF719FC049A8B
:1012400023464146CDE900671046FFF711FC039A9B
:1012500023464146CDE900671046FFF709FCDAE76F
:1012600000F0A4BB08B501200090102302A21821B1
:10127000002000F059FA08BDE59BBEE5BDA2E5BA25
:1012800093E78988E69CAC3A76312E320000000064
:10129000054910B50348C86001F022FABDE81040C6
:1012A00001F042B9530A0008700000202DE9FF4FF9
:1012B00089462DED028B85B09846DDE917A1DDE961
:1012C0001552149C83461DB102EB0A00884206DCCD
:1012D000012005B0BDEC028B04B0BDE8F08F604387
:1012E00001FB04F3CDE90003A0EB08072846002624
:1012F000D0E904C3BCF1000F00D06046914207DA88
:10130000002201E08068521C8A42FBDB006809E091
:101310000AEB0200884202DC0BE0DB68521C8A42C6
:10132000FBDB1868FFF780FB604300EBD0704FEAEF
:10133000600A424A5146019800F096F80098DFF89A
:10134000FCA0404511DDDAF8001004EBD47201EB8B
:10135000620208EBD870B2EB600601D5002602E00D
:10136000BE4200DD3E468F1B01E0DAF800701B989C
:10137000B0F5FA7F1BDA9FED320B02F0E9F9B0EE1F
:10138000401AF0EE601AB0EE418AF0EE618A1B98C6
:10139000FFF7F6F841EC100B02F0DAF953EC182BDA
:1013A00051EC100BFFF77DF841EC100B01E09FEDC5
:1013B000260B51EC100BFFF72BF900EE100A1F481B
:1013C000303880ED020A1998102801D0C8B133E0F6
:1013D0001A98CDE90045CDE902600998F0EE400A7F
:1013E000021B0BEB04004346494600F0FBF80120CA
:1013F000009009EB0701234615A2584600F094F926
:101400001AE01A98F0EE400ACDE902604346CDE9B1
:10141000004549465846099A00F0E4F8012000903A
:10142000DAF8041009EB0400C31901EB0B0209EB15
:1014300007015846FFF707FB00204AE7A0000020FD
:101440000000000000407F40000000000000F03F6E
:101450002D3E000010B5029CE41A4443501AB4FB20
:10146000F0F0184410BD00002DE9F04116462DEDB6
:101470000C8B0746884600F099FA534C534D61682F
:10148000401AA96988427CD93068381AFFF778F881
:1014900041EC190B94ED040B53EC192B51EC100B90
:1014A000FEF7E6FE41EC1C0B51EC190B84ED04CB6E
:1014B00094ED060B53EC102BFEF77BFF41EC1D0B5C
:1014C0007168A8EB0100FFF75BF841EC180B94ED95
:1014D000080B53EC182B51EC100BFEF7C9FE41EC36
:1014E0001A0B51EC180B84ED08AB94ED0A0B53EC7E
:1014F000102BFEF75EFF95ED040B41EC1B0B53EC3C
:101500001D2B51EC100BFEF75AFF95ED020B41EC31
:101510001D0B53EC1C2B51EC100BFEF750FF95EDFF
:10152000000B41EC1C0B53EC192B51EC100BFEF78C
:1015300046FF53EC1C2BFEF79BFE53EC1D2BFEF7D6
:1015400097FE95ED081B53EC112BFEF738FFFFF7C4
:1015500028F8306095ED040B53EC1B2B51EC100B6D
:10156000FEF72DFF95ED020B41EC1B0B53EC1A2BF4
:1015700051EC100BFEF723FF41EC1A0B95ED000B1D
:1015800000E01DE053EC182B51EC100BFEF717FF99
:1015900053EC1A2BFEF76CFE53EC1B2BFEF768FE88
:1015A00095ED081B53EC112BFEF709FFFEF7F9FF31
:1015B000706084ED069B84ED0A8B00F0F7F96060A3
:1015C000BDEC0C8BBDE8F0817000002068010020AC
:1015D0009BB292B201F0A0B938B5049C009401F01E
:1015E00015FA38BD2DE9F04F90462DED028B83B0F2
:1015F0000FAA1D4692E8400CF0EE608AB0EE408AD9
:10160000DDF838905B1C08F101027769FFF7E0FF15
:1016100044480021B7EE000A01700C46366930EEEE
:10162000488A1FE004FB09F0A0EB0A0000EE100A54
:10163000CDF800B04B46B8EEC00A326820EE280A5A
:10164000BDEEC00A10EE101A00EE108AB8EEC00A05
:1016500028EE000ABDEEC00A10EE100A00F064F891
:10166000B668641C002EDDD120E000BF04FB09F049
:10167000A0EB0A0000EE100ACDF800B04B46B8EE21
:10168000C00A3A6820EE280ABDEEC00A10EE101A11
:1016900000EE108AB8EEC00A28EE000ABDEEC00ABD
:1016A00010EE100A00F040F8FF68641C002FDDD136
:1016B00004FB09F495FBF4F00126012824DA05FB6C
:1016C00005F090FBF4F7002322461946504600959A
:1016D000FFF7C0FE074400232246194650460095F6
:1016E000FFF7B8FE0146BF20CDE9006042463B4609
:1016F0001046FFF7BDF9AF20CDE9006042462B460A
:1017000000211046FFF7B4F900214023802208464B
:10171000FFF75EFF0348067003B0BDEC028BBDE827
:10172000F08F0000700000202DE9F84F1E4617468C
:101730008A4681460446002503EBD678DDF828B0BA
:1017400020E07A19334651462046CDF800B0FFF725
:1017500043FF785D7F2802D93444ED1C02E004EB9E
:1017600068046D1C785D7F2802D204EB680002E0FB
:1017700008D904EB0600802804DD0548007808B18C
:101780004C46B244785D0028DBD1BDE8F88F0000FC
:101790007000002070B5044600F008F90546601C92
:1017A00002D004480078044400F000F9401BA04235
:1017B000FAD370BD400000202DE9F84FDFF8B8A142
:1017C0000022012403254FF00F090AF1040BAAF1AE
:1017D000040E00BF0B6804FA02F63340B34273D123
:1017E0000F7907F00307012F01D0022F16D1876868
:1017F0004FEA420805FA08FC27EA0C07D1F80CC0AA
:101800000CFA08FC4CEA070CC0F808C04768B7435C
:101810000E79C6F3001696403E4346600E79F643B5
:10182000B6070DD0C768560005FA06FC27EA0C0774
:10183000D1F808C00CFA06FC4CEA070CC0F80CC042
:101840000E7906F00306022E10D1D60800EB8608AA
:10185000D8F8206057074FEAD76C09FA0CF7BE4357
:101860000F6907FA0CF73743C8F8207006684FEA8B
:10187000420C05FA0CF7BE430F7907F0030707FA8D
:101880000CF7374307604E6816F4403F6DD03B4E6F
:10189000376847F480473760366822F0030706F45C
:1018A00080460096364E07EB060CDCF80868970772
:1018B0003F0F09FA07F826EA0806DFF8C880404516
:1018C00003D14FF000081EE04FE0DFF8BC80404538
:1018D00002D14FF0010816E0DFF8B080404502D198
:1018E0004FF002080FE0DFF8A880404502D14FF02A
:1018F000030808E0DFF89C80404502D14FF004085F
:1019000001E04FF0070808FA07F848EA0608CCF8A3
:101910000888DAF800605746D1F804C09E435FEAB1
:10192000CC2C00D51E433E60DBF800605F46D1F84A
:1019300004C09E435FEA8C2C00D51E433E60DEF857
:1019400000607746D1F804C09E435FEA8C3C00D526
:101950001E433E60084F083F3E68D1F804C09E43D6
:101960005FEACC3C00D51E433E60521C102AFFF4B7
:1019700031AFBDE8F88F0000083C01404438024018
:101980000030014000000240000402400008024014
:10199000000C0240001002400069084000D0012005
:1019A00070470AB1816170470904FBE7014880680C
:1019B000704700004000002002488168027811440E
:1019C00081607047400000200B4810B5016841F469
:1019D00000710160016841F480610160016841F4B7
:1019E00080710160032000F061F80F2000F006F81C
:1019F00000F024F8002010BD003C024070B50D4DF1
:101A000004464FF47A712878B1FBF0F00A4909686E
:101A1000B1FBF0F000F025FC48B9102C07D20022F1
:101A20002146501E00F022F800206C6070BD01209D
:101A300070BD0000400000204C0000200A4808B59E
:101A4000016841F480410160006800F4804000902A
:101A50000548001F016841F080510160006800F0F6
:101A60008050009008BD000044380240F0B40E4B96
:101A70001B680C46C3F30223C3F10705042D00D9EC
:101A80000425191D072901D2002300E0DB1E0126D1
:101A900006FA05F1491E214099409E40761E1640E7
:101AA0003143F0BC01F041BE0CED00E0064900F00E
:101AB000070208684FF6FF03184040EA0220034A75
:101AC00010430860704700000CED00E00000FA05CC
:101AD0002DE9F0470E46050065D0DFF81481D8F8EF
:101AE0000000F7B200F00700B04207D288F800709B
:101AF000D8F8000000F00700B04254D128683D4CEF
:101B0000810712D5400703D5206840F4E0502060DB
:101B10002878000703D5206840F4604020602068E2
:101B2000A96820F0F000084320602878C0072DD075
:101B3000304968680839012812D0022813D00328D8
:101B400011D00968890700292DDA216821F00301E5
:101B500001432160FFF72AFF814641F2883A0EE0F7
:101B600009688903EFE709688901ECE7FFF71EFFC1
:101B7000A0EB0901514502D90320BDE8F087206898
:101B8000696800F00C00B0EB810FEFD1D8F80010BD
:101B9000404601F00701B14207D90770006800F024
:101BA0000700B04201D00120E7E72878400705D5BB
:101BB0002068E96820F4E050084320602878000796
:101BC00006D52068296920F4604040EAC100206001
:101BD00000F018F82168084AC1F30311515CC840AD
:101BE0000649086006480068FFF708FF0020C4E7C0
:101BF000003C024008380240D84C00084C0000204D
:101C000044000020154810B5006810F00C0214487C
:101C100013D04110042A0FD0082A0ED10F4C241FD4
:101C20002268236802F03F025B0207D52068C0F3F8
:101C30008810A0FB010106E0084610BD2168C1F331
:101C40008811A1FB00010023FEF7C2FA2168C1F34D
:101C50000141491C4900B0FBF1F010BD08380240B9
:101C60000024F4002DE9F84F04006ED02078DFF84E
:101C70004C93C007A9F104054AD009F1040001689A
:101C8000C1F38101012908D00068C0F38100022856
:101C90000AD1D9F80000400206D52868800337D55C
:101CA00060680028E1D033E06068B0F5803F10D074
:101CB000B0F5A02F286810D020F480302860286864
:101CC00020F4802028606068A8B1FFF76FFE064608
:101CD0000DE0286840F48030F4E740F4802028606C
:101CE000F7E700BFFFF762FE801B642873D82868FF
:101CF0008003F7D50CE0FFF759FE064605E000BF6C
:101D0000FFF754FE801B6428F0D828688003F7D4BE
:101D10002078DFF8AC8280074FF0000A3ED5A74854
:101D2000001D016811F00C0F08D00068C0F381009D
:101D300002280BD1D9F80000400207D42868800798
:101D400016D5E068012800D112E033E1E068B8B1AF
:101D50000120C8F80000FFF729FE064605E000BF95
:101D6000FFF724FE801B0228C0D828688007F7D51B
:101D70002868216920F0F80040EAC10028600DE0E1
:101D8000C8F800A0FFF712FE064604E0FFF70EFEBB
:101D9000801B02281FD828688007F7D42078000706
:101DA00022D5864F87486169703771B10121016082
:101DB000FFF7FCFD064604E0FFF7F8FD801B022854
:101DC00009D838688007F7D50EE0C0F800A0FFF703
:101DD000EDFD064605E082E0FFF7E8FD801B0228E6
:101DE0007DD838688007F7D42078400768D5DFF8B9
:101DF000CCB100270BF13C0BDBF80000C0000BD48A
:101E0000DBF8001041F08051CBF80010DBF8000047
:101E1000012700F0805000906B4E3068C00510D450
:101E2000306840F480703060FFF7C0FD009005E03E
:101E3000FFF7BCFD0099401A022850D83068C00551
:101E4000F6D55E4EA0686C3601280FD005283068A4
:101E500010D020F001003060306820F004003060C5
:101E6000A068B8B1FFF7A2FD00900FE0306840F025
:101E70000100F4E740F004003060F7E7FFF796FD5B
:101E80000099411A41F28830814266D83068800753
:101E9000F4D50EE0FFF78AFD009007E0FFF786FD1E
:101EA0000099411A41F28830814256D83068800743
:101EB000F4D42FB1DBF8001021F08051CBF80010E2
:101EC000A069C8B33D49091D0968C1F38101022910
:101ED0004AD00228504607D0C8F8600000E03CE035
:101EE000FFF764FD04463BE04746C8F86000FFF793
:101EF0005DFD064605E000BFFFF758FD801B022888
:101F00002BD828688001F7D4D4E907010843A16AD7
:101F10002E4A490802EB0141626A41EA82110843F4
:101F200094F82C1040EA0161C9F8001001203866CD
:101F3000FFF73CFD044606E03EE000BFFFF736FD3C
:101F4000001B022809D828688001F7D534E000BFBB
:101F5000FFF72CFD001B022802D90320BDE8F88FF3
:101F600028688001F4D427E00128F7D0D9F80000D0
:101F7000E26900F4800191421CD1226A00F03F0125
:101F8000914217D147F6C071626A0140B1EB821FDE
:101F900010D1A26A4FF0FF3300F4403103EB52023C
:101FA000B1EB024F06D194F82C1000F07060B0EB4A
:101FB000016F01D00120D1E70020CFE704380240B3
:101FC00000004742800E4742007000400000FFFFC3
:101FD00070B5040009D0606A002540B125616561D3
:101FE000A56294F8510040B10CE0012070BD60681A
:101FF000B0F5827FF4D0E561F2E784F850502046D6
:1020000000F044F8022084F851002068016821F0B3
:1020100040010160A088218900F4827001F404412C
:102020000843A18901F400610843217C01F0020109
:102030000843217D01F001010843218B01F4007167
:102040000843217F01F03801084394F8201001F083
:1020500080010843218D01F4005108432168086084
:10206000A069042101EA104094F8241001F0100145
:102070000843216848602068C16921F40061C1619A
:102080006565012084F85100002070BD10B586B050
:10209000044614216846FEF7D3F8134920688842A5
:1020A00020D112480021026842F480520260006888
:1020B00000F4805005900D481438026842F0010287
:1020C0000260006800F001000590E020009002200E
:1020D000CDE90101032003900520049069460448DE
:1020E000FFF76AFB06B010BD0030014044380240E3
:1020F000000002402DE9F84F044690F850000026F9
:10210000984615468A4601280CD0012784F850705D
:10211000FFF74CFC814694F85100B346012804D0E7
:1021200002269AE00220BDE8F88FBAF1000F6FD0C6
:10213000002D6DD0032084F85100C4F854B0C4F8C9
:1021400030A0A586E586C4F838B0A4F83CB0A4F861
:102150003EB0C4F844B0C4F840B0A068B0F5004F39
:1021600009D12068016821F0400101602068016800
:1021700041F48041016020680168490603D4016888
:1021800041F040010160E068B0F5006F606803D085
:1021900058B3012D29D049E008B1012D1FD1206B82
:1021A00021680088C86006E020688168890709D531
:1021B000216B0988C160206B801C2063E08E401E6B
:1021C000E0860CE0FFF7F2FBA0EB0901414503D3E9
:1021D000B8F1FF3F03D006E0B8F1000F03D0E08E66
:1021E0000028E1D125E0032635E0206B2168007846
:1021F000087306E02068816889070AD5216B097891
:102200000173206B401C2063E08E401EE0860DE0D1
:102210001FE0FFF7CBFBA0EB0901414503D3B8F169
:10222000FF3F03D0DFE7B8F1000FDCD0E08E0028DD
:10223000E0D14A464146204600F0B6FD08B12020D4
:102240006065A06818B92068C16880680090606DFA
:1022500008B1012601E084F8517084F850B030468E
:1022600061E710B5401EB0F1807F01D3012010BDA1
:102270004FF0E02460610F21601701F056FA002052
:10228000A06107202061002010BDFEE72DE9FF4F6F
:1022900004462DED028B89B000EBD470DDF8708020
:1022A0004710DDF868909A460D4604F1010BB8F529
:1022B000FA7F1BDA9FED2C0B01F04AFAB0EE401AC0
:1022C000F0EE601AB0EE418AF0EE618A4046FEF709
:1022D00057F941EC100B01F03BFA53EC182B51EC81
:1022E000100BFEF7DEF841EC100B01E09FED200B28
:1022F00051EC100BFEF78CF91F4E70622868FEF748
:1023000093FBB06240426043CDF8009000EE100AAB
:10231000D6ED090AB7EE001AB8EEC00A71EE600AEF
:10232000234600212A6820EE200ABDEEC00A10EEE6
:10233000100AFFF7F9F90D9A04A81023CDF81C80B4
:1023400080E80C02189803908DE83004C4F13F0334
:10235000C7F17E0259463846FEF7A8FF09B0BDEC2A
:10236000028BBDE8FF8F00000000000000407F40AE
:10237000000000000000F03F0000002008B5012030
:102380000090102302A218210020FFF7CDF908BD0C
:1023900053584755492076312E3300002DE9F0413E
:1023A00086B014216846FDF74BFF234800240168DE
:1023B00041F080010160016801F080010591016830
:1023C00041F001010160016801F00101059101681E
:1023D00041F0040101600068184F00F0040005900E
:1023E000002210213846FFF7DCFADFF85480002283
:1023F00030214046FFF7D5FA102001250326CDE90C
:102400000005CDE9024669463846FFF7D5F9302088
:10241000CDE90005CDE9024669464046FFF7CCF913
:102420004FF470708DE8310069464046FFF7C4F9FB
:1024300006B0BDE8F08100003038024000000240E4
:10244000000802400F4810B50D4901604FF4827139
:10245000416000218160C1604FF400720161C0E9F8
:102460000512C1610162416281620A21C162FFF706
:10247000AFFD002803D0BDE81040FEF7D3BA10BD71
:10248000003001400C010020FEE700002DE9FE4F66
:102490009B4616460C468146FEF7C6FAC02191FBC4
:1024A000F4F20546AA4201DA91FBF4F505FB04F0CB
:1024B00000EBD0718022A2EB610002EB61010423EA
:1024C000F0220093CDE9016200EBD07601EBD171EF
:1024D0000222981F02EB610200EB6600A31C0021A0
:1024E000FEF725FE4FEA66080026374604EBD47A4D
:1024F00015E000BF09EB0602234601214046CDF856
:1025000000B0FFF769F819F806007F2803D9F61C18
:10251000A044BF1C03E0761C08EB6A087F1CAF4296
:10252000E8DBBDE8FE8FFEE705490448097800EBCB
:1025300081204FF48061FDF783BE000090010020F0
:10254000A800002030B5002824DB164B9C8884426C
:1025500020DD00291EDBDC888C421BDD5C881B88AB
:1025600021441844CB1701EB5373DC1023F007030D
:10257000CB1A01210B4D9940AD1E0B4B2D78012A32
:1025800003EB852307D000EBC412985C61EA0000DE
:10259000C043985430BD00EBC4101A5C0A431A546F
:1025A00030BD0000AA000020900100202DE9F04F6E
:1025B00093462DED028B81B00F46B0F1000800DC90
:1025C0000020814608EB0B01481C7F2800DA00E060
:1025D0007F208246002F01DD3D4600E0002507EB0D
:1025E0000B01481C3F2800DA00E03F202C460090F9
:1025F00068E000BFA9EB0500061960E0A8EB060043
:1026000000EE100AF0EE000AB8EEC00A01F082FAFD
:10261000B0EE408A381B00EE100AF0EE000AB8EE69
:10262000C00A01F077FA38EE000AF0EE000AB0EEC8
:10263000C08A00EE10BAB8EEC00A01F06BFAB4EE30
:10264000C08AF1EE10FA39D80C98012806D0022879
:102650000ED0032817D0042830D121E0C4EB450167
:1026600030460D9AFFF76EFF05EB0900811B1FE056
:10267000C4EB4501C6EB49000D9AFFF763FF05EB7C
:102680000900811B08E0C6EB490021460D9AFFF7BF
:1026900059FFA919A1EB090109EB0500001B0AE08C
:1026A000214630460D9AFFF74DFFA919A1EB09010C
:1026B00009EB0400401B0D9AFFF744FF761C5645BA
:1026C0009CDB641C0098844294DB01B0BDEC028B5F
:1026D000BDE8F08F014800F027BA0000900100200B
:1026E000374810B500210180418080218180402140
:1026F000C180C820FFF74EF8324C0022102120463E
:10270000FFF74FF95020FFF745F80122102120462E
:10271000FFF747F9AE2000F0EBF9202000F0E8F9D0
:10272000002000F0E5F9B02000F0E2F9C82000F048
:10273000DFF9002000F0DCF9102000F0D9F940208A
:1027400000F0D6F9812000F0D3F9802000F0D0F914
:10275000A12000F0CDF9A62000F0CAF9A82000F0D1
:10276000C7F93F2000F0C4F9A42000F0C1F9D3203C
:1027700000F0BEF9002000F0BBF9D52000F0B8F958
:10278000F02000F0B5F9D92000F0B2F9222000F0D5
:10279000AFF9DA2000F0ACF9122000F0A9F9DB2043
:1027A00000F0A6F9202000F0A3F98D2000F0A0F998
:1027B000142000F09DF9BDE81040AF2000F098B95A
:1027C000AA000020000002402DE9FC5F9042DDF8E5
:1027D000309001DA044600E01446994201DA0F46CF
:1027E00000E01F46904200DC10460646994200DC9D
:1027F0001946DFF81CB14FF001080D468BF8008038
:10280000FFF792FEB9F1000F5DD00221CDE900186B
:102810000A460123B91CA01CFFF7C8FECDF80080B2
:1028200001230222B91CB01ECDF80480FFF7BEFEC2
:102830000321CDE9001801230222A91EA01CFFF7E5
:10284000B5FE0421CDE9001801230222A91EB01E05
:10285000FFF7ACFE07F10209A5F1020A0CE0A04661
:1028600005E001224946FFF76DFE08F101084046E8
:10287000B045F6DD09F10109D145F0DDB84607F1B3
:102880000209B71E0BE0A61C05E0012241463046B6
:10289000FFF758FE761CBE42F7DD08F10108C84577
:1028A000F1DDA81E0BE0A61C05E0012241463046E2
:1028B000FFF748FE761CBE42F7DD08F101008046B6
:1028C000A842F0DD0FE0B8460BE0274605E0012204
:1028D00041463846FFF736FE7F1CB742F7DD08F168
:1028E0000108A845F1DD0B4900204FF480630C1866
:1028F0000A5C94F8004462400A54401C9842F6DB9B
:10290000FFF712FE00218BF80010BDE8FC9F0000CD
:10291000A80000209001002030B5002800DC002035
:1029200084B20E480029048000DC002189B2418075
:102930007F2C00D37F2404803F2900D33F21A5189A
:102940004180802D01D3C4F180028280CA18402AC0
:1029500001D3C1F14003C38030BD0000AA000020B4
:102960002DE9FF4F82B0D81703EB507093468A468B
:102970004FF000080F9E01903FE010984FF00004C8
:10298000012808FB06F001D081462FE0009016E0F8
:1029900000990BEB040000250F5C029800EB040982
:1029A000380606D5AAEB050148460831109AFFF70C
:1029B000C9FD7806070E6D1C082DF1DB641CB442BE
:1029C000E6DB15E00BEB040119F80100D8B1002794
:1029D0000025380604D55146109A0298FFF7B2FD3B
:1029E0007806070E6D1C082DF3DB641CB442E9DB8E
:1029F00001980AF1080A08F10108B8EBE00FBCDB06
:102A000006B0BDE8F08F0127E2E700002DE9FF4F97
:102A1000107883B01C4616460D46802846D289465B
:102A2000610701D0012200E00022E31704EB53719B
:102A300002EBE10104EBD47252105143203801F053
:102A4000FF0A00F0FF0B00262BE00C2C1AD0102CF4
:102A500029D1234901EB0B104FF00008875D3806A0
:102A600004D52946109A0398FFF76CFD7806070EE7
:102A70006D1CA5EB0900A0420AD103984D46401CED
:102A800003900CE017490BEB4B0001EB8000E3E7F0
:102A900008F1010000F0FF08B8F1080FDFD3761C41
:102AA000F6B25645D1D307B0BDE8F08F0E4F0024E3
:102AB000032257F824103046FDF7CDFB18B1641CF3
:102AC0000F2CF5D3EFE710991020CDE9000107484E
:102AD000102300EB441229460398FFF741FFE2E779
:102AE0005C510008E84C0008B40000204C57000876
:102AF00031B50B4C002220212046FEF752FF002268
:102B000010212046FEF74DFF01231A46694605486D
:102B1000FFF7F0FA012220212046FEF742FF38BDE0
:102B2000000802400C01002070B50C4D0446002244
:102B300020212846FEF735FF012210212846FEF706
:102B400030FF01239A0221460548FFF7D3FA2846B1
:102B5000BDE8704001222021FEF723BF000802409B
:102B60000C01002030B5264D85B026A195ED000B57
:102B700001A853EC102B00F0B1FD012400210C231F
:102B800001AA08460094FEF7CFFD95ED020B20A1A7
:102B900053EC102B01A800F0A1FD0C2301AA19464B
:102BA00000200094FEF7C0FD95ED040B1BA153EC33
:102BB000102B01A800F092FD0C2301AA182100207F
:102BC0000094FEF7B1FD95ED080B17A153EC102B07
:102BD00001A800F083FD0C2301AA24210020009409
:102BE000FEF7A2FD14A101A8AA6900F077FD0C234D
:102BF00001AA302100200094FEF796FD05B030BDFB
:102C0000680100204B703A20252E3366000000003A
:102C10004B693A20252E3366000000004B643A20B1
:102C2000252E336600000000466163746F723A20FF
:102C3000252E3366000000004D696E54696D653ABB
:102C40002025646D7300000070472DE9F04F0F469A
:102C50002DED028B83B09246DDE90F1B03EBD3729F
:102C60005510CDE900514FF0F009FC1800EB0A06B1
:102C7000B0EE408AF0EE608A804623463246CDF8B8
:102C800008903946FEF753FA5046FDF779FC53ECAD
:102C9000182BFDF794FB41EC180B4046FDF770FC38
:102CA00053EC182BFDF7E4FAFDF77BFCCDE9005B54
:102CB0000246234639464046CDF80890FEF737FADB
:102CC0000F210E980095CDE9010123463246394681
:102CD0004046FEF72CFA03B0BDEC028BBDE8F08F46
:102CE0002DE9FE4389462F4C5FF00105FEF7B8FA47
:102CF0006169401A0F280AD960780028A06901D0BC
:102D0000401C00E0401EA061FEF7AAFA6061A269C3
:102D10003F2A02DD002060700AE0002A08DA6570B0
:102D20004FF4FA70FEF736FD89F80050BDE8FE83D7
:102D3000042602EBD270CDE900654FF00F08431076
:102D400000210846CDF80880FEF7F1F9A269CDE927
:102D5000006502EBD270F02743100021402002975B
:102D60004032FEF7E4F9A26908260096CDE9015742
:102D7000202702EBD27007EB600339460020FEF7F4
:102D8000D6F9A269CDE9006502EBD27007EB6003CA
:102D900020214020CDF808804032FEF7C8F9FDF729
:102DA0005AFEA3E700000020F8B515460E460B4674
:102DB000009204460122022100F02CF8A0B9134829
:102DC00013490068B0FBF1F04FF47A71484300906A
:102DD0006068B0F5827F0DD1334600228021204605
:102DE000009500F017F870B1606D40F0200060654C
:102DF0000320F8BD009830B1401E00902068806824
:102E0000C0430006F6D50020F8BD00004C000020AD
:102E100000366E012DE9F8431E4691468846044669
:102E2000089DFEF7C3FD401B351AFEF7BFFD0746A0
:102E300025480068C0F3CB30684338E0701C37D0B9
:102E4000FEF7B4FDC01BA84203D215B1009860B3D1
:102E50002CE02068416821F0E00141606068B0F535
:102E6000827F0BD1A068B0F5004F02D0B0F5806F23
:102E700004D12068016821F040010160A06AB0F52A
:102E8000005F09D12068016821F4005101602068C9
:102E9000016841F400510160012084F851000020D4
:102EA00084F850000320BDE8F8830025401E009000
:102EB0002068816838EA010004D000214945BDD16D
:102EC0000020F0E70121F9E74C00002070470A6973
:102ED0000AB101207047086142690AB905E002465B
:102EE000D0680028FBD1D16000E0416100208A60F9
:102EF0007047CA680AB101207047C86002690AB900
:102F000005E0024690680028FBD1916000E0016175
:102F100000204A60704770B504460D46182001F045
:102F2000A5FEC0E9004570BD70B505460C462020E1
:102F300001F09CFE0560846170BD000070B5074E15
:102F400005460C46306908B1012070BD202001F013
:102F50008DFE306105608461002070BD500000204E
:102F600010B5FFF7EBFF02480169416110BD000099
:102F7000500000202DE9F04F04462DED028B89B062
:102F800000EBD4704510601C189EDDF858809B46FD
:102F900092460F460890B6F5FA7F1BDA9FED2A0B92
:102FA00000F0D6FBB0EE401AF0EE601AB0EE418AA7
:102FB000F0EE618A3046FDF7E3FA41EC100B00F0C9
:102FC000C7FB53EC182B51EC100BFDF76AFA41ECE0
:102FD000100B01E09FED1E0B51EC100BFDF718FBE1
:102FE000DFF87490C4F13F03C5F17E02C9F8040014
:102FF0001799CDF810A00796CDE905181498CDE9DA
:103000000047CDE902B028460899FEF74FF9CDF800
:10301000008099ED010AF7EE000A604270EEC00AE6
:1030200000EE100A3A682346B8EEC00A002020EEEF
:10303000800ABDEEC00A10EE101AFEF775FB09B04B
:10304000BDEC028BBDE8F08F0000000000407F4027
:10305000000000000000F03F500000202DE9FF4F6D
:10306000794C85B0204693464069E278DDF8488087
:10307000416900699A46002532B110B1C4E90605DC
:1030800001E0C4E90651E570002701E080687F1C7B
:103090000028FBD1002601E0C968761C0029FBD17D
:1030A00098F803004FF0010900B32078F0B1A0694F
:1030B00088B160610169A16129B1FEF7D1F8E060D2
:1030C0002570E56105E04069E061FEF7C9F8E06060
:1030D0002570A5600AE0E06940B1607830B9FEF77C
:1030E000BFF8E060257084F80190A57098F80000A2
:1030F000A0B1207890B1607810B184F802900DE012
:103100006069C06850B1FEF7ABF8E0602570606997
:10311000C06860610069C4E90605A56098F802000E
:1031200030B3607820BB207810B3A06970B180689C
:1031300010B1C4E906050EE06169486910B1C4E93F
:10314000065008E0E5610869A06110E0E06978B127
:10315000C06820B1E061A068401CA06008E061691F
:10316000086910B1C4E9060501E04869E061A5609D
:1031700098F8010098B3607898BB207808B3A069EC
:10318000B8B1406810B1C4E9060517E06169486943
:1031900008B904E00846C1680029FBD137E0E561C1
:1031A000086900E0084681680029FBD1A061F01998
:1031B00013E0E06928B1806820B1E061A068401E9A
:1031C000A06027E061690869D8B1E56100E00846C0
:1031D00081680029FBD1A061A068401EA0606078D2
:1031E000C0B1E0694268AAB117494046891C9047BE
:1031F000A07810B36570FEF733F8E0602570A57015
:103200001BE0486900E00846C1680029FBD1C4E919
:103210000650CCE7FDF726FCFEF722F8E168069B96
:10322000401ACDF808B0CDE903A0CDE9006361698B
:103230003B46A2688D690598A84784F8009009B0BC
:10324000BDE8F04FFDF707BC50000020016909B14F
:103250000120704707490A690261516909B905E00F
:103260001146CA68002AFBD1C86000E05061816045
:103270000020704750000020C16809B1012070474C
:1032800007490A69C260116909B905E011468A68EF
:10329000002AFBD1886000E0106141600020704787
:1032A000500000202DE9FE4F324933A0FFF758FEB1
:1032B000324933A0FFF738FE0090304932A0FFF7C3
:1032C00033FE8146334934A0FFF725FE029035498D
:1032D00035A0FFF720FE0190364937A0FFF71BFE0F
:1032E0008346384938A0FFF716FE80463A493BA08E
:1032F000FFF711FE07463D493DA0FFF70CFE0646CD
:103300003F4940A0FFF707FE0546424942A0FFF7AC
:1033100002FE0446444945A0FFF7FDFD82460098A1
:10332000FFF7AAFF49460098FFF7E3FD0298FFF771
:103330008DFF0198FFF78AFF5846FFF787FF504639
:10334000FFF784FF41464846FFF7C1FD394648462E
:10335000FFF7BDFD31464846FFF7B9FD294648460F
:10336000FFF7B5FD03B021464846BDE8F04FFFF733
:10337000AEBD00008D22000848756200752F000860
:10338000E4BFA1E681AF0000475549E4BFA1E68153
:10339000AF0000002D09000844726177204C696E6F
:1033A00065000000850900084472617720526F753E
:1033B0006E640000E12C0008526F756E6420526547
:1033C000637400007D230008E58685E6A0B8E789E0
:1033D00088E69CAC0000000065120008E59BBEE595
:1033E000BDA2E5BA93E78988E69CAC00F509000820
:1033F000E9A9B1E58AA8E4BFA1E681AF0000000019
:103400001D360008E4BD9CE88085E4BFA1E681AFDD
:1034100000000000652B0008504944205061726193
:103420006D657465720000008D080008436F6E744E
:10343000726F6C73000000002DE9F0470446FEF740
:10344000B5FA484DE96A401A022873D9FEF7AEFA78
:103450000026DFF81481B146444F4FF0010AE862BC
:1034600007E036B1012E07D0022E17D0032E08D167
:1034700018E02546402101E0651C80214046FEF70A
:103480008BFA57F8261088B1491E47F826100529EF
:103490001ADA47F8269085F8009017E0A51C4FF43B
:1034A0008071EBE7E51C4FF40071E7E7491C47F832
:1034B0002610052905DD85F800A00A2147F8261009
:1034C00004E085F8009001E085F800A0761C042E49
:1034D000C7DB244D2378383562782E78A178E078E0
:1034E0001746B34201D0012600E00026267095F869
:1034F00001C0674501D0012700E000276770A94699
:10350000AD78A94201D0012500E00025A57099F809
:103510000380404502D04FF0010C01E04FF0000C59
:1035200084F803C01E4000D001262670174202D046
:10353000012601E014E0002666700D4000D0012550
:10354000A5701CEA000F01D0012500E00025E57000
:1035500089F8003089F8012089F8021089F8030001
:10356000BDE8F0870000002000080240FC000020B9
:10357000FEF722BA30B593B030216846FCF760FE02
:1035800014210CA8FCF75CFE1D480024016841F0E2
:1035900080510160006800F0805011901948016866
:1035A00021F4404141F4004101600068022500F42B
:1035B0004040119001200390102004900095069542
:1035C0000820CDE907405420CDE9090504200B90DF
:1035D0006846FEF747FB08B172B6FEE70F20CDE95B
:1035E0000C054FF48050CDE90E4002210CA8109438
:1035F000FEF76EFA002801D072B6FEE713B030BDB8
:1036000040380240007000400248016841F47001F7
:103610000160704788ED00E0FEE7000038B5012545
:103620000021102310A208460095FEF77DF8FDF753
:1036300017FE114C216A401A41F28831884206D99E
:10364000A07880F00100A070FDF70AFE2062A0784B
:103650004FF00C03009508B108A200E011A2182158
:103660000020FEF761F838BDE4BD9CE880853AE5AE
:10367000B281E5BF83000000000000204353444EA8
:103680003A2068747470733A2F2F626C6F672E63E0
:1036900073646E2E6E65742F6D305F373336373737
:1036A0003836360042696C6962696C693A20687420
:1036B0007470733A2F2F73706163652E62696C6941
:1036C00062696C692E636F6D2F3334393433353949
:1036D0003435323335343935330000000FB4084BFC
:1036E00010B504A902AA039800F0F4FE044602A94A
:1036F000002001F072FA204610BC5DF814FB0000B7
:10370000DB4B00084100080218BF04200A0E18BF56
:1037100040F001004FF07F4232EA010108BF40F063
:103720000200012808BF052070470907090E00287C
:1037300004DB00F1E02080F80014704700F00F0077
:1037400000F1E02080F8141D704700000000000028
:1037500070B5D94B00242DED020B2DED108BDDE95A
:103760001010984205DA20F000429A4201D809D19F
:1037700041B19DED100BBDEC108B02B0BDE8704067
:1037800000F08EBDB0F5801F26DA11430BD0002863
:1037900013DA012000F0D6FDBDEC108B02B0BDE8BD
:1037A000704000F089BD022000F0CCFD00F060FD0B
:1037B00051EC100B81F000419EE06FF035049FED5D
:1037C000C00B53EC102B9DED100B51EC100BFCF7C4
:1037D000F6FDCDE91001084604EB2051C0F31304B7
:1037E000B948A1F2FF31204400F4801080F07F62DC
:1037F00082F04052224301EB20559FEDB50B119210
:1038000053EC102B9DED100B51EC100BFCF7D1FD80
:1038100041EC180BA01CC0F313009FEDAFDB9FED34
:10382000B0EBB14E7E4403286CD296ED000B51EC08
:10383000180B53EC102BFCF7FBFF1DD1002D01BF23
:1038400096ED000BBDEC108B02B070BD2846FCF766
:1038500097FE41EC180B53EC1D2BFCF7B0FD41EC2F
:10386000190B53EC1E2B51EC180BFCF7A8FD53EC75
:10387000192BFCF7FDFC3FE09FED9D0B51EC180B65
:1038800053EC102BFCF79BFD9FED9B1B53EC112B76
:10389000FCF792FD41EC190B53EC182B51EC180B73
:1038A000FCF78DFD53EC192BFCF789FD41EC190B4E
:1038B000002D04BF53EC192B51EC180B1AD02846DD
:1038C000FCF75EFE41EC1A0B53EC1D2BFCF777FD69
:1038D00053EC192BFCF770FD53EC182BFCF769FD2A
:1038E00041EC180B53EC1E2B51EC1A0BFCF767FD47
:1038F00053EC182BFCF75DFDBDEC108B02B041ECD6
:10390000100B70BD9FED7E0B51EC180B53EC102B80
:10391000FCF7AEFC41EC100B51EC180B53EC102BE8
:10392000FCF7BFFD41EC190B2846FCF729FE41ECE2
:103930001B0B53EC192B51EC190BFCF740FD41EC20
:103940001A0B714853EC1A2B261851EC1A0BFCF782
:1039500036FD41EC1F0B6D48C4F1510404F5D7242A
:10396000B0EE4F0AF0EE6F0A0321784400F004FC39
:1039700053EC1F2B51EC100BFCF721FD41EC1C0B01
:103980006348B0EE4F0AF0EE6F0A0421784400F06D
:10399000F3FB53EC1A2B51EC100BFCF710FD3443E6
:1039A00053EC1C2BFCF764FC41EC1C0B002C4CDD95
:1039B0009FED510B51EC180B53EC102BFCF7FFFC57
:1039C00053EC182BFCF7FBFC41EC1A0B55B353ECF2
:1039D0001D2B51EC1B0BFCF7F2FC41EC1D0B53ECC7
:1039E0001C2B51EC1A0BFCF743FC53EC192BFCF786
:1039F000E6FC53EC1D2BFCF73BFC53EC1A2BFCF7BD
:103A0000DBFC53EC182BFCF7D4FC41EC180B53EC0B
:103A10001E2B51EC1B0BFCF7D2FC53EC182BFCF7C4
:103A2000C8FC69E753EC1C2B51EC1A0BFCF720FC8B
:103A300053EC192BFCF7C3FC53EC1A2BFCF7BCFC22
:103A400053EC182BFCF7B8FC56E735B353EC1D2BA1
:103A500051EC1B0BFCF7B3FC41EC1A0B53EC1C2B89
:103A600051EC180BFCF7A5FC53EC192BFCF7A7FC49
:103A700053EC1A2BFCF79DFC53EC182BFCF799FC2C
:103A800041EC180B53EC1E2B51EC1B0BFCF797FC75
:103A900053EC182BFCF78DFC2EE753EC1C2B51EC50
:103AA000180BFCF786FC53EC192BFCF788FC53EC45
:103AB000182BFCF781FC1FE70000F07F00000000DE
:103AC0000000000000005043645F09000000000097
:103AD000000000000000F03F763C7935EF39EA3D08
:103AE0000000E0FE422EE63F8022000000000000C1
:103AF000555555555555D53F000000000000E03F95
:103B0000000000000000004086EBF9FFC21F00002B
:103B1000B81F000010B510EE100A2DED068BB7EEA1
:103B2000001A10EE901AB0EE418A0022A0F5000CA7
:103B3000DFEDFE9A4FF00073BCF1FE4F4FF07F4473
:103B400003EB410C80F0B481BCF1804FC0F02082C7
:103B5000F74901449FEDF73AB1F5005F40F2D48296
:103B600000F58021CB0C03F00F0101EE901AC3F396
:103B700007137F3BA0EBC350B8EEE12A00EE100A1A
:103B80001A44DFEDED2AF0EE411A42EE221AF0EE71
:103B9000613A70EE232A30EE632A12EE900A00F5A5
:103BA00000606FF30B0001EE900A73EEE13A33EE22
:103BB000804AC1EE223A22EE230A10EE100A00F5E6
:103BC00000606FF30B0000EE100A00EE612A00EEB9
:103BD000442A62EE232A70EE221A21EEA12ADFED9A
:103BE000D73A02EE233A23EE023A20EE012A22EEE1
:103BF000811A03EE211A32EE010A10EE100A00F5C6
:103C000000606FF30B0000EE100A72EE401A31EE06
:103C1000812A9FEDCB1A60EE011A9FEDCA1A20EEA1
:103C2000011A9FEDC90A02EE001A31EE810A10EE68
:103C3000100A00F500606FF30B0000EE100AC34895
:103C400071EEC01A31EE812A784400EBC10090ED8C
:103C5000003AD0ED011A100101EE100AF8EEC12A67
:103C600032EE211A31EE001A31EE031A31EE221A29
:103C700011EE100A00F500606FF30B0009EE100A58
:103C800039EE621A31EE431A31EE400A30EE610A23
:103C900032EE40AA10EE900A002100F500606FF3AA
:103CA0000B0008EE900A084670EEE8AAFCF7D8FD73
:103CB00029EE280A00F00C01F0EEC00A10EE900A7E
:103CC000B0F18B4F0DDD10EE900AB4EB400F08D32E
:103CD00010EE100A4FF08B4262F31E0008EE900ABD
:103CE00013E069EE2A0A38EEAA1A4AEE010A30EE0B
:103CF000201A11EE100A00F500606FF30B0008EEB9
:103D0000900A30EE680A70EE209A0C20FCF7A8FDAD
:103D100038EEA90AB5EEC00AF1EE10FA34BFFEEE95
:103D2000000AF6EE000A30EE800ABDEEC00A10EE80
:103D3000100A011100EE101AF8EEC00A00EE100A87
:103D4000B8EEC00A38EEC00A30EE290ADFED801A5C
:103D50009FED801A00EE211ADFED7F1A7F4900F0F7
:103D60000F0040EE011A21EE800A794401EB800138
:103D700091ED001A7A49794401EB8001D1ED001AE6
:103D8000784901EE801A794401EB8000764990ED84
:103D9000000A31EE001AB0EEE00A10EE100A884276
:103DA00015DA10EE100AB4EB400F10D39FED6F0A36
:103DB00030EE800ADFED6E0A20EE200A68EE010A7E
:103DC000BDEC068BBCEEC00A20EE200A10BD10EE42
:103DD000100A6849884243DA10EE100AB4EB400F2B
:103DE0003ED3BDEEE00A68EE010A10EE100A00EBC9
:103DF000D0725110C90501F17E5100EE101AA0EBEE
:103E00006200C00560EE200A00F17E5000EE100A4C
:103E100060EE808A18EE900AB4EB400F0FD10220BA
:103E200000F090FA00F06EFA10EE101A18EE100A78
:103E3000BDEC068B61F31E0000EE100A10BD18EEFB
:103E4000900A400011D018EE900AFFF75BFC04289E
:103E500008BF00F05FFAB0EE680ABDEC068B10BD3B
:103E6000F5EEC00AF1EE10FA0FD2022000F06AFA65
:103E700000F050FA10EE101A18EE100ABDEC068B86
:103E800061F31E0000EE100A10BD022000F05AFA85
:103E900000F038FA10EE101AB0EE480A10EE100AD0
:103EA000BDEC068B61F31E0000EE100A10BD00BFD2
:103EB000BCF1804F6CD300BF00F1FF43B3F1FE4F64
:103EC00024D200BFB0EEC00A10EE100AC1F3C753EF
:103ED0007F2B0DDB972BBFF63BAEC3F196034FF064
:103EE000010C0CFA03F3A3F1010C1CEA010F08D03A
:103EF000012000F027FABDEC068BBDE8104000F071
:103F0000F9B90B4218BFBFEE008A21E643001CBF7F
:103F10004FF08073B3EB400F34D96FF01A02DFED2E
:103F2000161A20EE210A10EE100A27E00000000009
:103F3000001080C0ABAAAA3E0000803D7EE24C3E4D
:103F400000B03842D49AB8BB3BAA38421C1D0000CE
:103F5000FC596337C9FF753A1872313DBA1C00002D
:103F6000EE1C00005E1C00000000FC420000FE424F
:103F70000000004B000040430000004D10F0004FD7
:103F8000A0D1E5E5A0F50003B3F1FE4F21D2DFE5B6
:103F900003EB4103B3F1007F11D3F5EEC00AF1EE5C
:103FA00010FA05D1430018BFB4EB400F76D883E771
:103FB00001F0004141F0FC5100EE901A7CE7B3F1B2
:103FC000807F06D210EE903AA3F5000300EE903AFF
:103FD00072E720F000426FF0FF4C604C02EB0C03E4
:103FE000A34210D321F000439C44A4450BD3B0F16D
:103FF0007E5F18BF5FEA410C50D0B2F1FF4F98BF0F
:10400000B3F1FF4F05D9BDEC068BBDE8104000F0C1
:104010006DB9B0F1FF4F0FD0C1F3C7527F2A09DB52
:10402000972A11DAC2F19602012303FA02F2531E13
:104030000B4205D0002208E011F0004F55D128E0D6
:104040000A4218BF012200D1022210F5000F13D03E
:1040500028B3B0F1004F26D010F1814F4FD04FF070
:10406000FE42B2EB400F94BF01200020012202EB80
:10407000E171884239D10CE011F0004F02D0012AE1
:1040800038D032E0012A02BF9FED350ABDEC068B25
:1040900010BD9FED340ABDEC068B10BD2FE011F072
:1040A000004F0CD121E0B1F1FF4F1ED011F5000FF0
:1040B00005D011F0004F15D00AB1012A08D0022016
:1040C00000F040F9BDEC068BBDE8104000F004B9EB
:1040D000022000F037F900F0FFF8BDEC068BB1EEDE
:1040E000400A10BD0AB1012A04D0B0EE690ABDEC45
:1040F000068B10BDBDEC068B9FED1B0A10BDBDEC01
:10410000068BB7EE000A10BD30EE410AB5EE001A7C
:104110009FED172A00EE413AB6EE001A60EE001A43
:1041200000EE431A61EEC11A9FED101A20EE011A3B
:1041300020EE020A9FED0F2A01EE820A71EE001AAC
:1041400011EE900A00F500606FF30B0009EE100A03
:1041500031EE491A31EE00AA9CE50000FFFF3F0056
:10416000000080FF0000807F0000008000B0B841A8
:10417000D49A38BB3BAAB84170B504462DED028BEA
:104180004D1E00EBC500B0EE408AF0EE608A90ED67
:10419000000B35F0060017D053EC182B51EC100B28
:1041A000FCF70DF941EC100B6D1E04EBC50090ED12
:1041B000001B51EC100B53EC112BFCF759F841ECA0
:1041C000100B35F00600E7D1022D36D0042D1CD09F
:1041D000062D1CBFBDEC028B70BD53EC182B51ECAF
:1041E000100BFCF7ECF894ED0A1B53EC112BFCF7C9
:1041F0003FF853EC182BFCF7E2F894ED081B53EC56
:10420000112BFCF735F841EC100B53EC182B51EC4B
:10421000100BFCF7D4F894ED061B53EC112BFCF7B4
:1042200027F853EC182BFCF7CAF894ED040B53EC69
:10423000102BFCF71DF841EC100B53EC182B51EC34
:10424000100BFCF7BCF894ED021B53EC112BFCF7A0
:104250000FF853EC182BFCF7B2F894ED001B53EC5D
:10426000112BFCF705F8BDEC028B41EC100B70BD77
:104270009FED070B10B553EC102B9FED070B51EC86
:10428000100BFCF70EF941EC100B10BD0000000004
:104290000000000000000000000000000000F03FEF
:1042A00010B553EC102B51EC100BFBF7E1FF41EC78
:1042B000100B10BD000000009FED050B10B553EC76
:1042C000102B51EC100BFCF7ECF841EC100B10BD6F
:1042D0000000000000000000DFED030AB7EE001A46
:1042E00081EE200A704700000000000030EE200A36
:1042F00070470000DFED020A80EEA00A7047000060
:10430000000000009FED020A20EE000A7047000046
:10431000000000709FED020A20EE000A70470000C6
:104320000000001002E008C8121F08C1002AFAD1DC
:1043300070477047002001E001C1121F002AFBD125
:10434000704700000149086070470000F800002035
:104350002DE9FF5F82B00021DDE90430020DDDF8B8
:1043600040B0034318D044F61050A2F2FF3242434B
:104370001514119801281FD0A5EB0B00401C5FEA13
:10438000000A4FF000064E4FDFF83891B046504615
:1043900015D5CAF1000413E0119801244AA301289D
:1043A00001D16FEA0B010298119AC0E90031C0E90E
:1043B000024206B0BDE8F09FCBF10000DFE7044603
:1043C0000021404A491842EB0450CDE9001012E0A8
:1043D000E00707D032463B4640464946FBF7EFFF31
:1043E0008046894632463B4610461946FBF7E7FFB2
:1043F00006460F466410002CEAD1DDE90401DDE930
:104400000023BAF1000F06DAFBF7D9FF42464B460C
:10441000FBF7D5FF05E0FCF744F842464B46FCF7B6
:1044200040F804460E460022284BFCF7D9F803D882
:104430004FF0FF30014607E00022254B2046314671
:10444000FBF716FFFCF7DBF9102409E0002C0ADB70
:104450000A220023FBF7BCFE039B30321A55641E70
:1044600050EA0102F2D1641C039AC4F1110314440E
:10447000119A012A03D0012208430DD10AE0084312
:1044800004D000204FF0110B119072E7A3EB0B0545
:104490006D1E0DE05B4504DD4FF0000205F10105E6
:1044A00004E003DA4FF00002A5F10105002AECD088
:1044B00002981199C0E90231C0E9004579E700008E
:1044C000000014400000F03F300000000000F04306
:1044D0000000E03F2DE9FF4F95B09A46884606461A
:1044E0000025EEE1252877D100242746F94A01214D
:1044F000039400E0044316F8013F203B01FA03F067
:104500001042F7D130782A2811D06FF02F0330787D
:10451000A0F13002092A16D8039A44F0020402EBF3
:10452000820203EB42021044761C0390EFE758F836
:10453000042B0392002A03DA504244F400540390FF
:1045400044F00204761C30782E2816D116F8010F9C
:1045500044F004042A280DD06FF02F023078A0F127
:104560003003092B09D807EB870302EB4303C71875
:10457000761CF3E758F8047B761C30786C280FD053
:1045800006DC4C2817D068280DD06A2814D104E026
:10459000742810D07A280FD10DE044F400140AE0FA
:1045A00044F4801401E044F440147278824202D151
:1045B00004F58014761C761C307866280BD013DC4A
:1045C000582877D009DC002875D04528F6D0462831
:1045D000F4D047281AD193E118E0632835D0642835
:1045E00079D0652812D18BE1702873D008DC672858
:1045F000F1D069286FD06E280DD06F2806D1ACE0BD
:1046000073282CD0752874D0782853D05246179927
:1046100090476D1C54E1C4F30250022809D00328CE
:104620000DD0D8F8001004280DD00D6008F1040852
:1046300046E1D8F80010EA17C1E90052F6E7D8F8C9
:1046400000100D80F2E70D70F0E718F8041B8DF8EC
:10465000001000208DF80100EB46012003E058F81F
:1046600004BB4FF0FF3061074FF0000102D40DE0B2
:1046700009F101018946B9420FDA8145F8DB1BF8DF
:1046800009100029F4D108E009F1010189468142AD
:10469000FADB1BF809100029F6D103985346A0EB6A
:1046A000090721463846179A00F080FA284400EBA3
:1046B000090507E044E008E10DE01BF8010B524654
:1046C00017999047B9F10109F7D253462146384668
:1046D000179AF2E039E00A21C4F302524FF0000BBE
:1046E0000091022A06D058F8040BC117032A09D0FA
:1046F0000AE023E008F1070020F00702F2E80201D7
:10470000904605E000B2C117042A01D140B2C1179A
:10471000002906DA0A460021404261EB02012D22FF
:1047200002E0220504D52B228DF80420012203E0AB
:10473000E20701D02022F7E7914657E00A2100E086
:1047400010214FF0000B00910BE010214FF0000BF7
:1047500044F004040827009103E008204FF0000B08
:104760000090C4F30252022A05D058F8040B00212D
:10477000032A08D008E008F1070020F00702F2E859
:104780000201904603E080B2042A00D1C0B24FF08B
:10479000000922072AD53278702A07D0DDF800C038
:1047A0008CF0100C5CEA0B0C05D00EE040228DF86A
:1047B0000420012208E050EA010306D030238DF8DE
:1047C00004308DF8052002229146009B83F00803F7
:1047D00053EA0B030AD150EA010201D1620705D561
:1047E00030228DF804204FF001097F1E3278582ABC
:1047F00004D039A20C920CAA02920BE03BA2F9E77A
:104800005B46009AFBF7E4FC0C9B9B5C029A521EF1
:104810000292137050EA0102F2D1029804A9081A18
:1048200000F1200B600702D524F4803400E001275A
:104830005F4502DDA7EB0B0000E0002000EB0B0161
:10484000009003984944401A0390E00306D453466D
:104850002146179A039800F0A9F90544002706E0BD
:1048600001A85246C05D179990476D1C7F1C4F45AB
:10487000F6DBE0030CD553462146179A039800F067
:1048800095F9054404E030205246179990476D1C75
:104890000099481E00900029F5DC08E00298029972
:1048A00052460078491C0291179990476D1CBBF144
:1048B0000001ABF1010BF1DC5BE100F065F90544AF
:1048C000761C307800287FF40DAE19B02846BDE87C
:1048D000F08F00000928010030313233343536378B
:1048E000383961626364656600000000303132333C
:1048F00034353637383941424344454600000000DC
:10490000600700D4062708F1070020F00700F0E850
:104910000223804603F0004C5FEA0C0001D097A010
:1049200009E0200501D596A005E0E00701D095A09B
:1049300001E0AFF24C001390307823F0004365287B
:104940000CD006DC452809D046281DD047287FD149
:104950003BE0662818D067287AD136E00021112F75
:1049600001DB112000E0781CCDE9000104A90CA8AE
:10497000FFF7EEFCDDE90D010C9A4FF0000B07F19B
:104980000109109200914EE04FF000400097CDE9F0
:10499000011004A90CA8FFF7DBFCDDE90D020C9B5C
:1049A0000F994FF0000B91461093009211B9791CAA
:1049B00000EB0109B7EB090003D4C0F1FF3B07F19D
:1049C0000109A9EB0700019042E0012F00DA01275D
:1049D0000021112F01DD112000E03846CDE9000152
:1049E00004A90CA8FFF7B4FCDDE90D010C9A0091B5
:1049F0004FF0000BB946109221070FD4009A4A4598
:104A000003DA914601E0A9F10109B9F1010F05DDD1
:104A1000109AA9F10101515C3029F4D0B84202DAB0
:104A200010F1040F03DA0121CDE9011010E0002894
:104A300003DC8344A9EB000102E0411C494500DD91
:104A40008946A0EB0B00401C01904FF00040029003
:104A5000200705D40198484502DB4FF0FF30019054
:104A600000208DF84B0002980DF14B07B0F1004F7C
:104A700025D002200C902B200D90029800280CDAF3
:104A8000404202902D200D9007E00A210298FBF78A
:104A9000DBFD3031029007F8011D0C99481E0C9087
:104AA0000029F2DC02980028EFD1791E0D980870D9
:104AB000307800F0200040F0450007F8020D11A802
:104AC000C01BC01D02901398007800B1012000EBBC
:104AD0000901019801EBE071029801440398401A22
:104AE000401E0390E00306D453462146179A0398CC
:104AF00000F05CF805441398007818B152461799F5
:104B000090476D1CE00323D553462146179A03981E
:104B100000F04CF805441BE0BBF1000F07DB0098E8
:104B2000584504DD1098179910F80B0001E017990B
:104B300030205246904701980BF1010B401E05F1C1
:104B40000105019004D12E205246179990476D1C03
:104B5000B9F10001A9F10109DEDC05E017F8010B4C
:104B60005246179990476D1C0299481E02900029E1
:104B7000F4DC53462146179A03989EE62D00000068
:104B80002B000000200000002DE9F0410446002524
:104B90001E461746880404D405E039462020B04755
:104BA0006D1C641EF9D52846BDE8F0812DE9F04161
:104BB000044600251E469046C80301D5302700E074
:104BC0002027880404D505E041463846B0476D1CCF
:104BD000641EF9D52846BDE8F0810A68531C0B60B5
:104BE0001070704708B5FCF7EFFEFEF7C3FCFDF749
:104BF000D5FBFDF727FC16489FED130B0A2180ED2E
:104C0000000B9FED140B80ED020B9FED140B80ED5C
:104C1000040B9FED140B80ED080B8161082000F060
:104C200025F80446FCF734FBFEF73CFB2046FEF774
:104C300003FC00230122194610200094FEF70EFA0F
:104C40000520FCF7A7FDF1E79A999999999909C070
:104C50006801002054E3A59BC420104054E3A59BA9
:104C6000C420EC3F9A9999999999B93FF0B50B30C6
:104C7000154D20F007010024144A0FE003688B4211
:104C80000BD38B4205D95E1A43184768C3E9006706
:104C900000E04368136002C004E0021D10680028B1
:104CA000ECD12046002802D1286808B10020F0BDD0
:104CB000064A07481060074A121A22F00702C0E9A4
:104CC000002401202860D7E7F4000020F000002035
:104CD00094090020900B002000000000000000005C
:104CE000010203040607080900000000000000009C
:104CF00000000000000000003F4000000000000035
:104D000000003000400030004000000009000BC0EF
:104D10003D000BC03D00090018C024407FE0224048
:104D200031800000180024C01B000D80324001803B
:104D300003801C4027401C8007400040100060009A
:104D400000000000000000000000000000001F80C4
:104D5000204040200000402020401F800000000034
:104D6000090006001F80060009000000040004007E
:104D70003F800400040000000010006000000000FC
:104D8000000000000400040004000400040000000F
:104D9000000000400000000000000000002001C0F2
:104DA00006003800400000001F80204020402040C6
:104DB0001F800000000010403FC0004000000000C5
:104DC00018C021402240244018400000108020409C
:104DD000244024401B80000002000D0011003FC051
:104DE000014000003C8024402440244023800000F7
:104DF0001F80244024403440038000003000200005
:104E000027C03800200000001B802440244024409C
:104E10001B8000001C0022C0224022401F80000096
:104E2000000000000840000000000000000000003A
:104E30000460000000000000000004000A001100EF
:104E40002080404009000900090009000900000015
:104E500000004040208011000A00040018002000DB
:104E600023402400180000001F80204027402940D4
:104E70001F400000004007C039000F0001C0004083
:104E800020403FC0244024401B8000001F80204061
:104E9000204020403080000020403FC02040204083
:104EA0001F80000020403FC024402E4030C0000042
:104EB00020403FC024402E00300000000F00108032
:104EC000204022403380020020403FC00400040004
:104ED0003FC02040204020403FC0204020400000F4
:104EE0000060202020203FC02000200020403FC044
:104EF00024400B0030C0204020403FC020400040F4
:104F0000004000C03FC03C0003C03C003FC0000068
:104F100020403FC00C4023003FC020001F802040A5
:104F2000204020401F80000020403FC0244024003B
:104F3000180000001F802140214020E01FA0000039
:104F400020403FC02440260019C0004018C0244023
:104F50002440224031800000300020403FC02040EB
:104F60003000000020003F80004000403F802000D3
:104F700020003E0001C0070038002000380007C0B4
:104F80003C0007C038000000204039C0060039C08E
:104F9000204000002000384007C0384020000000BA
:104FA000304021C02640384020C0000000000000F2
:104FB0007FE0402040200000000070000C000380D3
:104FC000004000000000402040207FE00000000082
:104FD0000000200040002000000000000010001031
:104FE0000010001000100010000000004000000041
:104FF00000000000000002800540054003C00040A2
:1050000020003FC0044004400380000000000380F3
:105010000440044006400000000003800440244097
:105020003FC00040000003800540054003400000F1
:10503000000004401FC0244024402000000002E083
:10504000055005500650042020403FC00440040095
:1050500003C000400000044027C0004000000000E2
:1050600000100010041027E00000000020403FC0A6
:105070000140070004C00440204020403FC00040E1
:105080000040000007C0040007C0040003C0000087
:10509000044007C00440040003C000400000038037
:1050A0000440044003800000041007F00450044052
:1050B00003800000000003800440045007F000104B
:1050C000044007C002400400040000000000064045
:1050D0000540054004C00000000004001F8004409B
:1050E00000400000040007800040044007C000406A
:1050F0000400070004C0018006000400060001C08F
:10510000070001C006000000044006C0010006C000
:10511000044000000410071004E0018006000400B1
:105120000000044005C006400440000000000000EC
:1051300004007BE040200000000000000000FFF0C1
:1051400000000000000040207BE0040000000000A0
:1051500040008000400020002000400000000000CF
:10516000000000000000000000000000000000003F
:1051700000001FCC000C0000000000000000080030
:10518000300060000800300060000000022003FCD6
:105190001E20022003FC1E200220000000000E182A
:1051A00011043FFF10840C78000000000F001084F1
:1051B0000F3800C0077818840078000000780F844A
:1051C00010C411240E9800E4008400080800680050
:1051D000700000000000000000000000000000005F
:1051E000000007E018182004400200000000400200
:1051F0002004181807E000000000000002400240F0
:1052000001800FF001800240024000000080008019
:1052100000800FF800800080008000000001000D79
:10522000000E0000000000000000000000000080F0
:105230000080008000800080008000800000000C62
:10524000000C00000000000000000000000000064C
:10525000001800600180060018002000000007F020
:10526000080810041004080807F0000000000804F3
:1052700008041FFC000400040000000000000E0CE5
:1052800010141024104411840E0C000000000C189F
:1052900010041104110412880C700000000000E0DA
:1052A0000320042408241FFC0024000000001F9891
:1052B000108411041104108810700000000007F021
:1052C00008881104110418880070000000001C00F8
:1052D000100010FC13001C001000000000000E382D
:1052E00011441084108411440E380000000007009F
:1052F000088C10441044088807F0000000000000EB
:105300000000030C030C000000000000000000007F
:105310000001010600000000000000000000008005
:10532000014002200410080810040000022002209E
:1053300002200220022002200220000000001004AF
:1053400008080410022001400080000000000E0048
:105350001200100C106C10800F00000003E00C18FD
:1053600013E4142417C4082807D000000004003CEC
:1053700003C41C40074000E4001C000410041FFC90
:105380001104110411040E880070000003E00C18D1
:1053900010041004100410081C10000010041FFC5E
:1053A000100410041004080807F0000010041FFC8B
:1053B0001104110417C410040818000010041FFC85
:1053C0001104110017C010000800000003E00C18C1
:1053D0001004100410441C780040000010041FFC4E
:1053E00010840080008010841FFC10040000100452
:1053F00010041FFC10041004000000000003000152
:10540000100110011FFE10001000000010041FFC0E
:10541000110403801464181C1004000010041FFC05
:105420001004000400040004000C000010041FFC21
:105430001F0000FC1F001FFC1004000010041FFCD4
:105440000C04030000E010181FFC100007F008080F
:10545000100410041004080807F0000010041FFCDA
:1054600010841080108010800F00000007F00818D2
:1054700010241024101C080A07F2000010041FFC5E
:105480001104110011C011300E0C000400000E1C9C
:1054900011041084108410441C38000018001000FF
:1054A00010041FFC100410001800000010001FF86A
:1054B00010040004000410041FF8100010001E0067
:1054C00011E0001C007013801C0010001FC0103C75
:1054D00000E01F0000E0103C1FC000001004180C8A
:1054E000163401C001C01634180C100410001C0042
:1054F000130400FC13041C00100000000804101C1E
:105500001064108413041C04101800000000000034
:1055100000007FFE40024002400200000000300018
:105520000C0003800060001C00030000000040022B
:10553000400240027FFE000000000000000000006A
:105540002000400040004000200000000001000159
:105550000001000100010001000100010000400005
:105560004000200000000000000000000000009843
:10557000012401440144014400FC000410001FFC0C
:105580000088010401040088007000000000007021
:10559000008801040104010400880000000000707C
:1055A00000880104010411081FFC0004000000F839
:1055B000014401440144014400C80000000001040A
:1055C00001040FFC1104110411001800000000D6A2
:1055D00001290129012901C90106000010041FFC4D
:1055E000008401000100010400FC0004000001042B
:1055F000190419FC0004000400000000000000036E
:1056000000010101190119FE0000000010041FFC37
:105610000024004001B4010C01040000000010044B
:1056200010041FFC0004000400000000010401FC41
:105630000104010001FC0104010000FC010401FC63
:10564000008401000100010400FC0004000000F8D7
:10565000010401040104010400F80000010101FF3C
:105660000085010401040088007000000000007043
:10567000008801040104010501FF00010104010487
:1056800001FC00840104010001800000000000CC46
:1056900001240124012401240198000000000100DC
:1056A000010007F80104010400000000010001F8F6
:1056B000000400040004010801FC00040100018052
:1056C0000170000C001001600180010001F0010C6C
:1056D000003001C00030010C01F0010000000104A5
:1056E000018C00740170018C010400000101018132
:1056F0000171000E001801600180010000000184AA
:10570000010C013401440184010C00000000000080
:105710000000000001003EFC4002400200000000CA
:1057200000000000FFFF0000000000000000400239
:1057300040023EFC0100000000000000000060008C
:1057400080008000400040002000200000001E106B
:105750001090F09F909090901E00000080808442F6
:1057600041422428100804030000000000008000CB
:1057700000E002041800000040800000100C03004C
:10578000003F40404040407800010E00008060F83B
:10579000070004242425262424240400010000FFFB
:1057A000000000F94949494949F90000000000FC9E
:1057B00054545655545454FC00000000403000032B
:1057C00039414145594141730008300000FE202015
:1057D0003F2000FC24E4242223E20000807F01011A
:1057E000FF80601F804126182641800000101010A5
:1057F00010D030FF30D0101010100000100804023C
:10580000090808FF080809020408100000F8080841
:105810000808887F8808080808F8000000FF0008CA
:10582000040201000001024C807F00001010D0FF34
:1058300090100888C8A8998E88482800040300FFA3
:1058400000038888444422112844820000FE02425A
:1058500022325E925232120202FE000000FF4242E9
:10586000425155646941424242FF0000808282FEFB
:105870008282FE8282802010088660008040300F85
:105880000000FF000080844221100C000000FC2476
:1058900024A4643DA62424242424040040300F10B2
:1058A00013121212FF12121212101000008060F870
:1058B0000740300FF888888888080800010000FF3A
:1058C00000000000FF080808080800002020242429
:1058D0002424BF6424342824222020001008040239
:1058E000FF494949494949FF0000000002FA828204
:1058F000FE8000FE02126282621A020008184884CA
:10590000443F007F50484641465840004044C4440C
:105910004444401010FF101010F00000103C131011
:1059200014B840300E014080403F000000000000ED
:1059300004FA97999999D93FAF788E1DC571CC3FDC
:105940009FC678D0099AC33F935555555555E53FA5
:10595000599322942449D23FDE03CB966446C73F35
:1059600044523EDF12F1C23F000000000000000080
:105970000000B33FB2BE7D3A00002E40DFCF513869
:1059800000007E40BF51FABA00E0A44019DAC3BA61
:1059900000E0C840C2ED8AB90040EB40CD1F2CBAF0
:1059A000001006412AFFFABA00C01541DFCFD137F7
:1059B00000D024419A97703A0050334189478E367F
:1059C00000404141E75B9D3800B04E41C00A98B9A4
:1059D00000A05B41558F943A00306841DA92C0BA1A
:1059E0000040744162B3C63A0000803F00A0853F8A
:1059F00000908B3F00C0913F0030983F00F09E3FE9
:105A000000F0A53F0050AD3F0000B53F0000BD3F96
:105A10000060C53F0020CE3F0040D73F00C0E03FC0
:105A200000C0EA3F0020F53F000000007D36AC39A1
:105A30007D3C3839EBDCF438320A7E39124C263999
:105A40009B6AED39A4EE83397F661E39F6398A39AF
:105A50002B426539A48211395B991F39C3EECD39C8
:105A6000DDE7C637A5A22F390000803FC3AA853FD6
:105A7000C2958B3FD3C3913FF037983F32F59E3F9D
:105A8000D7FEA53F3F58AD3FF304B53FA408BD3F47
:105A90002A67C53F8C24CE3FFD44D73FDFCCE03F93
:105AA000C7C0EA3F7D25F53F000000000000000070
:105AB000E5B28100E5BF8300E8808500E5868500CA
:105AC000E7898800E5BA9300E4BD9C00E4BFA1002B
:105AD000E5BDA200E58AA800E69CAC00E681AF0027
